{"abi":[{"type":"function","name":"addOrModifyConditionsBatch","inputs":[{"name":"conditions","type":"tuple[]","internalType":"struct NibbleLibrary.Condition[]","components":[{"name":"id","type":"bytes","internalType":"bytes"},{"name":"metadata","type":"string","internalType":"string"},{"name":"encrypted","type":"bool","internalType":"bool"}]}],"outputs":[],"stateMutability":"nonpayable"},{"type":"function","name":"getConditionIsEncrypted","inputs":[{"name":"conditionId","type":"bytes","internalType":"bytes"}],"outputs":[{"name":"","type":"bool","internalType":"bool"}],"stateMutability":"view"},{"type":"function","name":"getConditionMetadata","inputs":[{"name":"conditionId","type":"bytes","internalType":"bytes"}],"outputs":[{"name":"","type":"string","internalType":"string"}],"stateMutability":"view"},{"type":"function","name":"initialize","inputs":[{"name":"nibbleFactoryAddress","type":"address","internalType":"address"},{"name":"nibbleAccessControlsAddress","type":"address","internalType":"address"},{"name":"nibbleStorageAddress","type":"address","internalType":"address"}],"outputs":[],"stateMutability":"nonpayable"},{"type":"function","name":"nibbleAccessControls","inputs":[],"outputs":[{"name":"","type":"address","internalType":"contract NibbleAccessControls"}],"stateMutability":"view"},{"type":"function","name":"nibbleStorage","inputs":[],"outputs":[{"name":"","type":"address","internalType":"address"}],"stateMutability":"view"},{"type":"function","name":"removeConditionsBatch","inputs":[{"name":"conditionIds","type":"bytes[]","internalType":"bytes[]"}],"outputs":[],"stateMutability":"nonpayable"},{"type":"event","name":"ConditionsModified","inputs":[{"name":"conditionId","type":"bytes[]","indexed":false,"internalType":"bytes[]"},{"name":"metadata","type":"string[]","indexed":false,"internalType":"string[]"},{"name":"encrypted","type":"bool[]","indexed":false,"internalType":"bool[]"},{"name":"newCondition","type":"bool[]","indexed":false,"internalType":"bool[]"}],"anonymous":false},{"type":"event","name":"ConditionsRemoved","inputs":[{"name":"conditionId","type":"bytes[]","indexed":false,"internalType":"bytes[]"}],"anonymous":false},{"type":"event","name":"Initialized","inputs":[{"name":"version","type":"uint64","indexed":false,"internalType":"uint64"}],"anonymous":false},{"type":"error","name":"InvalidInitialization","inputs":[]},{"type":"error","name":"InvalidInitializer","inputs":[]},{"type":"error","name":"InvalidRole","inputs":[]},{"type":"error","name":"NotInitializing","inputs":[]}],"bytecode":{"object":"0x6080604052348015600f57600080fd5b506111068061001f6000396000f3fe608060405234801561001057600080fd5b506004361061007d5760003560e01c80639c081d2c1161005b5780639c081d2c146100e3578063c0c53b8b1461010e578063d155df6014610121578063f8d0e2961461013457600080fd5b8063393cf3a21461008257806342af388b146100975780635e2ec359146100c0575b600080fd5b610095610090366004610af8565b610147565b005b6100aa6100a5366004610c46565b61062c565b6040516100b79190610cd2565b60405180910390f35b6100d36100ce366004610c46565b6106df565b60405190151581526020016100b7565b6000546100f6906001600160a01b031681565b6040516001600160a01b0390911681526020016100b7565b61009561011c366004610d01565b61070d565b61009561012f366004610d44565b61076f565b6001546100f6906001600160a01b031681565b600054604051633cd4605360e11b81523360048201526001600160a01b03909116906379a8c0a690602401602060405180830381865afa15801561018f573d6000803e3d6000fd5b505050506040513d601f19601f820116820180604052508101906101b39190610dee565b1580610228575060005460405163f328ac9f60e01b81523360048201526001600160a01b039091169063f328ac9f90602401602060405180830381865afa158015610202573d6000803e3d6000fd5b505050506040513d601f19601f820116820180604052508101906102269190610dee565b155b8061023e57506001546001600160a01b03163314155b1561025c57604051636caa20b560e11b815260040160405180910390fd5b600081516001600160401b03811115610277576102776109d7565b6040519080825280602002602001820160405280156102a0578160200160208202803683370190505b509050600082516001600160401b038111156102be576102be6109d7565b6040519080825280602002602001820160405280156102e7578160200160208202803683370190505b509050600083516001600160401b03811115610305576103056109d7565b60405190808252806020026020018201604052801561033857816020015b60608152602001906001900390816103235790505b509050600084516001600160401b03811115610356576103566109d7565b60405190808252806020026020018201604052801561038957816020015b60608152602001906001900390816103745790505b50905060005b85518110156105e75760028682815181106103ac576103ac610e0b565b6020026020010151600001516040516103c59190610e21565b90815260405190819003602001902080546103df90610e3d565b90506000036104115760018582815181106103fc576103fc610e0b565b91151560209283029190910190910152610436565b600085828151811061042557610425610e0b565b911515602092830291909101909101525b604051806060016040528087838151811061045357610453610e0b565b602002602001015160000151815260200187838151811061047657610476610e0b565b602002602001015160200151815260200187838151811061049957610499610e0b565b602002602001015160400151151581525060028783815181106104be576104be610e0b565b6020026020010151600001516040516104d79190610e21565b908152604051908190036020019020815181906104f49082610ec6565b50602082015160018201906105099082610ec6565b50604091909101516002909101805460ff1916911515919091179055855186908290811061053957610539610e0b565b60200260200101516040015184828151811061055757610557610e0b565b60200260200101901515908115158152505085818151811061057b5761057b610e0b565b60200260200101516020015183828151811061059957610599610e0b565b60200260200101819052508581815181106105b6576105b6610e0b565b6020026020010151600001518282815181106105d4576105d4610e0b565b602090810291909101015260010161038f565b507fed7c6447cb2242ce90af8ac91712221adecca4c5e4451954ef55cbcbe697b8bb8183858760405161061d949392919061101e565b60405180910390a15050505050565b606060028260405161063e9190610e21565b9081526020016040518091039020600101805461065a90610e3d565b80601f016020809104026020016040519081016040528092919081815260200182805461068690610e3d565b80156106d35780601f106106a8576101008083540402835291602001916106d3565b820191906000526020600020905b8154815290600101906020018083116106b657829003601f168201915b50505050509050919050565b60006002826040516106f19190610e21565b9081526040519081900360200190206002015460ff1692915050565b82336001600160a01b038216146107375760405163adc06ae760e01b815260040160405180910390fd5b61073f610931565b50600080546001600160a01b039384166001600160a01b0319918216179091556001805492909316911617905550565b600054604051633cd4605360e11b81523360048201526001600160a01b03909116906379a8c0a690602401602060405180830381865afa1580156107b7573d6000803e3d6000fd5b505050506040513d601f19601f820116820180604052508101906107db9190610dee565b1580610850575060005460405163f328ac9f60e01b81523360048201526001600160a01b039091169063f328ac9f90602401602060405180830381865afa15801561082a573d6000803e3d6000fd5b505050506040513d601f19601f8201168201806040525081019061084e9190610dee565b155b8061086657506001546001600160a01b03163314155b1561088457604051636caa20b560e11b815260040160405180910390fd5b60005b81518110156108f65760028282815181106108a4576108a4610e0b565b60200260200101516040516108b99190610e21565b90815260405190819003602001902060006108d48282610981565b6108e2600183016000610981565b50600201805460ff19169055600101610887565b507f7c85b47fe0370a4fe7c869dd363e78378ed7405999673123a52fc62e6f00d3108160405161092691906110bd565b60405180910390a150565b7ff0c57e16840df040f15088dc2f81fe391c3923bec73e23a9662efc9c229c6a005468010000000000000000900460ff1661097f57604051631afcd79f60e31b815260040160405180910390fd5b565b50805461098d90610e3d565b6000825580601f1061099d575050565b601f0160209004906000526020600020908101906109bb91906109be565b50565b5b808211156109d357600081556001016109bf565b5090565b634e487b7160e01b600052604160045260246000fd5b604051606081016001600160401b0381118282101715610a0f57610a0f6109d7565b60405290565b604051601f8201601f191681016001600160401b0381118282101715610a3d57610a3d6109d7565b604052919050565b60006001600160401b03821115610a5e57610a5e6109d7565b5060051b60200190565b6000806001600160401b03841115610a8257610a826109d7565b50601f8301601f1916602001610a9781610a15565b915050828152838383011115610aac57600080fd5b828260208301376000602084830101529392505050565b600082601f830112610ad457600080fd5b610ae383833560208501610a68565b9392505050565b80151581146109bb57600080fd5b600060208284031215610b0a57600080fd5b81356001600160401b03811115610b2057600080fd5b8201601f81018413610b3157600080fd5b8035610b44610b3f82610a45565b610a15565b8082825260208201915060208360051b850101925086831115610b6657600080fd5b602084015b83811015610c3b5780356001600160401b03811115610b8957600080fd5b85016060818a03601f19011215610b9f57600080fd5b610ba76109ed565b60208201356001600160401b03811115610bc057600080fd5b610bcf8b602083860101610ac3565b82525060408201356001600160401b03811115610beb57600080fd5b82016020810190603f018b13610c0057600080fd5b610c0f8b823560208401610a68565b60208301525060608201359150610c2582610aea565b6040810191909152835260209283019201610b6b565b509695505050505050565b600060208284031215610c5857600080fd5b81356001600160401b03811115610c6e57600080fd5b610c7a84828501610ac3565b949350505050565b60005b83811015610c9d578181015183820152602001610c85565b50506000910152565b60008151808452610cbe816020860160208601610c82565b601f01601f19169290920160200192915050565b602081526000610ae36020830184610ca6565b80356001600160a01b0381168114610cfc57600080fd5b919050565b600080600060608486031215610d1657600080fd5b610d1f84610ce5565b9250610d2d60208501610ce5565b9150610d3b60408501610ce5565b90509250925092565b600060208284031215610d5657600080fd5b81356001600160401b03811115610d6c57600080fd5b8201601f81018413610d7d57600080fd5b8035610d8b610b3f82610a45565b8082825260208201915060208360051b850101925086831115610dad57600080fd5b602084015b83811015610c3b5780356001600160401b03811115610dd057600080fd5b610ddf89602083890101610ac3565b84525060209283019201610db2565b600060208284031215610e0057600080fd5b8151610ae381610aea565b634e487b7160e01b600052603260045260246000fd5b60008251610e33818460208701610c82565b9190910192915050565b600181811c90821680610e5157607f821691505b602082108103610e7157634e487b7160e01b600052602260045260246000fd5b50919050565b601f821115610ec157806000526020600020601f840160051c81016020851015610e9e5750805b601f840160051c820191505b81811015610ebe5760008155600101610eaa565b50505b505050565b81516001600160401b03811115610edf57610edf6109d7565b610ef381610eed8454610e3d565b84610e77565b6020601f821160018114610f275760008315610f0f5750848201515b600019600385901b1c1916600184901b178455610ebe565b600084815260208120601f198516915b82811015610f575787850151825560209485019460019092019101610f37565b5084821015610f755786840151600019600387901b60f8161c191681555b50505050600190811b01905550565b600082825180855260208501945060208160051b8301016020850160005b83811015610fd457601f19858403018852610fbe838351610ca6565b6020988901989093509190910190600101610fa2565b50909695505050505050565b600081518084526020840193506020830160005b828110156110145781511515865260209586019590910190600101610ff4565b5093949350505050565b6080815260006110316080830187610f84565b828103602084015280865180835260208301915060208160051b8401016020890160005b8381101561108757601f19868403018552611071838351610ca6565b6020958601959093509190910190600101611055565b5050858103604087015261109b8189610fe0565b935050505082810360608401526110b28185610fe0565b979650505050505050565b602081526000610ae36020830184610f8456fea26469706673582212206360a31454b9731baed3ac9309095ae5ce9d60c88e37156f1fe82bb6fab6f74764736f6c634300081a0033","linkReferences":{}},"methodIdentifiers":{"addOrModifyConditionsBatch((bytes,string,bool)[])":"393cf3a2","getConditionIsEncrypted(bytes)":"5e2ec359","getConditionMetadata(bytes)":"42af388b","initialize(address,address,address)":"c0c53b8b","nibbleAccessControls()":"9c081d2c","nibbleStorage()":"f8d0e296","removeConditionsBatch(bytes[])":"d155df60"},"id":5}