{"abi":[{"type":"function","name":"addOrModifyConditionsBatch","inputs":[{"name":"conditions","type":"tuple[]","internalType":"struct NibbleLibrary.Condition[]","components":[{"name":"id","type":"bytes","internalType":"bytes"},{"name":"metadata","type":"string","internalType":"string"},{"name":"encrypted","type":"bool","internalType":"bool"}]}],"outputs":[],"stateMutability":"nonpayable"},{"type":"function","name":"getConditionIsEncrypted","inputs":[{"name":"conditionId","type":"bytes","internalType":"bytes"}],"outputs":[{"name":"","type":"bool","internalType":"bool"}],"stateMutability":"view"},{"type":"function","name":"getConditionMetadata","inputs":[{"name":"conditionId","type":"bytes","internalType":"bytes"}],"outputs":[{"name":"","type":"string","internalType":"string"}],"stateMutability":"view"},{"type":"function","name":"initialize","inputs":[{"name":"nibbleFactoryAddress","type":"address","internalType":"address"},{"name":"nibbleAccessControlsAddress","type":"address","internalType":"address"},{"name":"nibbleStorageAddress","type":"address","internalType":"address"}],"outputs":[],"stateMutability":"nonpayable"},{"type":"function","name":"nibbleAccessControls","inputs":[],"outputs":[{"name":"","type":"address","internalType":"contract NibbleAccessControls"}],"stateMutability":"view"},{"type":"function","name":"nibbleStorage","inputs":[],"outputs":[{"name":"","type":"address","internalType":"address"}],"stateMutability":"view"},{"type":"function","name":"removeConditionsBatch","inputs":[{"name":"conditionIds","type":"bytes[]","internalType":"bytes[]"}],"outputs":[],"stateMutability":"nonpayable"},{"type":"event","name":"ConditionsModified","inputs":[{"name":"conditionId","type":"bytes[]","indexed":false,"internalType":"bytes[]"},{"name":"metadata","type":"string[]","indexed":false,"internalType":"string[]"},{"name":"encrypted","type":"bool[]","indexed":false,"internalType":"bool[]"},{"name":"newCondition","type":"bool[]","indexed":false,"internalType":"bool[]"}],"anonymous":false},{"type":"event","name":"ConditionsRemoved","inputs":[{"name":"conditionId","type":"bytes[]","indexed":false,"internalType":"bytes[]"}],"anonymous":false},{"type":"event","name":"Initialized","inputs":[{"name":"version","type":"uint64","indexed":false,"internalType":"uint64"}],"anonymous":false},{"type":"error","name":"AlreadyInitialized","inputs":[]},{"type":"error","name":"InvalidInitialization","inputs":[]},{"type":"error","name":"InvalidInitializer","inputs":[]},{"type":"error","name":"InvalidRole","inputs":[]},{"type":"error","name":"NotInitializing","inputs":[]}],"bytecode":{"object":"0x6080604052348015600f57600080fd5b506110d78061001f6000396000f3fe608060405234801561001057600080fd5b506004361061007d5760003560e01c80639c081d2c1161005b5780639c081d2c146100e3578063c0c53b8b1461010e578063d155df6014610121578063f8d0e2961461013457600080fd5b8063393cf3a21461008257806342af388b146100975780635e2ec359146100c0575b600080fd5b610095610090366004610ac9565b610147565b005b6100aa6100a5366004610c17565b61062c565b6040516100b79190610ca3565b60405180910390f35b6100d36100ce366004610c17565b6106df565b60405190151581526020016100b7565b6000546100f6906001600160a01b031681565b6040516001600160a01b0390911681526020016100b7565b61009561011c366004610cd2565b61070d565b61009561012f366004610d15565b610790565b6001546100f6906001600160a01b031681565b600054604051633cd4605360e11b81523360048201526001600160a01b03909116906379a8c0a690602401602060405180830381865afa15801561018f573d6000803e3d6000fd5b505050506040513d601f19601f820116820180604052508101906101b39190610dbf565b1580610228575060005460405163f328ac9f60e01b81523360048201526001600160a01b039091169063f328ac9f90602401602060405180830381865afa158015610202573d6000803e3d6000fd5b505050506040513d601f19601f820116820180604052508101906102269190610dbf565b155b8061023e57506001546001600160a01b03163314155b1561025c57604051636caa20b560e11b815260040160405180910390fd5b600081516001600160401b03811115610277576102776109a8565b6040519080825280602002602001820160405280156102a0578160200160208202803683370190505b509050600082516001600160401b038111156102be576102be6109a8565b6040519080825280602002602001820160405280156102e7578160200160208202803683370190505b509050600083516001600160401b03811115610305576103056109a8565b60405190808252806020026020018201604052801561033857816020015b60608152602001906001900390816103235790505b509050600084516001600160401b03811115610356576103566109a8565b60405190808252806020026020018201604052801561038957816020015b60608152602001906001900390816103745790505b50905060005b85518110156105e75760028682815181106103ac576103ac610ddc565b6020026020010151600001516040516103c59190610df2565b90815260405190819003602001902080546103df90610e0e565b90506000036104115760018582815181106103fc576103fc610ddc565b91151560209283029190910190910152610436565b600085828151811061042557610425610ddc565b911515602092830291909101909101525b604051806060016040528087838151811061045357610453610ddc565b602002602001015160000151815260200187838151811061047657610476610ddc565b602002602001015160200151815260200187838151811061049957610499610ddc565b602002602001015160400151151581525060028783815181106104be576104be610ddc565b6020026020010151600001516040516104d79190610df2565b908152604051908190036020019020815181906104f49082610e97565b50602082015160018201906105099082610e97565b50604091909101516002909101805460ff1916911515919091179055855186908290811061053957610539610ddc565b60200260200101516040015184828151811061055757610557610ddc565b60200260200101901515908115158152505085818151811061057b5761057b610ddc565b60200260200101516020015183828151811061059957610599610ddc565b60200260200101819052508581815181106105b6576105b6610ddc565b6020026020010151600001518282815181106105d4576105d4610ddc565b602090810291909101015260010161038f565b507fed7c6447cb2242ce90af8ac91712221adecca4c5e4451954ef55cbcbe697b8bb8183858760405161061d9493929190610fef565b60405180910390a15050505050565b606060028260405161063e9190610df2565b9081526020016040518091039020600101805461065a90610e0e565b80601f016020809104026020016040519081016040528092919081815260200182805461068690610e0e565b80156106d35780601f106106a8576101008083540402835291602001916106d3565b820191906000526020600020905b8154815290600101906020018083116106b657829003601f168201915b50505050509050919050565b60006002826040516106f19190610df2565b9081526040519081900360200190206002015460ff1692915050565b82336001600160a01b038216146107375760405163adc06ae760e01b815260040160405180910390fd5b6000546001600160a01b0316156107605760405162dc149f60e41b815260040160405180910390fd5b50600080546001600160a01b039384166001600160a01b0319918216179091556001805492909316911617905550565b600054604051633cd4605360e11b81523360048201526001600160a01b03909116906379a8c0a690602401602060405180830381865afa1580156107d8573d6000803e3d6000fd5b505050506040513d601f19601f820116820180604052508101906107fc9190610dbf565b1580610871575060005460405163f328ac9f60e01b81523360048201526001600160a01b039091169063f328ac9f90602401602060405180830381865afa15801561084b573d6000803e3d6000fd5b505050506040513d601f19601f8201168201806040525081019061086f9190610dbf565b155b8061088757506001546001600160a01b03163314155b156108a557604051636caa20b560e11b815260040160405180910390fd5b60005b81518110156109175760028282815181106108c5576108c5610ddc565b60200260200101516040516108da9190610df2565b90815260405190819003602001902060006108f58282610952565b610903600183016000610952565b50600201805460ff191690556001016108a8565b507f7c85b47fe0370a4fe7c869dd363e78378ed7405999673123a52fc62e6f00d31081604051610947919061108e565b60405180910390a150565b50805461095e90610e0e565b6000825580601f1061096e575050565b601f01602090049060005260206000209081019061098c919061098f565b50565b5b808211156109a45760008155600101610990565b5090565b634e487b7160e01b600052604160045260246000fd5b604051606081016001600160401b03811182821017156109e0576109e06109a8565b60405290565b604051601f8201601f191681016001600160401b0381118282101715610a0e57610a0e6109a8565b604052919050565b60006001600160401b03821115610a2f57610a2f6109a8565b5060051b60200190565b6000806001600160401b03841115610a5357610a536109a8565b50601f8301601f1916602001610a68816109e6565b915050828152838383011115610a7d57600080fd5b828260208301376000602084830101529392505050565b600082601f830112610aa557600080fd5b610ab483833560208501610a39565b9392505050565b801515811461098c57600080fd5b600060208284031215610adb57600080fd5b81356001600160401b03811115610af157600080fd5b8201601f81018413610b0257600080fd5b8035610b15610b1082610a16565b6109e6565b8082825260208201915060208360051b850101925086831115610b3757600080fd5b602084015b83811015610c0c5780356001600160401b03811115610b5a57600080fd5b85016060818a03601f19011215610b7057600080fd5b610b786109be565b60208201356001600160401b03811115610b9157600080fd5b610ba08b602083860101610a94565b82525060408201356001600160401b03811115610bbc57600080fd5b82016020810190603f018b13610bd157600080fd5b610be08b823560208401610a39565b60208301525060608201359150610bf682610abb565b6040810191909152835260209283019201610b3c565b509695505050505050565b600060208284031215610c2957600080fd5b81356001600160401b03811115610c3f57600080fd5b610c4b84828501610a94565b949350505050565b60005b83811015610c6e578181015183820152602001610c56565b50506000910152565b60008151808452610c8f816020860160208601610c53565b601f01601f19169290920160200192915050565b602081526000610ab46020830184610c77565b80356001600160a01b0381168114610ccd57600080fd5b919050565b600080600060608486031215610ce757600080fd5b610cf084610cb6565b9250610cfe60208501610cb6565b9150610d0c60408501610cb6565b90509250925092565b600060208284031215610d2757600080fd5b81356001600160401b03811115610d3d57600080fd5b8201601f81018413610d4e57600080fd5b8035610d5c610b1082610a16565b8082825260208201915060208360051b850101925086831115610d7e57600080fd5b602084015b83811015610c0c5780356001600160401b03811115610da157600080fd5b610db089602083890101610a94565b84525060209283019201610d83565b600060208284031215610dd157600080fd5b8151610ab481610abb565b634e487b7160e01b600052603260045260246000fd5b60008251610e04818460208701610c53565b9190910192915050565b600181811c90821680610e2257607f821691505b602082108103610e4257634e487b7160e01b600052602260045260246000fd5b50919050565b601f821115610e9257806000526020600020601f840160051c81016020851015610e6f5750805b601f840160051c820191505b81811015610e8f5760008155600101610e7b565b50505b505050565b81516001600160401b03811115610eb057610eb06109a8565b610ec481610ebe8454610e0e565b84610e48565b6020601f821160018114610ef85760008315610ee05750848201515b600019600385901b1c1916600184901b178455610e8f565b600084815260208120601f198516915b82811015610f285787850151825560209485019460019092019101610f08565b5084821015610f465786840151600019600387901b60f8161c191681555b50505050600190811b01905550565b600082825180855260208501945060208160051b8301016020850160005b83811015610fa557601f19858403018852610f8f838351610c77565b6020988901989093509190910190600101610f73565b50909695505050505050565b600081518084526020840193506020830160005b82811015610fe55781511515865260209586019590910190600101610fc5565b5093949350505050565b6080815260006110026080830187610f55565b828103602084015280865180835260208301915060208160051b8401016020890160005b8381101561105857601f19868403018552611042838351610c77565b6020958601959093509190910190600101611026565b5050858103604087015261106c8189610fb1565b935050505082810360608401526110838185610fb1565b979650505050505050565b602081526000610ab46020830184610f5556fea2646970667358221220e0206817c58ef69bbbd1f2d6afb28ca1f8246b130360e65b9cb3f7a6191e6ae964736f6c634300081a0033","linkReferences":{}},"methodIdentifiers":{"addOrModifyConditionsBatch((bytes,string,bool)[])":"393cf3a2","getConditionIsEncrypted(bytes)":"5e2ec359","getConditionMetadata(bytes)":"42af388b","initialize(address,address,address)":"c0c53b8b","nibbleAccessControls()":"9c081d2c","nibbleStorage()":"f8d0e296","removeConditionsBatch(bytes[])":"d155df60"},"id":28}