{"abi":[{"type":"function","name":"addOrModifyConnectorsBatch","inputs":[{"name":"connectors","type":"tuple[]","internalType":"struct NibbleLibrary.Connector[]","components":[{"name":"id","type":"bytes","internalType":"bytes"},{"name":"metadata","type":"string","internalType":"string"},{"name":"encrypted","type":"bool","internalType":"bool"},{"name":"onChain","type":"bool","internalType":"bool"}]}],"outputs":[],"stateMutability":"nonpayable"},{"type":"function","name":"getConnectorIsEncrypted","inputs":[{"name":"connectorId","type":"bytes","internalType":"bytes"}],"outputs":[{"name":"","type":"bool","internalType":"bool"}],"stateMutability":"view"},{"type":"function","name":"getConnectorMetadata","inputs":[{"name":"connectorId","type":"bytes","internalType":"bytes"}],"outputs":[{"name":"","type":"string","internalType":"string"}],"stateMutability":"view"},{"type":"function","name":"getConnectorOnChain","inputs":[{"name":"connectorId","type":"bytes","internalType":"bytes"}],"outputs":[{"name":"","type":"bool","internalType":"bool"}],"stateMutability":"view"},{"type":"function","name":"initialize","inputs":[{"name":"nibbleFactoryAddress","type":"address","internalType":"address"},{"name":"nibbleAccessControlsAddress","type":"address","internalType":"address"},{"name":"nibbleStorageAddress","type":"address","internalType":"address"}],"outputs":[],"stateMutability":"nonpayable"},{"type":"function","name":"nibbleAccessControls","inputs":[],"outputs":[{"name":"","type":"address","internalType":"contract NibbleAccessControls"}],"stateMutability":"view"},{"type":"function","name":"nibbleStorage","inputs":[],"outputs":[{"name":"","type":"address","internalType":"address"}],"stateMutability":"view"},{"type":"function","name":"removeConnectorsBatch","inputs":[{"name":"connectorIds","type":"bytes[]","internalType":"bytes[]"}],"outputs":[],"stateMutability":"nonpayable"},{"type":"event","name":"ConnectorsModified","inputs":[{"name":"connectorId","type":"bytes[]","indexed":false,"internalType":"bytes[]"},{"name":"metadata","type":"string[]","indexed":false,"internalType":"string[]"},{"name":"encrypted","type":"bool[]","indexed":false,"internalType":"bool[]"},{"name":"onChain","type":"bool[]","indexed":false,"internalType":"bool[]"},{"name":"newConnector","type":"bool[]","indexed":false,"internalType":"bool[]"}],"anonymous":false},{"type":"event","name":"ConnectorsRemoved","inputs":[{"name":"connectorId","type":"bytes[]","indexed":false,"internalType":"bytes[]"}],"anonymous":false},{"type":"event","name":"Initialized","inputs":[{"name":"version","type":"uint64","indexed":false,"internalType":"uint64"}],"anonymous":false},{"type":"error","name":"AlreadyInitialized","inputs":[]},{"type":"error","name":"InvalidInitialization","inputs":[]},{"type":"error","name":"InvalidInitializer","inputs":[]},{"type":"error","name":"InvalidRole","inputs":[]},{"type":"error","name":"NotInitializing","inputs":[]}],"bytecode":{"object":"0x6080604052348015600f57600080fd5b506111da8061001f6000396000f3fe608060405234801561001057600080fd5b50600436106100885760003560e01c8063c37f085a1161005b578063c37f085a14610109578063e8b2fd1f1461012c578063f8d0e2961461013f578063faa955221461015257600080fd5b80631c5ca3b61461008d57806391614ea7146100a25780639c081d2c146100cb578063c0c53b8b146100f6575b600080fd5b6100a061009b366004610bb1565b610165565b005b6100b56100b0366004610d0a565b6106cf565b6040516100c29190610d96565b60405180910390f35b6000546100de906001600160a01b031681565b6040516001600160a01b0390911681526020016100c2565b6100a0610104366004610dc0565b610782565b61011c610117366004610d0a565b610805565b60405190151581526020016100c2565b6100a061013a366004610e03565b610839565b6001546100de906001600160a01b031681565b61011c610160366004610d0a565b6109fc565b600054604051633cd4605360e11b81523360048201526001600160a01b03909116906379a8c0a690602401602060405180830381865afa1580156101ad573d6000803e3d6000fd5b505050506040513d601f19601f820116820180604052508101906101d19190610ead565b1580610246575060005460405163f328ac9f60e01b81523360048201526001600160a01b039091169063f328ac9f90602401602060405180830381865afa158015610220573d6000803e3d6000fd5b505050506040513d601f19601f820116820180604052508101906102449190610ead565b155b8061025c57506001546001600160a01b03163314155b1561027a57604051636caa20b560e11b815260040160405180910390fd5b600081516001600160401b0381111561029557610295610a80565b6040519080825280602002602001820160405280156102be578160200160208202803683370190505b509050600082516001600160401b038111156102dc576102dc610a80565b604051908082528060200260200182016040528015610305578160200160208202803683370190505b509050600083516001600160401b0381111561032357610323610a80565b60405190808252806020026020018201604052801561034c578160200160208202803683370190505b509050600084516001600160401b0381111561036a5761036a610a80565b60405190808252806020026020018201604052801561039d57816020015b60608152602001906001900390816103885790505b509050600085516001600160401b038111156103bb576103bb610a80565b6040519080825280602002602001820160405280156103ee57816020015b60608152602001906001900390816103d95790505b50905060005b865181101561068757600287828151811061041157610411610eca565b60200260200101516000015160405161042a9190610ee0565b908152604051908190036020019020805461044490610efc565b905060000361047657600186828151811061046157610461610eca565b9115156020928302919091019091015261049b565b600086828151811061048a5761048a610eca565b911515602092830291909101909101525b60405180608001604052808883815181106104b8576104b8610eca565b60200260200101516000015181526020018883815181106104db576104db610eca565b60200260200101516020015181526020018883815181106104fe576104fe610eca565b6020026020010151604001511515815260200188838151811061052357610523610eca565b6020026020010151606001511515815250600288838151811061054857610548610eca565b6020026020010151600001516040516105619190610ee0565b9081526040519081900360200190208151819061057e9082610f85565b50602082015160018201906105939082610f85565b5060408201516002909101805460609093015115156101000261ff00199215159290921661ffff199093169290921717905586518790829081106105d9576105d9610eca565b6020026020010151604001518582815181106105f7576105f7610eca565b60200260200101901515908115158152505086818151811061061b5761061b610eca565b60200260200101516020015183828151811061063957610639610eca565b602002602001018190525086818151811061065657610656610eca565b60200260200101516000015182828151811061067457610674610eca565b60209081029190910101526001016103f4565b507f36d9c9db0d43316449c2e93a9560bb7769fc967ed709efe3727d0e4506b28e0d81838686896040516106bf9594939291906110dd565b60405180910390a1505050505050565b60606002826040516106e19190610ee0565b908152602001604051809103902060010180546106fd90610efc565b80601f016020809104026020016040519081016040528092919081815260200182805461072990610efc565b80156107765780601f1061074b57610100808354040283529160200191610776565b820191906000526020600020905b81548152906001019060200180831161075957829003601f168201915b50505050509050919050565b82336001600160a01b038216146107ac5760405163adc06ae760e01b815260040160405180910390fd5b6000546001600160a01b0316156107d55760405162dc149f60e41b815260040160405180910390fd5b50600080546001600160a01b039384166001600160a01b0319918216179091556001805492909316911617905550565b60006002826040516108179190610ee0565b9081526040519081900360200190206002015460ff6101009091041692915050565b600054604051633cd4605360e11b81523360048201526001600160a01b03909116906379a8c0a690602401602060405180830381865afa158015610881573d6000803e3d6000fd5b505050506040513d601f19601f820116820180604052508101906108a59190610ead565b158061091a575060005460405163f328ac9f60e01b81523360048201526001600160a01b039091169063f328ac9f90602401602060405180830381865afa1580156108f4573d6000803e3d6000fd5b505050506040513d601f19601f820116820180604052508101906109189190610ead565b155b8061093057506001546001600160a01b03163314155b1561094e57604051636caa20b560e11b815260040160405180910390fd5b60005b81518110156109c157600282828151811061096e5761096e610eca565b60200260200101516040516109839190610ee0565b908152604051908190036020019020600061099e8282610a2a565b6109ac600183016000610a2a565b50600201805461ffff19169055600101610951565b507f7939972f4c56157743bea34cde4b15dd863918385310e927f5f59abc1b77d688816040516109f19190611191565b60405180910390a150565b6000600282604051610a0e9190610ee0565b9081526040519081900360200190206002015460ff1692915050565b508054610a3690610efc565b6000825580601f10610a46575050565b601f016020900490600052602060002090810190610a649190610a67565b50565b5b80821115610a7c5760008155600101610a68565b5090565b634e487b7160e01b600052604160045260246000fd5b604051608081016001600160401b0381118282101715610ab857610ab8610a80565b60405290565b604051601f8201601f191681016001600160401b0381118282101715610ae657610ae6610a80565b604052919050565b60006001600160401b03821115610b0757610b07610a80565b5060051b60200190565b6000806001600160401b03841115610b2b57610b2b610a80565b50601f8301601f1916602001610b4081610abe565b915050828152838383011115610b5557600080fd5b828260208301376000602084830101529392505050565b600082601f830112610b7d57600080fd5b610b8c83833560208501610b11565b9392505050565b8015158114610a6457600080fd5b8035610bac81610b93565b919050565b600060208284031215610bc357600080fd5b81356001600160401b03811115610bd957600080fd5b8201601f81018413610bea57600080fd5b8035610bfd610bf882610aee565b610abe565b8082825260208201915060208360051b850101925086831115610c1f57600080fd5b602084015b83811015610cff5780356001600160401b03811115610c4257600080fd5b85016080818a03601f19011215610c5857600080fd5b610c60610a96565b60208201356001600160401b03811115610c7957600080fd5b610c888b602083860101610b6c565b82525060408201356001600160401b03811115610ca457600080fd5b82016020810190603f018b13610cb957600080fd5b610cc88b823560208401610b11565b602083015250610cda60608301610ba1565b6040820152610ceb60808301610ba1565b606082015284525060209283019201610c24565b509695505050505050565b600060208284031215610d1c57600080fd5b81356001600160401b03811115610d3257600080fd5b610d3e84828501610b6c565b949350505050565b60005b83811015610d61578181015183820152602001610d49565b50506000910152565b60008151808452610d82816020860160208601610d46565b601f01601f19169290920160200192915050565b602081526000610b8c6020830184610d6a565b80356001600160a01b0381168114610bac57600080fd5b600080600060608486031215610dd557600080fd5b610dde84610da9565b9250610dec60208501610da9565b9150610dfa60408501610da9565b90509250925092565b600060208284031215610e1557600080fd5b81356001600160401b03811115610e2b57600080fd5b8201601f81018413610e3c57600080fd5b8035610e4a610bf882610aee565b8082825260208201915060208360051b850101925086831115610e6c57600080fd5b602084015b83811015610cff5780356001600160401b03811115610e8f57600080fd5b610e9e89602083890101610b6c565b84525060209283019201610e71565b600060208284031215610ebf57600080fd5b8151610b8c81610b93565b634e487b7160e01b600052603260045260246000fd5b60008251610ef2818460208701610d46565b9190910192915050565b600181811c90821680610f1057607f821691505b602082108103610f3057634e487b7160e01b600052602260045260246000fd5b50919050565b601f821115610f8057806000526020600020601f840160051c81016020851015610f5d5750805b601f840160051c820191505b81811015610f7d5760008155600101610f69565b50505b505050565b81516001600160401b03811115610f9e57610f9e610a80565b610fb281610fac8454610efc565b84610f36565b6020601f821160018114610fe65760008315610fce5750848201515b600019600385901b1c1916600184901b178455610f7d565b600084815260208120601f198516915b828110156110165787850151825560209485019460019092019101610ff6565b50848210156110345786840151600019600387901b60f8161c191681555b50505050600190811b01905550565b600082825180855260208501945060208160051b8301016020850160005b8381101561109357601f1985840301885261107d838351610d6a565b6020988901989093509190910190600101611061565b50909695505050505050565b600081518084526020840193506020830160005b828110156110d357815115158652602095860195909101906001016110b3565b5093949350505050565b60a0815260006110f060a0830188611043565b828103602084015280875180835260208301915060208160051b84010160208a0160005b8381101561114657601f19868403018552611130838351610d6a565b6020958601959093509190910190600101611114565b5050858103604087015261115a818a61109f565b93505050508281036060840152611171818661109f565b90508281036080840152611185818561109f565b98975050505050505050565b602081526000610b8c602083018461104356fea26469706673582212209b1c4596013776607abe7e1629e0fea30833ba3ac1f02f2abb4db91226de563964736f6c634300081a0033","linkReferences":{}},"methodIdentifiers":{"addOrModifyConnectorsBatch((bytes,string,bool,bool)[])":"1c5ca3b6","getConnectorIsEncrypted(bytes)":"faa95522","getConnectorMetadata(bytes)":"91614ea7","getConnectorOnChain(bytes)":"c37f085a","initialize(address,address,address)":"c0c53b8b","nibbleAccessControls()":"9c081d2c","nibbleStorage()":"f8d0e296","removeConnectorsBatch(bytes[])":"e8b2fd1f"},"id":29}