{"abi":[{"type":"function","name":"addOrModifyConnectorsBatch","inputs":[{"name":"connectors","type":"tuple[]","internalType":"struct NibbleLibrary.Connector[]","components":[{"name":"id","type":"bytes","internalType":"bytes"},{"name":"metadata","type":"string","internalType":"string"},{"name":"encrypted","type":"bool","internalType":"bool"},{"name":"onChain","type":"bool","internalType":"bool"}]}],"outputs":[],"stateMutability":"nonpayable"},{"type":"function","name":"getConnectorIsEncrypted","inputs":[{"name":"connectorId","type":"bytes","internalType":"bytes"}],"outputs":[{"name":"","type":"bool","internalType":"bool"}],"stateMutability":"view"},{"type":"function","name":"getConnectorMetadata","inputs":[{"name":"connectorId","type":"bytes","internalType":"bytes"}],"outputs":[{"name":"","type":"string","internalType":"string"}],"stateMutability":"view"},{"type":"function","name":"getConnectorOnChain","inputs":[{"name":"connectorId","type":"bytes","internalType":"bytes"}],"outputs":[{"name":"","type":"bool","internalType":"bool"}],"stateMutability":"view"},{"type":"function","name":"initialize","inputs":[{"name":"nibbleFactoryAddress","type":"address","internalType":"address"},{"name":"nibbleAccessControlsAddress","type":"address","internalType":"address"},{"name":"nibbleStorageAddress","type":"address","internalType":"address"}],"outputs":[],"stateMutability":"nonpayable"},{"type":"function","name":"nibbleAccessControls","inputs":[],"outputs":[{"name":"","type":"address","internalType":"contract NibbleAccessControls"}],"stateMutability":"view"},{"type":"function","name":"nibbleStorage","inputs":[],"outputs":[{"name":"","type":"address","internalType":"address"}],"stateMutability":"view"},{"type":"function","name":"removeConnectorsBatch","inputs":[{"name":"connectorIds","type":"bytes[]","internalType":"bytes[]"}],"outputs":[],"stateMutability":"nonpayable"},{"type":"event","name":"ConnectorsModified","inputs":[{"name":"connectorId","type":"bytes[]","indexed":false,"internalType":"bytes[]"},{"name":"metadata","type":"string[]","indexed":false,"internalType":"string[]"},{"name":"encrypted","type":"bool[]","indexed":false,"internalType":"bool[]"},{"name":"onChain","type":"bool[]","indexed":false,"internalType":"bool[]"},{"name":"newConnector","type":"bool[]","indexed":false,"internalType":"bool[]"}],"anonymous":false},{"type":"event","name":"ConnectorsRemoved","inputs":[{"name":"connectorId","type":"bytes[]","indexed":false,"internalType":"bytes[]"}],"anonymous":false},{"type":"event","name":"Initialized","inputs":[{"name":"version","type":"uint64","indexed":false,"internalType":"uint64"}],"anonymous":false},{"type":"error","name":"InvalidInitialization","inputs":[]},{"type":"error","name":"InvalidInitializer","inputs":[]},{"type":"error","name":"InvalidRole","inputs":[]},{"type":"error","name":"NotInitializing","inputs":[]}],"bytecode":{"object":"0x6080604052348015600f57600080fd5b506112098061001f6000396000f3fe608060405234801561001057600080fd5b50600436106100885760003560e01c8063c37f085a1161005b578063c37f085a14610109578063e8b2fd1f1461012c578063f8d0e2961461013f578063faa955221461015257600080fd5b80631c5ca3b61461008d57806391614ea7146100a25780639c081d2c146100cb578063c0c53b8b146100f6575b600080fd5b6100a061009b366004610be0565b610165565b005b6100b56100b0366004610d39565b6106cf565b6040516100c29190610dc5565b60405180910390f35b6000546100de906001600160a01b031681565b6040516001600160a01b0390911681526020016100c2565b6100a0610104366004610def565b610782565b61011c610117366004610d39565b6107e4565b60405190151581526020016100c2565b6100a061013a366004610e32565b610818565b6001546100de906001600160a01b031681565b61011c610160366004610d39565b6109db565b600054604051633cd4605360e11b81523360048201526001600160a01b03909116906379a8c0a690602401602060405180830381865afa1580156101ad573d6000803e3d6000fd5b505050506040513d601f19601f820116820180604052508101906101d19190610edc565b1580610246575060005460405163f328ac9f60e01b81523360048201526001600160a01b039091169063f328ac9f90602401602060405180830381865afa158015610220573d6000803e3d6000fd5b505050506040513d601f19601f820116820180604052508101906102449190610edc565b155b8061025c57506001546001600160a01b03163314155b1561027a57604051636caa20b560e11b815260040160405180910390fd5b600081516001600160401b0381111561029557610295610aaf565b6040519080825280602002602001820160405280156102be578160200160208202803683370190505b509050600082516001600160401b038111156102dc576102dc610aaf565b604051908082528060200260200182016040528015610305578160200160208202803683370190505b509050600083516001600160401b0381111561032357610323610aaf565b60405190808252806020026020018201604052801561034c578160200160208202803683370190505b509050600084516001600160401b0381111561036a5761036a610aaf565b60405190808252806020026020018201604052801561039d57816020015b60608152602001906001900390816103885790505b509050600085516001600160401b038111156103bb576103bb610aaf565b6040519080825280602002602001820160405280156103ee57816020015b60608152602001906001900390816103d95790505b50905060005b865181101561068757600287828151811061041157610411610ef9565b60200260200101516000015160405161042a9190610f0f565b908152604051908190036020019020805461044490610f2b565b905060000361047657600186828151811061046157610461610ef9565b9115156020928302919091019091015261049b565b600086828151811061048a5761048a610ef9565b911515602092830291909101909101525b60405180608001604052808883815181106104b8576104b8610ef9565b60200260200101516000015181526020018883815181106104db576104db610ef9565b60200260200101516020015181526020018883815181106104fe576104fe610ef9565b6020026020010151604001511515815260200188838151811061052357610523610ef9565b6020026020010151606001511515815250600288838151811061054857610548610ef9565b6020026020010151600001516040516105619190610f0f565b9081526040519081900360200190208151819061057e9082610fb4565b50602082015160018201906105939082610fb4565b5060408201516002909101805460609093015115156101000261ff00199215159290921661ffff199093169290921717905586518790829081106105d9576105d9610ef9565b6020026020010151604001518582815181106105f7576105f7610ef9565b60200260200101901515908115158152505086818151811061061b5761061b610ef9565b60200260200101516020015183828151811061063957610639610ef9565b602002602001018190525086818151811061065657610656610ef9565b60200260200101516000015182828151811061067457610674610ef9565b60209081029190910101526001016103f4565b507f36d9c9db0d43316449c2e93a9560bb7769fc967ed709efe3727d0e4506b28e0d81838686896040516106bf95949392919061110c565b60405180910390a1505050505050565b60606002826040516106e19190610f0f565b908152602001604051809103902060010180546106fd90610f2b565b80601f016020809104026020016040519081016040528092919081815260200182805461072990610f2b565b80156107765780601f1061074b57610100808354040283529160200191610776565b820191906000526020600020905b81548152906001019060200180831161075957829003601f168201915b50505050509050919050565b82336001600160a01b038216146107ac5760405163adc06ae760e01b815260040160405180910390fd5b6107b4610a09565b50600080546001600160a01b039384166001600160a01b0319918216179091556001805492909316911617905550565b60006002826040516107f69190610f0f565b9081526040519081900360200190206002015460ff6101009091041692915050565b600054604051633cd4605360e11b81523360048201526001600160a01b03909116906379a8c0a690602401602060405180830381865afa158015610860573d6000803e3d6000fd5b505050506040513d601f19601f820116820180604052508101906108849190610edc565b15806108f9575060005460405163f328ac9f60e01b81523360048201526001600160a01b039091169063f328ac9f90602401602060405180830381865afa1580156108d3573d6000803e3d6000fd5b505050506040513d601f19601f820116820180604052508101906108f79190610edc565b155b8061090f57506001546001600160a01b03163314155b1561092d57604051636caa20b560e11b815260040160405180910390fd5b60005b81518110156109a057600282828151811061094d5761094d610ef9565b60200260200101516040516109629190610f0f565b908152604051908190036020019020600061097d8282610a59565b61098b600183016000610a59565b50600201805461ffff19169055600101610930565b507f7939972f4c56157743bea34cde4b15dd863918385310e927f5f59abc1b77d688816040516109d091906111c0565b60405180910390a150565b60006002826040516109ed9190610f0f565b9081526040519081900360200190206002015460ff1692915050565b7ff0c57e16840df040f15088dc2f81fe391c3923bec73e23a9662efc9c229c6a005468010000000000000000900460ff16610a5757604051631afcd79f60e31b815260040160405180910390fd5b565b508054610a6590610f2b565b6000825580601f10610a75575050565b601f016020900490600052602060002090810190610a939190610a96565b50565b5b80821115610aab5760008155600101610a97565b5090565b634e487b7160e01b600052604160045260246000fd5b604051608081016001600160401b0381118282101715610ae757610ae7610aaf565b60405290565b604051601f8201601f191681016001600160401b0381118282101715610b1557610b15610aaf565b604052919050565b60006001600160401b03821115610b3657610b36610aaf565b5060051b60200190565b6000806001600160401b03841115610b5a57610b5a610aaf565b50601f8301601f1916602001610b6f81610aed565b915050828152838383011115610b8457600080fd5b828260208301376000602084830101529392505050565b600082601f830112610bac57600080fd5b610bbb83833560208501610b40565b9392505050565b8015158114610a9357600080fd5b8035610bdb81610bc2565b919050565b600060208284031215610bf257600080fd5b81356001600160401b03811115610c0857600080fd5b8201601f81018413610c1957600080fd5b8035610c2c610c2782610b1d565b610aed565b8082825260208201915060208360051b850101925086831115610c4e57600080fd5b602084015b83811015610d2e5780356001600160401b03811115610c7157600080fd5b85016080818a03601f19011215610c8757600080fd5b610c8f610ac5565b60208201356001600160401b03811115610ca857600080fd5b610cb78b602083860101610b9b565b82525060408201356001600160401b03811115610cd357600080fd5b82016020810190603f018b13610ce857600080fd5b610cf78b823560208401610b40565b602083015250610d0960608301610bd0565b6040820152610d1a60808301610bd0565b606082015284525060209283019201610c53565b509695505050505050565b600060208284031215610d4b57600080fd5b81356001600160401b03811115610d6157600080fd5b610d6d84828501610b9b565b949350505050565b60005b83811015610d90578181015183820152602001610d78565b50506000910152565b60008151808452610db1816020860160208601610d75565b601f01601f19169290920160200192915050565b602081526000610bbb6020830184610d99565b80356001600160a01b0381168114610bdb57600080fd5b600080600060608486031215610e0457600080fd5b610e0d84610dd8565b9250610e1b60208501610dd8565b9150610e2960408501610dd8565b90509250925092565b600060208284031215610e4457600080fd5b81356001600160401b03811115610e5a57600080fd5b8201601f81018413610e6b57600080fd5b8035610e79610c2782610b1d565b8082825260208201915060208360051b850101925086831115610e9b57600080fd5b602084015b83811015610d2e5780356001600160401b03811115610ebe57600080fd5b610ecd89602083890101610b9b565b84525060209283019201610ea0565b600060208284031215610eee57600080fd5b8151610bbb81610bc2565b634e487b7160e01b600052603260045260246000fd5b60008251610f21818460208701610d75565b9190910192915050565b600181811c90821680610f3f57607f821691505b602082108103610f5f57634e487b7160e01b600052602260045260246000fd5b50919050565b601f821115610faf57806000526020600020601f840160051c81016020851015610f8c5750805b601f840160051c820191505b81811015610fac5760008155600101610f98565b50505b505050565b81516001600160401b03811115610fcd57610fcd610aaf565b610fe181610fdb8454610f2b565b84610f65565b6020601f8211600181146110155760008315610ffd5750848201515b600019600385901b1c1916600184901b178455610fac565b600084815260208120601f198516915b828110156110455787850151825560209485019460019092019101611025565b50848210156110635786840151600019600387901b60f8161c191681555b50505050600190811b01905550565b600082825180855260208501945060208160051b8301016020850160005b838110156110c257601f198584030188526110ac838351610d99565b6020988901989093509190910190600101611090565b50909695505050505050565b600081518084526020840193506020830160005b8281101561110257815115158652602095860195909101906001016110e2565b5093949350505050565b60a08152600061111f60a0830188611072565b828103602084015280875180835260208301915060208160051b84010160208a0160005b8381101561117557601f1986840301855261115f838351610d99565b6020958601959093509190910190600101611143565b50508581036040870152611189818a6110ce565b935050505082810360608401526111a081866110ce565b905082810360808401526111b481856110ce565b98975050505050505050565b602081526000610bbb602083018461107256fea26469706673582212202c203203fba6b21374348af83ab2a7e20fa30c20dce25727c63e18afaa51262564736f6c634300081a0033","linkReferences":{}},"methodIdentifiers":{"addOrModifyConnectorsBatch((bytes,string,bool,bool)[])":"1c5ca3b6","getConnectorIsEncrypted(bytes)":"faa95522","getConnectorMetadata(bytes)":"91614ea7","getConnectorOnChain(bytes)":"c37f085a","initialize(address,address,address)":"c0c53b8b","nibbleAccessControls()":"9c081d2c","nibbleStorage()":"f8d0e296","removeConnectorsBatch(bytes[])":"e8b2fd1f"},"id":6}