{"abi":[{"type":"constructor","inputs":[],"stateMutability":"nonpayable"},{"type":"function","name":"accessControls","inputs":[],"outputs":[{"name":"","type":"address","internalType":"contract AgentMemeAccessControls"}],"stateMutability":"view"},{"type":"function","name":"allowance","inputs":[{"name":"owner","type":"address","internalType":"address"},{"name":"spender","type":"address","internalType":"address"}],"outputs":[{"name":"","type":"uint256","internalType":"uint256"}],"stateMutability":"view"},{"type":"function","name":"approve","inputs":[{"name":"spender","type":"address","internalType":"address"},{"name":"value","type":"uint256","internalType":"uint256"}],"outputs":[{"name":"","type":"bool","internalType":"bool"}],"stateMutability":"nonpayable"},{"type":"function","name":"balanceOf","inputs":[{"name":"account","type":"address","internalType":"address"}],"outputs":[{"name":"","type":"uint256","internalType":"uint256"}],"stateMutability":"view"},{"type":"function","name":"decimals","inputs":[],"outputs":[{"name":"","type":"uint8","internalType":"uint8"}],"stateMutability":"view"},{"type":"function","name":"initialize","inputs":[{"name":"tokenName","type":"string","internalType":"string"},{"name":"tokenSymbol","type":"string","internalType":"string"},{"name":"accessControlsAddress","type":"address","internalType":"address"},{"name":"supply","type":"uint256","internalType":"uint256"}],"outputs":[],"stateMutability":"nonpayable"},{"type":"function","name":"initialized","inputs":[],"outputs":[{"name":"","type":"bool","internalType":"bool"}],"stateMutability":"view"},{"type":"function","name":"mintandDistributeToken","inputs":[{"name":"to","type":"address","internalType":"address"},{"name":"amount","type":"uint256","internalType":"uint256"}],"outputs":[],"stateMutability":"nonpayable"},{"type":"function","name":"name","inputs":[],"outputs":[{"name":"","type":"string","internalType":"string"}],"stateMutability":"view"},{"type":"function","name":"symbol","inputs":[],"outputs":[{"name":"","type":"string","internalType":"string"}],"stateMutability":"view"},{"type":"function","name":"tokenSupply","inputs":[],"outputs":[{"name":"","type":"uint256","internalType":"uint256"}],"stateMutability":"view"},{"type":"function","name":"totalMinted","inputs":[],"outputs":[{"name":"","type":"uint256","internalType":"uint256"}],"stateMutability":"view"},{"type":"function","name":"totalSupply","inputs":[],"outputs":[{"name":"","type":"uint256","internalType":"uint256"}],"stateMutability":"view"},{"type":"function","name":"transfer","inputs":[{"name":"to","type":"address","internalType":"address"},{"name":"value","type":"uint256","internalType":"uint256"}],"outputs":[{"name":"","type":"bool","internalType":"bool"}],"stateMutability":"nonpayable"},{"type":"function","name":"transferFrom","inputs":[{"name":"from","type":"address","internalType":"address"},{"name":"to","type":"address","internalType":"address"},{"name":"value","type":"uint256","internalType":"uint256"}],"outputs":[{"name":"","type":"bool","internalType":"bool"}],"stateMutability":"nonpayable"},{"type":"event","name":"Approval","inputs":[{"name":"owner","type":"address","indexed":true,"internalType":"address"},{"name":"spender","type":"address","indexed":true,"internalType":"address"},{"name":"value","type":"uint256","indexed":false,"internalType":"uint256"}],"anonymous":false},{"type":"event","name":"Transfer","inputs":[{"name":"from","type":"address","indexed":true,"internalType":"address"},{"name":"to","type":"address","indexed":true,"internalType":"address"},{"name":"value","type":"uint256","indexed":false,"internalType":"uint256"}],"anonymous":false},{"type":"error","name":"AlreadyInitialized","inputs":[]},{"type":"error","name":"ERC20InsufficientAllowance","inputs":[{"name":"spender","type":"address","internalType":"address"},{"name":"allowance","type":"uint256","internalType":"uint256"},{"name":"needed","type":"uint256","internalType":"uint256"}]},{"type":"error","name":"ERC20InsufficientBalance","inputs":[{"name":"sender","type":"address","internalType":"address"},{"name":"balance","type":"uint256","internalType":"uint256"},{"name":"needed","type":"uint256","internalType":"uint256"}]},{"type":"error","name":"ERC20InvalidApprover","inputs":[{"name":"approver","type":"address","internalType":"address"}]},{"type":"error","name":"ERC20InvalidReceiver","inputs":[{"name":"receiver","type":"address","internalType":"address"}]},{"type":"error","name":"ERC20InvalidSender","inputs":[{"name":"sender","type":"address","internalType":"address"}]},{"type":"error","name":"ERC20InvalidSpender","inputs":[{"name":"spender","type":"address","internalType":"address"}]},{"type":"error","name":"ExceedsTotalSupply","inputs":[]},{"type":"error","name":"InvalidAgentRole","inputs":[]}],"bytecode":{"object":"0x608060405234801561001057600080fd5b5060408051602080820183526000808352835191820190935291825290600361003983826100ed565b50600461004682826100ed565b5050506101ab565b634e487b7160e01b600052604160045260246000fd5b600181811c9082168061007857607f821691505b60208210810361009857634e487b7160e01b600052602260045260246000fd5b50919050565b601f8211156100e857806000526020600020601f840160051c810160208510156100c55750805b601f840160051c820191505b818110156100e557600081556001016100d1565b50505b505050565b81516001600160401b038111156101065761010661004e565b61011a816101148454610064565b8461009e565b6020601f82116001811461014e57600083156101365750848201515b600019600385901b1c1916600184901b1784556100e5565b600084815260208120601f198516915b8281101561017e578785015182556020948501946001909201910161015e565b508482101561019c5786840151600019600387901b60f8161c191681555b50505050600190811b01905550565b610c90806101ba6000396000f3fe608060405234801561001057600080fd5b50600436106100f55760003560e01c806370a0823111610097578063a2309ff811610066578063a2309ff8146101f6578063a9059cbb146101ff578063dd62ed3e14610212578063f542033f1461024b57600080fd5b806370a0823114610191578063748365ef146101ba5780637824407f146101e557806395d89b41146101ee57600080fd5b806316c89e0b116100d357806316c89e0b1461014857806318160ddd1461015d57806323b872dd1461016f578063313ce5671461018257600080fd5b806306fdde03146100fa578063095ea7b314610118578063158ef93e1461013b575b600080fd5b61010261025e565b60405161010f919061085b565b60405180910390f35b61012b6101263660046108c1565b6102f0565b604051901515815260200161010f565b600a5461012b9060ff1681565b61015b6101563660046108c1565b61030a565b005b6002545b60405190815260200161010f565b61012b61017d3660046108ed565b61047f565b6040516012815260200161010f565b61016161019f36600461092e565b6001600160a01b031660009081526020819052604090205490565b6006546101cd906001600160a01b031681565b6040516001600160a01b03909116815260200161010f565b61016160055481565b6101026104a3565b61016160075481565b61012b61020d3660046108c1565b6104b2565b610161610220366004610952565b6001600160a01b03918216600090815260016020908152604080832093909416825291909152205490565b61015b610259366004610a30565b6104c0565b60606008805461026d90610ab3565b80601f016020809104026020016040519081016040528092919081815260200182805461029990610ab3565b80156102e65780601f106102bb576101008083540402835291602001916102e6565b820191906000526020600020905b8154815290600101906020018083116102c957829003601f168201915b5050505050905090565b6000336102fe818585610532565b60019150505b92915050565b600660009054906101000a90046001600160a01b03166001600160a01b0316636e9960c36040518163ffffffff1660e01b8152600401602060405180830381865afa15801561035d573d6000803e3d6000fd5b505050506040513d601f19601f820116820180604052508101906103819190610aed565b6001600160a01b0316336001600160a01b03161415801561040b575060065460405163a59ce4df60e01b81523360048201526001600160a01b039091169063a59ce4df90602401602060405180830381865afa1580156103e5573d6000803e3d6000fd5b505050506040513d601f19601f820116820180604052508101906104099190610b0a565b155b1561042957604051632b1759b360e21b815260040160405180910390fd5b6005548160075461043a9190610b2c565b11156104595760405163177e3fc360e01b815260040160405180910390fd5b806007600082825461046b9190610b2c565b9091555061047b90508282610544565b5050565b60003361048d85828561057f565b6104988585856105fd565b506001949350505050565b60606009805461026d90610ab3565b6000336102fe8185856105fd565b600a5460ff16156104e35760405162dc149f60e41b815260040160405180910390fd5b60086104ef8582610b9b565b5060096104fc8482610b9b565b50600555600a805460ff19166001179055600680546001600160a01b039092166001600160a01b03199092169190911790555050565b61053f838383600161065c565b505050565b6001600160a01b0382166105735760405163ec442f0560e01b8152600060048201526024015b60405180910390fd5b61047b60008383610731565b6001600160a01b0383811660009081526001602090815260408083209386168352929052205460001981146105f757818110156105e857604051637dc7a0d960e11b81526001600160a01b0384166004820152602481018290526044810183905260640161056a565b6105f78484848403600061065c565b50505050565b6001600160a01b03831661062757604051634b637e8f60e11b81526000600482015260240161056a565b6001600160a01b0382166106515760405163ec442f0560e01b81526000600482015260240161056a565b61053f838383610731565b6001600160a01b0384166106865760405163e602df0560e01b81526000600482015260240161056a565b6001600160a01b0383166106b057604051634a1406b160e11b81526000600482015260240161056a565b6001600160a01b03808516600090815260016020908152604080832093871683529290522082905580156105f757826001600160a01b0316846001600160a01b03167f8c5be1e5ebec7d5bd14f71427d1e84f3dd0314c0f7b2291e5b200ac8c7c3b9258460405161072391815260200190565b60405180910390a350505050565b6001600160a01b03831661075c5780600260008282546107519190610b2c565b909155506107ce9050565b6001600160a01b038316600090815260208190526040902054818110156107af5760405163391434e360e21b81526001600160a01b0385166004820152602481018290526044810183905260640161056a565b6001600160a01b03841660009081526020819052604090209082900390555b6001600160a01b0382166107ea57600280548290039055610809565b6001600160a01b03821660009081526020819052604090208054820190555b816001600160a01b0316836001600160a01b03167fddf252ad1be2c89b69c2b068fc378daa952ba7f163c4a11628f55a4df523b3ef8360405161084e91815260200190565b60405180910390a3505050565b602081526000825180602084015260005b81811015610889576020818601810151604086840101520161086c565b506000604082850101526040601f19601f83011684010191505092915050565b6001600160a01b03811681146108be57600080fd5b50565b600080604083850312156108d457600080fd5b82356108df816108a9565b946020939093013593505050565b60008060006060848603121561090257600080fd5b833561090d816108a9565b9250602084013561091d816108a9565b929592945050506040919091013590565b60006020828403121561094057600080fd5b813561094b816108a9565b9392505050565b6000806040838503121561096557600080fd5b8235610970816108a9565b91506020830135610980816108a9565b809150509250929050565b634e487b7160e01b600052604160045260246000fd5b600082601f8301126109b257600080fd5b813567ffffffffffffffff8111156109cc576109cc61098b565b604051601f8201601f19908116603f0116810167ffffffffffffffff811182821017156109fb576109fb61098b565b604052818152838201602001851015610a1357600080fd5b816020850160208301376000918101602001919091529392505050565b60008060008060808587031215610a4657600080fd5b843567ffffffffffffffff811115610a5d57600080fd5b610a69878288016109a1565b945050602085013567ffffffffffffffff811115610a8657600080fd5b610a92878288016109a1565b9350506040850135610aa3816108a9565b9396929550929360600135925050565b600181811c90821680610ac757607f821691505b602082108103610ae757634e487b7160e01b600052602260045260246000fd5b50919050565b600060208284031215610aff57600080fd5b815161094b816108a9565b600060208284031215610b1c57600080fd5b8151801515811461094b57600080fd5b8082018082111561030457634e487b7160e01b600052601160045260246000fd5b601f82111561053f57806000526020600020601f840160051c81016020851015610b745750805b601f840160051c820191505b81811015610b945760008155600101610b80565b5050505050565b815167ffffffffffffffff811115610bb557610bb561098b565b610bc981610bc38454610ab3565b84610b4d565b6020601f821160018114610bfd5760008315610be55750848201515b600019600385901b1c1916600184901b178455610b94565b600084815260208120601f198516915b82811015610c2d5787850151825560209485019460019092019101610c0d565b5084821015610c4b5786840151600019600387901b60f8161c191681555b50505050600190811b0190555056fea2646970667358221220d07d13600184787d5d483929b1dda892fff6aaf27dd1a8195ea7437bc6ea264964736f6c634300081a0033","linkReferences":{}},"methodIdentifiers":{"accessControls()":"748365ef","allowance(address,address)":"dd62ed3e","approve(address,uint256)":"095ea7b3","balanceOf(address)":"70a08231","decimals()":"313ce567","initialize(string,string,address,uint256)":"f542033f","initialized()":"158ef93e","mintandDistributeToken(address,uint256)":"16c89e0b","name()":"06fdde03","symbol()":"95d89b41","tokenSupply()":"7824407f","totalMinted()":"a2309ff8","totalSupply()":"18160ddd","transfer(address,uint256)":"a9059cbb","transferFrom(address,address,uint256)":"23b872dd"},"id":7}