{"abi":[{"type":"constructor","inputs":[{"name":"name","type":"string","internalType":"string"},{"name":"symbol","type":"string","internalType":"string"},{"name":"accessControlsAddress","type":"address","internalType":"address"},{"name":"supply","type":"uint256","internalType":"uint256"}],"stateMutability":"nonpayable"},{"type":"function","name":"accessControls","inputs":[],"outputs":[{"name":"","type":"address","internalType":"contract AgentMemeAccessControls"}],"stateMutability":"view"},{"type":"function","name":"allowance","inputs":[{"name":"owner","type":"address","internalType":"address"},{"name":"spender","type":"address","internalType":"address"}],"outputs":[{"name":"","type":"uint256","internalType":"uint256"}],"stateMutability":"view"},{"type":"function","name":"approve","inputs":[{"name":"spender","type":"address","internalType":"address"},{"name":"value","type":"uint256","internalType":"uint256"}],"outputs":[{"name":"","type":"bool","internalType":"bool"}],"stateMutability":"nonpayable"},{"type":"function","name":"balanceOf","inputs":[{"name":"account","type":"address","internalType":"address"}],"outputs":[{"name":"","type":"uint256","internalType":"uint256"}],"stateMutability":"view"},{"type":"function","name":"decimals","inputs":[],"outputs":[{"name":"","type":"uint8","internalType":"uint8"}],"stateMutability":"view"},{"type":"function","name":"mintandDistributeToken","inputs":[{"name":"to","type":"address","internalType":"address"},{"name":"amount","type":"uint256","internalType":"uint256"}],"outputs":[],"stateMutability":"nonpayable"},{"type":"function","name":"name","inputs":[],"outputs":[{"name":"","type":"string","internalType":"string"}],"stateMutability":"view"},{"type":"function","name":"symbol","inputs":[],"outputs":[{"name":"","type":"string","internalType":"string"}],"stateMutability":"view"},{"type":"function","name":"tokenSupply","inputs":[],"outputs":[{"name":"","type":"uint256","internalType":"uint256"}],"stateMutability":"view"},{"type":"function","name":"totalMinted","inputs":[],"outputs":[{"name":"","type":"uint256","internalType":"uint256"}],"stateMutability":"view"},{"type":"function","name":"totalSupply","inputs":[],"outputs":[{"name":"","type":"uint256","internalType":"uint256"}],"stateMutability":"view"},{"type":"function","name":"transfer","inputs":[{"name":"to","type":"address","internalType":"address"},{"name":"value","type":"uint256","internalType":"uint256"}],"outputs":[{"name":"","type":"bool","internalType":"bool"}],"stateMutability":"nonpayable"},{"type":"function","name":"transferFrom","inputs":[{"name":"from","type":"address","internalType":"address"},{"name":"to","type":"address","internalType":"address"},{"name":"value","type":"uint256","internalType":"uint256"}],"outputs":[{"name":"","type":"bool","internalType":"bool"}],"stateMutability":"nonpayable"},{"type":"event","name":"Approval","inputs":[{"name":"owner","type":"address","indexed":true,"internalType":"address"},{"name":"spender","type":"address","indexed":true,"internalType":"address"},{"name":"value","type":"uint256","indexed":false,"internalType":"uint256"}],"anonymous":false},{"type":"event","name":"Transfer","inputs":[{"name":"from","type":"address","indexed":true,"internalType":"address"},{"name":"to","type":"address","indexed":true,"internalType":"address"},{"name":"value","type":"uint256","indexed":false,"internalType":"uint256"}],"anonymous":false},{"type":"error","name":"ERC20InsufficientAllowance","inputs":[{"name":"spender","type":"address","internalType":"address"},{"name":"allowance","type":"uint256","internalType":"uint256"},{"name":"needed","type":"uint256","internalType":"uint256"}]},{"type":"error","name":"ERC20InsufficientBalance","inputs":[{"name":"sender","type":"address","internalType":"address"},{"name":"balance","type":"uint256","internalType":"uint256"},{"name":"needed","type":"uint256","internalType":"uint256"}]},{"type":"error","name":"ERC20InvalidApprover","inputs":[{"name":"approver","type":"address","internalType":"address"}]},{"type":"error","name":"ERC20InvalidReceiver","inputs":[{"name":"receiver","type":"address","internalType":"address"}]},{"type":"error","name":"ERC20InvalidSender","inputs":[{"name":"sender","type":"address","internalType":"address"}]},{"type":"error","name":"ERC20InvalidSpender","inputs":[{"name":"spender","type":"address","internalType":"address"}]},{"type":"error","name":"ExceedsTotalSupply","inputs":[]},{"type":"error","name":"InvalidAgentRole","inputs":[]}],"bytecode":{"object":"0x60a060405234801561001057600080fd5b50604051610d0a380380610d0a83398101604081905261002f91610131565b8383600361003d838261024b565b50600461004a828261024b565b505050608052600580546001600160a01b0319166001600160a01b0392909216919091179055506103099050565b634e487b7160e01b600052604160045260246000fd5b600082601f83011261009f57600080fd5b81516001600160401b038111156100b8576100b8610078565b604051601f8201601f19908116603f011681016001600160401b03811182821017156100e6576100e6610078565b6040528181528382016020018510156100fe57600080fd5b60005b8281101561011d57602081860181015183830182015201610101565b506000918101602001919091529392505050565b6000806000806080858703121561014757600080fd5b84516001600160401b0381111561015d57600080fd5b6101698782880161008e565b602087015190955090506001600160401b0381111561018757600080fd5b6101938782880161008e565b604087015190945090506001600160a01b03811681146101b257600080fd5b6060959095015193969295505050565b600181811c908216806101d657607f821691505b6020821081036101f657634e487b7160e01b600052602260045260246000fd5b50919050565b601f82111561024657806000526020600020601f840160051c810160208510156102235750805b601f840160051c820191505b81811015610243576000815560010161022f565b50505b505050565b81516001600160401b0381111561026457610264610078565b6102788161027284546101c2565b846101fc565b6020601f8211600181146102ac57600083156102945750848201515b600019600385901b1c1916600184901b178455610243565b600084815260208120601f198516915b828110156102dc57878501518255602094850194600190920191016102bc565b50848210156102fa5786840151600019600387901b60f8161c191681555b50505050600190811b01905550565b6080516109df61032b600039600081816101b7015261040301526109df6000f3fe608060405234801561001057600080fd5b50600436106100cf5760003560e01c806370a082311161008c57806395d89b411161006657806395d89b41146101d9578063a2309ff8146101e1578063a9059cbb146101ea578063dd62ed3e146101fd57600080fd5b806370a082311461015e578063748365ef146101875780637824407f146101b257600080fd5b806306fdde03146100d4578063095ea7b3146100f257806316c89e0b1461011557806318160ddd1461012a57806323b872dd1461013c578063313ce5671461014f575b600080fd5b6100dc610236565b6040516100e991906107df565b60405180910390f35b610105610100366004610845565b6102c8565b60405190151581526020016100e9565b610128610123366004610845565b6102e2565b005b6002545b6040519081526020016100e9565b61010561014a366004610871565b610475565b604051601281526020016100e9565b61012e61016c3660046108b2565b6001600160a01b031660009081526020819052604090205490565b60055461019a906001600160a01b031681565b6040516001600160a01b0390911681526020016100e9565b61012e7f000000000000000000000000000000000000000000000000000000000000000081565b6100dc610499565b61012e60065481565b6101056101f8366004610845565b6104a8565b61012e61020b3660046108d6565b6001600160a01b03918216600090815260016020908152604080832093909416825291909152205490565b6060600380546102459061090f565b80601f01602080910402602001604051908101604052809291908181526020018280546102719061090f565b80156102be5780601f10610293576101008083540402835291602001916102be565b820191906000526020600020905b8154815290600101906020018083116102a157829003601f168201915b5050505050905090565b6000336102d68185856104b6565b60019150505b92915050565b600560009054906101000a90046001600160a01b03166001600160a01b0316636e9960c36040518163ffffffff1660e01b8152600401602060405180830381865afa158015610335573d6000803e3d6000fd5b505050506040513d601f19601f820116820180604052508101906103599190610949565b6001600160a01b0316336001600160a01b0316141580156103e3575060055460405163a59ce4df60e01b81523360048201526001600160a01b039091169063a59ce4df90602401602060405180830381865afa1580156103bd573d6000803e3d6000fd5b505050506040513d601f19601f820116820180604052508101906103e19190610966565b155b1561040157604051632b1759b360e21b815260040160405180910390fd5b7f0000000000000000000000000000000000000000000000000000000000000000816006546104309190610988565b111561044f5760405163177e3fc360e01b815260040160405180910390fd5b80600660008282546104619190610988565b90915550610471905082826104c8565b5050565b600033610483858285610503565b61048e858585610581565b506001949350505050565b6060600480546102459061090f565b6000336102d6818585610581565b6104c383838360016105e0565b505050565b6001600160a01b0382166104f75760405163ec442f0560e01b8152600060048201526024015b60405180910390fd5b610471600083836106b5565b6001600160a01b03838116600090815260016020908152604080832093861683529290522054600019811461057b578181101561056c57604051637dc7a0d960e11b81526001600160a01b038416600482015260248101829052604481018390526064016104ee565b61057b848484840360006105e0565b50505050565b6001600160a01b0383166105ab57604051634b637e8f60e11b8152600060048201526024016104ee565b6001600160a01b0382166105d55760405163ec442f0560e01b8152600060048201526024016104ee565b6104c38383836106b5565b6001600160a01b03841661060a5760405163e602df0560e01b8152600060048201526024016104ee565b6001600160a01b03831661063457604051634a1406b160e11b8152600060048201526024016104ee565b6001600160a01b038085166000908152600160209081526040808320938716835292905220829055801561057b57826001600160a01b0316846001600160a01b03167f8c5be1e5ebec7d5bd14f71427d1e84f3dd0314c0f7b2291e5b200ac8c7c3b925846040516106a791815260200190565b60405180910390a350505050565b6001600160a01b0383166106e05780600260008282546106d59190610988565b909155506107529050565b6001600160a01b038316600090815260208190526040902054818110156107335760405163391434e360e21b81526001600160a01b038516600482015260248101829052604481018390526064016104ee565b6001600160a01b03841660009081526020819052604090209082900390555b6001600160a01b03821661076e5760028054829003905561078d565b6001600160a01b03821660009081526020819052604090208054820190555b816001600160a01b0316836001600160a01b03167fddf252ad1be2c89b69c2b068fc378daa952ba7f163c4a11628f55a4df523b3ef836040516107d291815260200190565b60405180910390a3505050565b602081526000825180602084015260005b8181101561080d57602081860181015160408684010152016107f0565b506000604082850101526040601f19601f83011684010191505092915050565b6001600160a01b038116811461084257600080fd5b50565b6000806040838503121561085857600080fd5b82356108638161082d565b946020939093013593505050565b60008060006060848603121561088657600080fd5b83356108918161082d565b925060208401356108a18161082d565b929592945050506040919091013590565b6000602082840312156108c457600080fd5b81356108cf8161082d565b9392505050565b600080604083850312156108e957600080fd5b82356108f48161082d565b915060208301356109048161082d565b809150509250929050565b600181811c9082168061092357607f821691505b60208210810361094357634e487b7160e01b600052602260045260246000fd5b50919050565b60006020828403121561095b57600080fd5b81516108cf8161082d565b60006020828403121561097857600080fd5b815180151581146108cf57600080fd5b808201808211156102dc57634e487b7160e01b600052601160045260246000fdfea2646970667358221220b9e866b92f0ef0ffd9c237286480dcd5539a954afa8b910e123d082292be5ce464736f6c634300081a0033","linkReferences":{}},"methodIdentifiers":{"accessControls()":"748365ef","allowance(address,address)":"dd62ed3e","approve(address,uint256)":"095ea7b3","balanceOf(address)":"70a08231","decimals()":"313ce567","mintandDistributeToken(address,uint256)":"16c89e0b","name()":"06fdde03","symbol()":"95d89b41","tokenSupply()":"7824407f","totalMinted()":"a2309ff8","totalSupply()":"18160ddd","transfer(address,uint256)":"a9059cbb","transferFrom(address,address,uint256)":"23b872dd"},"id":7}