{"abi":[{"type":"constructor","inputs":[{"name":"agentAddresses","type":"address[]","internalType":"address[]"}],"stateMutability":"nonpayable"},{"type":"function","name":"getActiveAgentAddresses","inputs":[],"outputs":[{"name":"","type":"address[]","internalType":"address[]"}],"stateMutability":"view"}],"bytecode":{"object":"0x608060405234801561001057600080fd5b506040516102fa3803806102fa83398101604081905261002f916100f5565b8051610042906000906020840190610049565b50506101c4565b82805482825590600052602060002090810192821561009e579160200282015b8281111561009e57825182546001600160a01b0319166001600160a01b03909116178255602090920191600190910190610069565b506100aa9291506100ae565b5090565b5b808211156100aa57600081556001016100af565b634e487b7160e01b600052604160045260246000fd5b80516001600160a01b03811681146100f057600080fd5b919050565b60006020828403121561010757600080fd5b81516001600160401b0381111561011d57600080fd5b8201601f8101841361012e57600080fd5b80516001600160401b03811115610147576101476100c3565b604051600582901b90603f8201601f191681016001600160401b0381118282101715610175576101756100c3565b60405291825260208184018101929081018784111561019357600080fd5b6020850194505b838510156101b9576101ab856100d9565b81526020948501940161019a565b509695505050505050565b610127806101d36000396000f3fe6080604052348015600f57600080fd5b506004361060285760003560e01c80637fa144a214602d575b600080fd5b60336047565b604051603e919060a7565b60405180910390f35b60606000805480602002602001604051908101604052809291908181526020018280548015609d57602002820191906000526020600020905b81546001600160a01b031681526001909101906020018083116080575b5050505050905090565b602080825282518282018190526000918401906040840190835b8181101560e65783516001600160a01b031683526020938401939092019160010160c1565b50909594505050505056fea2646970667358221220f5f01b98eb550e713aebd9648064e807184c2ae78664ad1b352af73bb8a4acdc64736f6c634300081a0033","linkReferences":{}},"methodIdentifiers":{"getActiveAgentAddresses()":"7fa144a2"},"id":6}