{"abi":[{"type":"function","name":"getActiveAgentAddresses","inputs":[],"outputs":[{"name":"","type":"address[]","internalType":"address[]"}],"stateMutability":"view"},{"type":"function","name":"initialize","inputs":[{"name":"agentAddresses","type":"address[]","internalType":"address[]"}],"outputs":[],"stateMutability":"nonpayable"},{"type":"function","name":"initialized","inputs":[],"outputs":[{"name":"","type":"bool","internalType":"bool"}],"stateMutability":"view"},{"type":"error","name":"AlreadyInitialized","inputs":[]}],"bytecode":{"object":"0x6080604052348015600f57600080fd5b506103388061001f6000396000f3fe608060405234801561001057600080fd5b50600436106100415760003560e01c8063158ef93e146100465780637fa144a214610068578063a224cee71461007d575b600080fd5b6001546100539060ff1681565b60405190151581526020015b60405180910390f35b610070610092565b60405161005f91906101b4565b61009061008b366004610232565b6100f4565b005b606060008054806020026020016040519081016040528092919081815260200182805480156100ea57602002820191906000526020600020905b81546001600160a01b031681526001909101906020018083116100cc575b5050505050905090565b60015460ff16156101175760405162dc149f60e41b815260040160405180910390fd5b6001805460ff191681179055805161013690600090602084019061013a565b5050565b82805482825590600052602060002090810192821561018f579160200282015b8281111561018f57825182546001600160a01b0319166001600160a01b0390911617825560209092019160019091019061015a565b5061019b92915061019f565b5090565b5b8082111561019b57600081556001016101a0565b602080825282518282018190526000918401906040840190835b818110156101f55783516001600160a01b03168352602093840193909201916001016101ce565b509095945050505050565b634e487b7160e01b600052604160045260246000fd5b80356001600160a01b038116811461022d57600080fd5b919050565b60006020828403121561024457600080fd5b813567ffffffffffffffff81111561025b57600080fd5b8201601f8101841361026c57600080fd5b803567ffffffffffffffff81111561028657610286610200565b8060051b604051601f19603f830116810181811067ffffffffffffffff821117156102b3576102b3610200565b6040529182526020818401810192908101878411156102d157600080fd5b6020850194505b838510156102f7576102e985610216565b8152602094850194016102d8565b50969550505050505056fea2646970667358221220b39bc8034a69bd252c692cfb54578d0ef2dc918ac858824adab887ca40f17cfc64736f6c634300081a0033","linkReferences":{}},"methodIdentifiers":{"getActiveAgentAddresses()":"7fa144a2","initialize(address[])":"a224cee7","initialized()":"158ef93e"},"id":1}