{"abi":[{"type":"function","name":"addOrModifyEvaluationsBatch","inputs":[{"name":"evaluations","type":"tuple[]","internalType":"struct NibbleLibrary.Evaluation[]","components":[{"name":"id","type":"bytes","internalType":"bytes"},{"name":"metadata","type":"string","internalType":"string"},{"name":"encrypted","type":"bool","internalType":"bool"}]}],"outputs":[],"stateMutability":"nonpayable"},{"type":"function","name":"getEvaluationIsEncrypted","inputs":[{"name":"evaluationId","type":"bytes","internalType":"bytes"}],"outputs":[{"name":"","type":"bool","internalType":"bool"}],"stateMutability":"view"},{"type":"function","name":"getEvaluationMetadata","inputs":[{"name":"evaluationId","type":"bytes","internalType":"bytes"}],"outputs":[{"name":"","type":"string","internalType":"string"}],"stateMutability":"view"},{"type":"function","name":"initialize","inputs":[{"name":"nibbleFactoryAddress","type":"address","internalType":"address"},{"name":"nibbleAccessControlsAddress","type":"address","internalType":"address"},{"name":"nibbleStorageAddress","type":"address","internalType":"address"}],"outputs":[],"stateMutability":"nonpayable"},{"type":"function","name":"nibbleAccessControls","inputs":[],"outputs":[{"name":"","type":"address","internalType":"contract NibbleAccessControls"}],"stateMutability":"view"},{"type":"function","name":"nibbleStorage","inputs":[],"outputs":[{"name":"","type":"address","internalType":"address"}],"stateMutability":"view"},{"type":"function","name":"removeEvaluationsBatch","inputs":[{"name":"evaluationIds","type":"bytes[]","internalType":"bytes[]"}],"outputs":[],"stateMutability":"nonpayable"},{"type":"event","name":"EvaluationsModified","inputs":[{"name":"evaluationId","type":"bytes[]","indexed":false,"internalType":"bytes[]"},{"name":"metadata","type":"string[]","indexed":false,"internalType":"string[]"},{"name":"encrypted","type":"bool[]","indexed":false,"internalType":"bool[]"},{"name":"newEvaluation","type":"bool[]","indexed":false,"internalType":"bool[]"}],"anonymous":false},{"type":"event","name":"EvaluationsRemoved","inputs":[{"name":"evaluationId","type":"bytes[]","indexed":false,"internalType":"bytes[]"}],"anonymous":false},{"type":"event","name":"Initialized","inputs":[{"name":"version","type":"uint64","indexed":false,"internalType":"uint64"}],"anonymous":false},{"type":"error","name":"InvalidInitialization","inputs":[]},{"type":"error","name":"InvalidInitializer","inputs":[]},{"type":"error","name":"InvalidRole","inputs":[]},{"type":"error","name":"NotInitializing","inputs":[]}],"bytecode":{"object":"0x6080604052348015600f57600080fd5b506111028061001f6000396000f3fe608060405234801561001057600080fd5b506004361061007d5760003560e01c8063bef2530d1161005b578063bef2530d146100da578063c0c53b8b146100fd578063f8d0e29614610110578063fd9a967d1461012357600080fd5b80637ae21f9c14610082578063828b73e5146100975780639c081d2c146100aa575b600080fd5b610095610090366004610ae6565b610143565b005b6100956100a5366004610bae565b610305565b6000546100bd906001600160a01b031681565b6040516001600160a01b0390911681526020015b60405180910390f35b6100ed6100e8366004610cec565b6107ea565b60405190151581526020016100d1565b61009561010b366004610d44565b610818565b6001546100bd906001600160a01b031681565b610136610131366004610cec565b61087a565b6040516100d19190610dd7565b600054604051633cd4605360e11b81523360048201526001600160a01b03909116906379a8c0a690602401602060405180830381865afa15801561018b573d6000803e3d6000fd5b505050506040513d601f19601f820116820180604052508101906101af9190610dea565b1580610224575060005460405163f328ac9f60e01b81523360048201526001600160a01b039091169063f328ac9f90602401602060405180830381865afa1580156101fe573d6000803e3d6000fd5b505050506040513d601f19601f820116820180604052508101906102229190610dea565b155b8061023a57506001546001600160a01b03163314155b1561025857604051636caa20b560e11b815260040160405180910390fd5b60005b81518110156102ca57600282828151811061027857610278610e07565b602002602001015160405161028d9190610e1d565b90815260405190819003602001902060006102a8828261097d565b6102b660018301600061097d565b50600201805460ff1916905560010161025b565b507f6495c6c4e3b5a404ffb9673281c7b913638a5aedce023c92f7b056fe3850706f816040516102fa9190610e95565b60405180910390a150565b600054604051633cd4605360e11b81523360048201526001600160a01b03909116906379a8c0a690602401602060405180830381865afa15801561034d573d6000803e3d6000fd5b505050506040513d601f19601f820116820180604052508101906103719190610dea565b15806103e6575060005460405163f328ac9f60e01b81523360048201526001600160a01b039091169063f328ac9f90602401602060405180830381865afa1580156103c0573d6000803e3d6000fd5b505050506040513d601f19601f820116820180604052508101906103e49190610dea565b155b806103fc57506001546001600160a01b03163314155b1561041a57604051636caa20b560e11b815260040160405180910390fd5b600081516001600160401b03811115610435576104356109d3565b60405190808252806020026020018201604052801561045e578160200160208202803683370190505b509050600082516001600160401b0381111561047c5761047c6109d3565b6040519080825280602002602001820160405280156104a5578160200160208202803683370190505b509050600083516001600160401b038111156104c3576104c36109d3565b6040519080825280602002602001820160405280156104f657816020015b60608152602001906001900390816104e15790505b509050600084516001600160401b03811115610514576105146109d3565b60405190808252806020026020018201604052801561054757816020015b60608152602001906001900390816105325790505b50905060005b85518110156107a557600286828151811061056a5761056a610e07565b6020026020010151600001516040516105839190610e1d565b908152604051908190036020019020805461059d90610ea8565b90506000036105cf5760018582815181106105ba576105ba610e07565b911515602092830291909101909101526105f4565b60008582815181106105e3576105e3610e07565b911515602092830291909101909101525b604051806060016040528087838151811061061157610611610e07565b602002602001015160000151815260200187838151811061063457610634610e07565b602002602001015160200151815260200187838151811061065757610657610e07565b6020026020010151604001511515815250600287838151811061067c5761067c610e07565b6020026020010151600001516040516106959190610e1d565b908152604051908190036020019020815181906106b29082610f31565b50602082015160018201906106c79082610f31565b50604091909101516002909101805460ff191691151591909117905585518690829081106106f7576106f7610e07565b60200260200101516040015184828151811061071557610715610e07565b60200260200101901515908115158152505085818151811061073957610739610e07565b60200260200101516020015183828151811061075757610757610e07565b602002602001018190525085818151811061077457610774610e07565b60200260200101516000015182828151811061079257610792610e07565b602090810291909101015260010161054d565b507f57254714fede3acb42ca7b5d3540cfdb4cafc19d931009675b982eaf2bf56b68818385876040516107db949392919061102d565b60405180910390a15050505050565b60006002826040516107fc9190610e1d565b9081526040519081900360200190206002015460ff1692915050565b82336001600160a01b038216146108425760405163adc06ae760e01b815260040160405180910390fd5b61084a61092d565b50600080546001600160a01b039384166001600160a01b0319918216179091556001805492909316911617905550565b606060028260405161088c9190610e1d565b908152602001604051809103902060010180546108a890610ea8565b80601f01602080910402602001604051908101604052809291908181526020018280546108d490610ea8565b80156109215780601f106108f657610100808354040283529160200191610921565b820191906000526020600020905b81548152906001019060200180831161090457829003601f168201915b50505050509050919050565b7ff0c57e16840df040f15088dc2f81fe391c3923bec73e23a9662efc9c229c6a005468010000000000000000900460ff1661097b57604051631afcd79f60e31b815260040160405180910390fd5b565b50805461098990610ea8565b6000825580601f10610999575050565b601f0160209004906000526020600020908101906109b791906109ba565b50565b5b808211156109cf57600081556001016109bb565b5090565b634e487b7160e01b600052604160045260246000fd5b604051606081016001600160401b0381118282101715610a0b57610a0b6109d3565b60405290565b604051601f8201601f191681016001600160401b0381118282101715610a3957610a396109d3565b604052919050565b60006001600160401b03821115610a5a57610a5a6109d3565b5060051b60200190565b6000806001600160401b03841115610a7e57610a7e6109d3565b50601f8301601f1916602001610a9381610a11565b915050828152838383011115610aa857600080fd5b828260208301376000602084830101529392505050565b600082601f830112610ad057600080fd5b610adf83833560208501610a64565b9392505050565b600060208284031215610af857600080fd5b81356001600160401b03811115610b0e57600080fd5b8201601f81018413610b1f57600080fd5b8035610b32610b2d82610a41565b610a11565b8082825260208201915060208360051b850101925086831115610b5457600080fd5b602084015b83811015610b955780356001600160401b03811115610b7757600080fd5b610b8689602083890101610abf565b84525060209283019201610b59565b509695505050505050565b80151581146109b757600080fd5b600060208284031215610bc057600080fd5b81356001600160401b03811115610bd657600080fd5b8201601f81018413610be757600080fd5b8035610bf5610b2d82610a41565b8082825260208201915060208360051b850101925086831115610c1757600080fd5b602084015b83811015610b955780356001600160401b03811115610c3a57600080fd5b85016060818a03601f19011215610c5057600080fd5b610c586109e9565b60208201356001600160401b03811115610c7157600080fd5b610c808b602083860101610abf565b82525060408201356001600160401b03811115610c9c57600080fd5b82016020810190603f018b13610cb157600080fd5b610cc08b823560208401610a64565b60208301525060608201359150610cd682610ba0565b6040810191909152835260209283019201610c1c565b600060208284031215610cfe57600080fd5b81356001600160401b03811115610d1457600080fd5b610d2084828501610abf565b949350505050565b80356001600160a01b0381168114610d3f57600080fd5b919050565b600080600060608486031215610d5957600080fd5b610d6284610d28565b9250610d7060208501610d28565b9150610d7e60408501610d28565b90509250925092565b60005b83811015610da2578181015183820152602001610d8a565b50506000910152565b60008151808452610dc3816020860160208601610d87565b601f01601f19169290920160200192915050565b602081526000610adf6020830184610dab565b600060208284031215610dfc57600080fd5b8151610adf81610ba0565b634e487b7160e01b600052603260045260246000fd5b60008251610e2f818460208701610d87565b9190910192915050565b600082825180855260208501945060208160051b8301016020850160005b83811015610e8957601f19858403018852610e73838351610dab565b6020988901989093509190910190600101610e57565b50909695505050505050565b602081526000610adf6020830184610e39565b600181811c90821680610ebc57607f821691505b602082108103610edc57634e487b7160e01b600052602260045260246000fd5b50919050565b601f821115610f2c57806000526020600020601f840160051c81016020851015610f095750805b601f840160051c820191505b81811015610f295760008155600101610f15565b50505b505050565b81516001600160401b03811115610f4a57610f4a6109d3565b610f5e81610f588454610ea8565b84610ee2565b6020601f821160018114610f925760008315610f7a5750848201515b600019600385901b1c1916600184901b178455610f29565b600084815260208120601f198516915b82811015610fc25787850151825560209485019460019092019101610fa2565b5084821015610fe05786840151600019600387901b60f8161c191681555b50505050600190811b01905550565b600081518084526020840193506020830160005b828110156110235781511515865260209586019590910190600101611003565b5093949350505050565b6080815260006110406080830187610e39565b828103602084015280865180835260208301915060208160051b8401016020890160005b8381101561109657601f19868403018552611080838351610dab565b6020958601959093509190910190600101611064565b505085810360408701526110aa8189610fef565b935050505082810360608401526110c18185610fef565b97965050505050505056fea264697066735822122030a61b1029ec42691a4a8323166c6278095a03e483e04b5935b0c6f51731160264736f6c634300081a0033","linkReferences":{}},"methodIdentifiers":{"addOrModifyEvaluationsBatch((bytes,string,bool)[])":"828b73e5","getEvaluationIsEncrypted(bytes)":"bef2530d","getEvaluationMetadata(bytes)":"fd9a967d","initialize(address,address,address)":"c0c53b8b","nibbleAccessControls()":"9c081d2c","nibbleStorage()":"f8d0e296","removeEvaluationsBatch(bytes[])":"7ae21f9c"},"id":36}