{"abi":[{"type":"function","name":"deployFromFactory","inputs":[{"name":"agentWriters","type":"address[]","internalType":"address[]"},{"name":"agentReaders","type":"address[]","internalType":"address[]"},{"name":"agentAdmins","type":"address[]","internalType":"address[]"},{"name":"agentTokenDistributors","type":"address[]","internalType":"address[]"},{"name":"tokenName","type":"string","internalType":"string"},{"name":"tokenSymbol","type":"string","internalType":"string"},{"name":"tokenSupply","type":"uint256","internalType":"uint256"}],"outputs":[{"name":"","type":"address[4]","internalType":"address[4]"}],"stateMutability":"nonpayable"},{"type":"event","name":"AgentMemeDeployed","inputs":[{"name":"admin","type":"address","indexed":true,"internalType":"address"},{"name":"accessControlAddress","type":"address","indexed":false,"internalType":"address"},{"name":"fhe","type":"address","indexed":false,"internalType":"address"},{"name":"data","type":"address","indexed":false,"internalType":"address"},{"name":"token","type":"address","indexed":false,"internalType":"address"}],"anonymous":false}],"bytecode":{"object":"0x6080604052348015600f57600080fd5b506129438061001f6000396000f3fe608060405234801561001057600080fd5b506004361061002b5760003560e01c80635b3bb68014610030575b600080fd5b61004361003e36600461059c565b610059565b60405161005091906106c0565b60405180910390f35b6100616103fc565b600033898989896040516100749061041a565b61008295949392919061073f565b604051809103906000f08015801561009e573d6000803e3d6000fd5b50905060006040516100af90610427565b604051809103906000f0801580156100cb573d6000803e3d6000fd5b50905060006100dc8b8b8b8b6101e8565b90506000816040516100ed90610433565b6100f791906107a9565b604051809103906000f080158015610113573d6000803e3d6000fd5b50905060008888868960405161012890610440565b6101359493929190610809565b604051809103906000f080158015610151573d6000803e3d6000fd5b50604080516001600160a01b03888116825287811660208301528581168284015283166060820152905191925033917fd723aad731e650e77e18cd7d8b0624e6cefb6aca174ae9d8056eb2153e9920a99181900360800190a2604080516080810182526001600160a01b03968716815294861660208601529185169184019190915290921660608201529998505050505050505050565b6060600082518451865188516101fe9190610861565b6102089190610861565b6102129190610861565b905060008167ffffffffffffffff81111561022f5761022f61044d565b604051908082528060200260200182016040528015610258578160200160208202803683370190505b5090506000805b88518110156102c05788818151811061027a5761027a61087a565b602002602001015183838061028e90610890565b9450815181106102a0576102a061087a565b6001600160a01b039092166020928302919091019091015260010161025f565b5060005b8751811015610325578781815181106102df576102df61087a565b60200260200101518383806102f390610890565b9450815181106103055761030561087a565b6001600160a01b03909216602092830291909101909101526001016102c4565b5060005b865181101561038a578681815181106103445761034461087a565b602002602001015183838061035890610890565b94508151811061036a5761036a61087a565b6001600160a01b0390921660209283029190910190910152600101610329565b5060005b85518110156103ef578581815181106103a9576103a961087a565b60200260200101518383806103bd90610890565b9450815181106103cf576103cf61087a565b6001600160a01b039092166020928302919091019091015260010161038e565b5090979650505050505050565b60405180608001604052806004906020820280368337509192915050565b611004806108aa83390190565b605c806118ae83390190565b6102fa8061190a83390190565b610d0a80611c0483390190565b634e487b7160e01b600052604160045260246000fd5b604051601f8201601f1916810167ffffffffffffffff8111828210171561048c5761048c61044d565b604052919050565b600082601f8301126104a557600080fd5b813567ffffffffffffffff8111156104bf576104bf61044d565b8060051b6104cf60208201610463565b918252602081850181019290810190868411156104eb57600080fd5b6020860192505b838310156105225782356001600160a01b038116811461051157600080fd5b8252602092830192909101906104f2565b9695505050505050565b600082601f83011261053d57600080fd5b813567ffffffffffffffff8111156105575761055761044d565b61056a601f8201601f1916602001610463565b81815284602083860101111561057f57600080fd5b816020850160208301376000918101602001919091529392505050565b600080600080600080600060e0888a0312156105b757600080fd5b873567ffffffffffffffff8111156105ce57600080fd5b6105da8a828b01610494565b975050602088013567ffffffffffffffff8111156105f757600080fd5b6106038a828b01610494565b965050604088013567ffffffffffffffff81111561062057600080fd5b61062c8a828b01610494565b955050606088013567ffffffffffffffff81111561064957600080fd5b6106558a828b01610494565b945050608088013567ffffffffffffffff81111561067257600080fd5b61067e8a828b0161052c565b93505060a088013567ffffffffffffffff81111561069b57600080fd5b6106a78a828b0161052c565b979a969950949793969295929450505060c09091013590565b60808101818360005b60048110156106f15781516001600160a01b03168352602092830192909101906001016106c9565b50505092915050565b600081518084526020840193506020830160005b828110156107355781516001600160a01b031686526020958601959091019060010161070e565b5093949350505050565b6001600160a01b038616815260a060208201819052600090610763908301876106fa565b828103604084015261077581876106fa565b9050828103606084015261078981866106fa565b9050828103608084015261079d81856106fa565b98975050505050505050565b6020815260006107bc60208301846106fa565b9392505050565b6000815180845260005b818110156107e9576020818501810151868301820152016107cd565b506000602082860101526020601f19601f83011685010191505092915050565b60808152600061081c60808301876107c3565b828103602084015261082e81876107c3565b6001600160a01b0395909516604084015250506060015292915050565b634e487b7160e01b600052601160045260246000fd5b808201808211156108745761087461084b565b92915050565b634e487b7160e01b600052603260045260246000fd5b6000600182016108a2576108a261084b565b506001019056fe608060405234801561001057600080fd5b5060405161100438038061100483398101604081905261002f91610481565b600080546001600160a01b0319166001600160a01b0387161781555b845181101561011857600180600087848151811061006b5761006b610555565b60200260200101516001600160a01b03166001600160a01b0316815260200190815260200160002060006101000a81548160ff0219169083151502179055508481815181106100bc576100bc610555565b60200260200101516001600160a01b0316600080516020610fe4833981519152604051610108906020808252600b908201526a30b3b2b73a2bb934ba32b960a91b604082015260600190565b60405180910390a260010161004b565b5060005b83518110156101e957600180600086848151811061013c5761013c610555565b60200260200101516001600160a01b03166001600160a01b0316815260200190815260200160002060006101000a81548160ff02191690831515021790555083818151811061018d5761018d610555565b60200260200101516001600160a01b0316600080516020610fe48339815191526040516101d9906020808252600b908201526a30b3b2b73a2932b0b232b960a91b604082015260600190565b60405180910390a260010161011c565b5060005b82518110156102ba5760016002600085848151811061020e5761020e610555565b60200260200101516001600160a01b03166001600160a01b0316815260200190815260200160002060006101000a81548160ff02191690831515021790555082818151811061025f5761025f610555565b60200260200101516001600160a01b0316600080516020610fe48339815191526040516102aa906020808252600a908201526930b3b2b73a20b236b4b760b11b604082015260600190565b60405180910390a26001016101ed565b5060005b815181101561039e576001600560008484815181106102df576102df610555565b60200260200101516001600160a01b03166001600160a01b0316815260200190815260200160002060006101000a81548160ff02191690831515021790555081818151811061033057610330610555565b60200260200101516001600160a01b0316600080516020610fe483398151915260405161038e9060208082526015908201527f6167656e74546f6b656e4469737472696275746f720000000000000000000000604082015260600190565b60405180910390a26001016102be565b50505050505061056b565b80516001600160a01b03811681146103c057600080fd5b919050565b634e487b7160e01b600052604160045260246000fd5b600082601f8301126103ec57600080fd5b81516001600160401b03811115610405576104056103c5565b604051600582901b90603f8201601f191681016001600160401b0381118282101715610433576104336103c5565b60405291825260208185018101929081018684111561045157600080fd5b6020860192505b8383101561047757610469836103a9565b815260209283019201610458565b5095945050505050565b600080600080600060a0868803121561049957600080fd5b6104a2866103a9565b60208701519095506001600160401b038111156104be57600080fd5b6104ca888289016103db565b604088015190955090506001600160401b038111156104e857600080fd5b6104f4888289016103db565b606088015190945090506001600160401b0381111561051257600080fd5b61051e888289016103db565b608088015190935090506001600160401b0381111561053c57600080fd5b610548888289016103db565b9150509295509295909350565b634e487b7160e01b600052603260045260246000fd5b610a6a8061057a6000396000f3fe608060405234801561001057600080fd5b506004361061010b5760003560e01c806396e41a1c116100a2578063a8d81ae711610071578063a8d81ae71461025e578063c98817f21461028a578063cdf1b693146102b6578063e7542acb146102c9578063edb39853146102dc57600080fd5b806396e41a1c146101e0578063a1a5d5e7146101f3578063a59ce4df14610206578063a7c527121461023257600080fd5b80636a6b8e9e116100de5780636a6b8e9e1461018c5780636e9960c31461019f5780638f283970146101ba57806394c9a70d146101cd57600080fd5b8063139138b81461011057806316bba0141461012557806365d07b2e1461013857806367da29ff1461014b575b600080fd5b61012361011e3660046109c4565b6102ef565b005b6101236101333660046109c4565b61039f565b6101236101463660046109c4565b610444565b6101776101593660046109c4565b6001600160a01b031660009081526001602052604090205460ff1690565b60405190151581526020015b60405180910390f35b61012361019a3660046109c4565b6104ca565b6000546040516001600160a01b039091168152602001610183565b6101236101c83660046109c4565b610554565b6101236101db3660046109c4565b610601565b6101236101ee3660046109c4565b6106ab565b6101236102013660046109c4565b61075d565b6101776102143660046109c4565b6001600160a01b031660009081526005602052604090205460ff1690565b6101776102403660046109c4565b6001600160a01b031660009081526004602052604090205460ff1690565b61017761026c3660046109c4565b6001600160a01b031660009081526002602052604090205460ff1690565b6101776102983660046109c4565b6001600160a01b031660009081526003602052604090205460ff1690565b6101236102c43660046109c4565b61080c565b6101236102d73660046109c4565b610895565b6101236102ea3660046109c4565b61093d565b6000546001600160a01b0316331480159061031a57503360009081526002602052604090205460ff16155b1561033857604051634755657960e01b815260040160405180910390fd5b6001600160a01b03811660008181526001602052604090819020805460ff1916905551600080516020610a1583398151915290610394906020808252600b908201526a30b3b2b73a2bb934ba32b960a91b604082015260600190565b60405180910390a250565b6000546001600160a01b031633148015906103ca57503360009081526002602052604090205460ff16155b156103e857604051634755657960e01b815260040160405180910390fd5b6001600160a01b03811660008181526004602052604090819020805460ff1916905551600080516020610a1583398151915290610394906020808252600b908201526a30b3b2b73a2932b0b232b960a91b604082015260600190565b6000546001600160a01b0316331461046f57604051634755657960e01b815260040160405180910390fd5b6001600160a01b03811660008181526002602052604090819020805460ff1916905551600080516020610a1583398151915290610394906020808252600a908201526930b3b2b73a20b236b4b760b11b604082015260600190565b6000546001600160a01b031633146104f557604051634755657960e01b815260040160405180910390fd5b6001600160a01b03811660008181526003602052604090819020805460ff19166001179055516000805160206109f583398151915290610394906020808252600b908201526a343ab6b0b72bb934ba32b960a91b604082015260600190565b6000546001600160a01b0316331461057f57604051634755657960e01b815260040160405180910390fd5b6001600160a01b0381166105a657604051630df7191f60e11b815260040160405180910390fd5b600080546040516001600160a01b03808516939216917f7e644d79422f17c01e4894b5f4f588d331ebfa28653d42ae832dc59e38c9798f91a3600080546001600160a01b0319166001600160a01b0392909216919091179055565b6000546001600160a01b0316331480159061062c57503360009081526002602052604090205460ff16155b1561064a57604051634755657960e01b815260040160405180910390fd5b6001600160a01b038116600081815260016020819052604091829020805460ff19169091179055516000805160206109f583398151915290610394906020808252600b908201526a30b3b2b73a2bb934ba32b960a91b604082015260600190565b6000546001600160a01b031633148015906106d657503360009081526002602052604090205460ff16155b156106f457604051634755657960e01b815260040160405180910390fd5b6001600160a01b03811660008181526005602052604090819020805460ff19166001179055516000805160206109f5833981519152906103949060208082526015908201527430b3b2b73a2a37b5b2b72234b9ba3934b13aba37b960591b604082015260600190565b6000546001600160a01b0316331480159061078857503360009081526002602052604090205460ff16155b156107a657604051634755657960e01b815260040160405180910390fd5b6001600160a01b03811660008181526005602052604090819020805460ff1916905551600080516020610a15833981519152906103949060208082526015908201527430b3b2b73a2a37b5b2b72234b9ba3934b13aba37b960591b604082015260600190565b6000546001600160a01b0316331461083757604051634755657960e01b815260040160405180910390fd5b6001600160a01b03811660008181526002602052604090819020805460ff19166001179055516000805160206109f583398151915290610394906020808252600a908201526930b3b2b73a20b236b4b760b11b604082015260600190565b6000546001600160a01b031633148015906108c057503360009081526002602052604090205460ff16155b156108de57604051634755657960e01b815260040160405180910390fd5b6001600160a01b03811660008181526004602052604090819020805460ff19166001179055516000805160206109f583398151915290610394906020808252600b908201526a30b3b2b73a2932b0b232b960a91b604082015260600190565b6000546001600160a01b0316331461096857604051634755657960e01b815260040160405180910390fd5b6001600160a01b03811660008181526003602052604090819020805460ff1916905551600080516020610a1583398151915290610394906020808252600b908201526a343ab6b0b72bb934ba32b960a91b604082015260600190565b6000602082840312156109d657600080fd5b81356001600160a01b03811681146109ed57600080fd5b939250505056feb710f7d3e79cb091613cfea70444ea824ad23f2b1297bdea427bc6f097e346a89f43a01c0d4ff5aff09b3b9b472df707ceefd3f948f8942f10fa1562a8921304a2646970667358221220f72087708dbab7297a60e499655845ad6a9880406ee3ee8d39a372da0639859f64736f6c634300081a0033b710f7d3e79cb091613cfea70444ea824ad23f2b1297bdea427bc6f097e346a86080604052348015600f57600080fd5b50603f80601d6000396000f3fe6080604052600080fdfea26469706673582212203ded3a44f723dffa8fa6f93fd3f7090998f050625951348ef7acbdf93dd0ace464736f6c634300081a0033608060405234801561001057600080fd5b506040516102fa3803806102fa83398101604081905261002f916100f5565b8051610042906000906020840190610049565b50506101c4565b82805482825590600052602060002090810192821561009e579160200282015b8281111561009e57825182546001600160a01b0319166001600160a01b03909116178255602090920191600190910190610069565b506100aa9291506100ae565b5090565b5b808211156100aa57600081556001016100af565b634e487b7160e01b600052604160045260246000fd5b80516001600160a01b03811681146100f057600080fd5b919050565b60006020828403121561010757600080fd5b81516001600160401b0381111561011d57600080fd5b8201601f8101841361012e57600080fd5b80516001600160401b03811115610147576101476100c3565b604051600582901b90603f8201601f191681016001600160401b0381118282101715610175576101756100c3565b60405291825260208184018101929081018784111561019357600080fd5b6020850194505b838510156101b9576101ab856100d9565b81526020948501940161019a565b509695505050505050565b610127806101d36000396000f3fe6080604052348015600f57600080fd5b506004361060285760003560e01c80637fa144a214602d575b600080fd5b60336047565b604051603e919060a7565b60405180910390f35b60606000805480602002602001604051908101604052809291908181526020018280548015609d57602002820191906000526020600020905b81546001600160a01b031681526001909101906020018083116080575b5050505050905090565b602080825282518282018190526000918401906040840190835b8181101560e65783516001600160a01b031683526020938401939092019160010160c1565b50909594505050505056fea2646970667358221220f5f01b98eb550e713aebd9648064e807184c2ae78664ad1b352af73bb8a4acdc64736f6c634300081a003360a060405234801561001057600080fd5b50604051610d0a380380610d0a83398101604081905261002f91610131565b8383600361003d838261024b565b50600461004a828261024b565b505050608052600580546001600160a01b0319166001600160a01b0392909216919091179055506103099050565b634e487b7160e01b600052604160045260246000fd5b600082601f83011261009f57600080fd5b81516001600160401b038111156100b8576100b8610078565b604051601f8201601f19908116603f011681016001600160401b03811182821017156100e6576100e6610078565b6040528181528382016020018510156100fe57600080fd5b60005b8281101561011d57602081860181015183830182015201610101565b506000918101602001919091529392505050565b6000806000806080858703121561014757600080fd5b84516001600160401b0381111561015d57600080fd5b6101698782880161008e565b602087015190955090506001600160401b0381111561018757600080fd5b6101938782880161008e565b604087015190945090506001600160a01b03811681146101b257600080fd5b6060959095015193969295505050565b600181811c908216806101d657607f821691505b6020821081036101f657634e487b7160e01b600052602260045260246000fd5b50919050565b601f82111561024657806000526020600020601f840160051c810160208510156102235750805b601f840160051c820191505b81811015610243576000815560010161022f565b50505b505050565b81516001600160401b0381111561026457610264610078565b6102788161027284546101c2565b846101fc565b6020601f8211600181146102ac57600083156102945750848201515b600019600385901b1c1916600184901b178455610243565b600084815260208120601f198516915b828110156102dc57878501518255602094850194600190920191016102bc565b50848210156102fa5786840151600019600387901b60f8161c191681555b50505050600190811b01905550565b6080516109df61032b600039600081816101b7015261040301526109df6000f3fe608060405234801561001057600080fd5b50600436106100cf5760003560e01c806370a082311161008c57806395d89b411161006657806395d89b41146101d9578063a2309ff8146101e1578063a9059cbb146101ea578063dd62ed3e146101fd57600080fd5b806370a082311461015e578063748365ef146101875780637824407f146101b257600080fd5b806306fdde03146100d4578063095ea7b3146100f257806316c89e0b1461011557806318160ddd1461012a57806323b872dd1461013c578063313ce5671461014f575b600080fd5b6100dc610236565b6040516100e991906107df565b60405180910390f35b610105610100366004610845565b6102c8565b60405190151581526020016100e9565b610128610123366004610845565b6102e2565b005b6002545b6040519081526020016100e9565b61010561014a366004610871565b610475565b604051601281526020016100e9565b61012e61016c3660046108b2565b6001600160a01b031660009081526020819052604090205490565b60055461019a906001600160a01b031681565b6040516001600160a01b0390911681526020016100e9565b61012e7f000000000000000000000000000000000000000000000000000000000000000081565b6100dc610499565b61012e60065481565b6101056101f8366004610845565b6104a8565b61012e61020b3660046108d6565b6001600160a01b03918216600090815260016020908152604080832093909416825291909152205490565b6060600380546102459061090f565b80601f01602080910402602001604051908101604052809291908181526020018280546102719061090f565b80156102be5780601f10610293576101008083540402835291602001916102be565b820191906000526020600020905b8154815290600101906020018083116102a157829003601f168201915b5050505050905090565b6000336102d68185856104b6565b60019150505b92915050565b600560009054906101000a90046001600160a01b03166001600160a01b0316636e9960c36040518163ffffffff1660e01b8152600401602060405180830381865afa158015610335573d6000803e3d6000fd5b505050506040513d601f19601f820116820180604052508101906103599190610949565b6001600160a01b0316336001600160a01b0316141580156103e3575060055460405163a59ce4df60e01b81523360048201526001600160a01b039091169063a59ce4df90602401602060405180830381865afa1580156103bd573d6000803e3d6000fd5b505050506040513d601f19601f820116820180604052508101906103e19190610966565b155b1561040157604051632b1759b360e21b815260040160405180910390fd5b7f0000000000000000000000000000000000000000000000000000000000000000816006546104309190610988565b111561044f5760405163177e3fc360e01b815260040160405180910390fd5b80600660008282546104619190610988565b90915550610471905082826104c8565b5050565b600033610483858285610503565b61048e858585610581565b506001949350505050565b6060600480546102459061090f565b6000336102d6818585610581565b6104c383838360016105e0565b505050565b6001600160a01b0382166104f75760405163ec442f0560e01b8152600060048201526024015b60405180910390fd5b610471600083836106b5565b6001600160a01b03838116600090815260016020908152604080832093861683529290522054600019811461057b578181101561056c57604051637dc7a0d960e11b81526001600160a01b038416600482015260248101829052604481018390526064016104ee565b61057b848484840360006105e0565b50505050565b6001600160a01b0383166105ab57604051634b637e8f60e11b8152600060048201526024016104ee565b6001600160a01b0382166105d55760405163ec442f0560e01b8152600060048201526024016104ee565b6104c38383836106b5565b6001600160a01b03841661060a5760405163e602df0560e01b8152600060048201526024016104ee565b6001600160a01b03831661063457604051634a1406b160e11b8152600060048201526024016104ee565b6001600160a01b038085166000908152600160209081526040808320938716835292905220829055801561057b57826001600160a01b0316846001600160a01b03167f8c5be1e5ebec7d5bd14f71427d1e84f3dd0314c0f7b2291e5b200ac8c7c3b925846040516106a791815260200190565b60405180910390a350505050565b6001600160a01b0383166106e05780600260008282546106d59190610988565b909155506107529050565b6001600160a01b038316600090815260208190526040902054818110156107335760405163391434e360e21b81526001600160a01b038516600482015260248101829052604481018390526064016104ee565b6001600160a01b03841660009081526020819052604090209082900390555b6001600160a01b03821661076e5760028054829003905561078d565b6001600160a01b03821660009081526020819052604090208054820190555b816001600160a01b0316836001600160a01b03167fddf252ad1be2c89b69c2b068fc378daa952ba7f163c4a11628f55a4df523b3ef836040516107d291815260200190565b60405180910390a3505050565b602081526000825180602084015260005b8181101561080d57602081860181015160408684010152016107f0565b506000604082850101526040601f19601f83011684010191505092915050565b6001600160a01b038116811461084257600080fd5b50565b6000806040838503121561085857600080fd5b82356108638161082d565b946020939093013593505050565b60008060006060848603121561088657600080fd5b83356108918161082d565b925060208401356108a18161082d565b929592945050506040919091013590565b6000602082840312156108c457600080fd5b81356108cf8161082d565b9392505050565b600080604083850312156108e957600080fd5b82356108f48161082d565b915060208301356109048161082d565b809150509250929050565b600181811c9082168061092357607f821691505b60208210810361094357634e487b7160e01b600052602260045260246000fd5b50919050565b60006020828403121561095b57600080fd5b81516108cf8161082d565b60006020828403121561097857600080fd5b815180151581146108cf57600080fd5b808201808211156102dc57634e487b7160e01b600052601160045260246000fdfea2646970667358221220b9e866b92f0ef0ffd9c237286480dcd5539a954afa8b910e123d082292be5ce464736f6c634300081a0033a26469706673582212207eeafd48cfd03be843851d1765e1527f9f7fd74c50c2058bbf83bdedbb119cb064736f6c634300081a0033","linkReferences":{}},"methodIdentifiers":{"deployFromFactory(address[],address[],address[],address[],string,string,uint256)":"5b3bb680"},"id":9}