{"abi":[{"type":"constructor","inputs":[{"name":"accessControl","type":"address","internalType":"address"},{"name":"fhe","type":"address","internalType":"address"},{"name":"data","type":"address","internalType":"address"},{"name":"token","type":"address","internalType":"address"}],"stateMutability":"nonpayable"},{"type":"function","name":"accessControlImplementation","inputs":[],"outputs":[{"name":"","type":"address","internalType":"address"}],"stateMutability":"view"},{"type":"function","name":"dataImplementation","inputs":[],"outputs":[{"name":"","type":"address","internalType":"address"}],"stateMutability":"view"},{"type":"function","name":"deployFromFactory","inputs":[{"name":"agentWriters","type":"address[]","internalType":"address[]"},{"name":"agentReaders","type":"address[]","internalType":"address[]"},{"name":"agentAdmins","type":"address[]","internalType":"address[]"},{"name":"agentTokenDistributors","type":"address[]","internalType":"address[]"},{"name":"tokenName","type":"string","internalType":"string"},{"name":"tokenSymbol","type":"string","internalType":"string"},{"name":"tokenSupply","type":"uint256","internalType":"uint256"}],"outputs":[{"name":"","type":"address[4]","internalType":"address[4]"}],"stateMutability":"nonpayable"},{"type":"function","name":"fheImplementation","inputs":[],"outputs":[{"name":"","type":"address","internalType":"address"}],"stateMutability":"view"},{"type":"function","name":"tokenImplementation","inputs":[],"outputs":[{"name":"","type":"address","internalType":"address"}],"stateMutability":"view"},{"type":"event","name":"AgentMemeDeployed","inputs":[{"name":"admin","type":"address","indexed":true,"internalType":"address"},{"name":"accessControlAddress","type":"address","indexed":false,"internalType":"address"},{"name":"fhe","type":"address","indexed":false,"internalType":"address"},{"name":"data","type":"address","indexed":false,"internalType":"address"},{"name":"token","type":"address","indexed":false,"internalType":"address"}],"anonymous":false},{"type":"error","name":"FailedDeployment","inputs":[]},{"type":"error","name":"InsufficientBalance","inputs":[{"name":"balance","type":"uint256","internalType":"uint256"},{"name":"needed","type":"uint256","internalType":"uint256"}]}],"bytecode":{"object":"0x608060405234801561001057600080fd5b50604051610bea380380610bea83398101604081905261002f9161009e565b600080546001600160a01b039586166001600160a01b03199182161790915560018054948616948216949094179093556002805492851692841692909217909155600380549190931691161790556100f2565b80516001600160a01b038116811461009957600080fd5b919050565b600080600080608085870312156100b457600080fd5b6100bd85610082565b93506100cb60208601610082565b92506100d960408601610082565b91506100e760608601610082565b905092959194509250565b610ae9806101016000396000f3fe608060405234801561001057600080fd5b50600436106100575760003560e01c8063211341b21461005c5780632f3a3d5d1461008c578063353de2521461009f5780635b3bb680146100b2578063ef34fdcd146100d2575b600080fd5b60005461006f906001600160a01b031681565b6040516001600160a01b0390911681526020015b60405180910390f35b60035461006f906001600160a01b031681565b60015461006f906001600160a01b031681565b6100c56100c03660046107ac565b6100e5565b60405161008391906108d0565b60025461006f906001600160a01b031681565b6100ed61063f565b60008054610103906001600160a01b031661037e565b60015490915060009061011e906001600160a01b031661037e565b600254909150600090610139906001600160a01b031661037e565b600354909150600090610154906001600160a01b031661037e565b9050836001600160a01b031663a204526b338e8e8e8e6040518663ffffffff1660e01b815260040161018a95949392919061094f565b600060405180830381600087803b1580156101a457600080fd5b505af11580156101b8573d6000803e3d6000fd5b505060405163189acdbd60e31b81526001600160a01b0387811660048301528616925063c4d66de89150602401600060405180830381600087803b1580156101ff57600080fd5b505af1158015610213573d6000803e3d6000fd5b5050505060006102258d8d8d8d610391565b60405163a224cee760e01b81529091506001600160a01b0384169063a224cee7906102549084906004016109b9565b600060405180830381600087803b15801561026e57600080fd5b505af1158015610282573d6000803e3d6000fd5b505060405163f542033f60e01b81526001600160a01b038516925063f542033f91506102b8908c908c908a908d90600401610a19565b600060405180830381600087803b1580156102d257600080fd5b505af11580156102e6573d6000803e3d6000fd5b5050604080516001600160a01b0389811682528881166020830152878116828401528616606082015290513393507fd723aad731e650e77e18cd7d8b0624e6cefb6aca174ae9d8056eb2153e9920a992509081900360800190a250604080516080810182526001600160a01b039586168152938516602085015291841691830191909152909116606082015298975050505050505050565b600061038b8260006105a5565b92915050565b6060600082518451865188516103a79190610a71565b6103b19190610a71565b6103bb9190610a71565b905060008167ffffffffffffffff8111156103d8576103d861065d565b604051908082528060200260200182016040528015610401578160200160208202803683370190505b5090506000805b88518110156104695788818151811061042357610423610a84565b602002602001015183838061043790610a9a565b94508151811061044957610449610a84565b6001600160a01b0390921660209283029190910190910152600101610408565b5060005b87518110156104ce5787818151811061048857610488610a84565b602002602001015183838061049c90610a9a565b9450815181106104ae576104ae610a84565b6001600160a01b039092166020928302919091019091015260010161046d565b5060005b8651811015610533578681815181106104ed576104ed610a84565b602002602001015183838061050190610a9a565b94508151811061051357610513610a84565b6001600160a01b03909216602092830291909101909101526001016104d2565b5060005b85518110156105985785818151811061055257610552610a84565b602002602001015183838061056690610a9a565b94508151811061057857610578610a84565b6001600160a01b0390921660209283029190910190910152600101610537565b5090979650505050505050565b6000814710156105d55760405163cf47918160e01b81524760048201526024810183905260440160405180910390fd5b763d602d80600a3d3981f3363d3d373d3d3d363d730000008360601b60e81c176000526e5af43d82803e903d91602b57fd5bf38360781b176020526037600983f090506001600160a01b03811661038b5760405163b06ebf3d60e01b815260040160405180910390fd5b60405180608001604052806004906020820280368337509192915050565b634e487b7160e01b600052604160045260246000fd5b604051601f8201601f1916810167ffffffffffffffff8111828210171561069c5761069c61065d565b604052919050565b600082601f8301126106b557600080fd5b813567ffffffffffffffff8111156106cf576106cf61065d565b8060051b6106df60208201610673565b918252602081850181019290810190868411156106fb57600080fd5b6020860192505b838310156107325782356001600160a01b038116811461072157600080fd5b825260209283019290910190610702565b9695505050505050565b600082601f83011261074d57600080fd5b813567ffffffffffffffff8111156107675761076761065d565b61077a601f8201601f1916602001610673565b81815284602083860101111561078f57600080fd5b816020850160208301376000918101602001919091529392505050565b600080600080600080600060e0888a0312156107c757600080fd5b873567ffffffffffffffff8111156107de57600080fd5b6107ea8a828b016106a4565b975050602088013567ffffffffffffffff81111561080757600080fd5b6108138a828b016106a4565b965050604088013567ffffffffffffffff81111561083057600080fd5b61083c8a828b016106a4565b955050606088013567ffffffffffffffff81111561085957600080fd5b6108658a828b016106a4565b945050608088013567ffffffffffffffff81111561088257600080fd5b61088e8a828b0161073c565b93505060a088013567ffffffffffffffff8111156108ab57600080fd5b6108b78a828b0161073c565b979a969950949793969295929450505060c09091013590565b60808101818360005b60048110156109015781516001600160a01b03168352602092830192909101906001016108d9565b50505092915050565b600081518084526020840193506020830160005b828110156109455781516001600160a01b031686526020958601959091019060010161091e565b5093949350505050565b6001600160a01b038616815260a0602082018190526000906109739083018761090a565b8281036040840152610985818761090a565b90508281036060840152610999818661090a565b905082810360808401526109ad818561090a565b98975050505050505050565b6020815260006109cc602083018461090a565b9392505050565b6000815180845260005b818110156109f9576020818501810151868301820152016109dd565b506000602082860101526020601f19601f83011685010191505092915050565b608081526000610a2c60808301876109d3565b8281036020840152610a3e81876109d3565b6001600160a01b0395909516604084015250506060015292915050565b634e487b7160e01b600052601160045260246000fd5b8082018082111561038b5761038b610a5b565b634e487b7160e01b600052603260045260246000fd5b600060018201610aac57610aac610a5b565b506001019056fea26469706673582212209326edd5e138f032989352b65bb40979681d588287e23b1422bef81c595ce37c64736f6c634300081a0033","linkReferences":{}},"methodIdentifiers":{"accessControlImplementation()":"211341b2","dataImplementation()":"ef34fdcd","deployFromFactory(address[],address[],address[],address[],string,string,uint256)":"5b3bb680","fheImplementation()":"353de252","tokenImplementation()":"2f3a3d5d"},"id":12}