{"abi":[{"type":"function","name":"getAdmin","inputs":[],"outputs":[{"name":"","type":"address","internalType":"address"}],"stateMutability":"view"},{"type":"function","name":"getAgentWriter","inputs":[{"name":"writer","type":"address","internalType":"address"}],"outputs":[{"name":"","type":"bool","internalType":"bool"}],"stateMutability":"view"},{"type":"function","name":"getHumanWriter","inputs":[{"name":"writer","type":"address","internalType":"address"}],"outputs":[{"name":"","type":"bool","internalType":"bool"}],"stateMutability":"view"},{"type":"function","name":"initialize","inputs":[{"name":"nibbleFactoryAddress","type":"address","internalType":"address"},{"name":"admin","type":"address","internalType":"address"}],"outputs":[],"stateMutability":"nonpayable"},{"type":"event","name":"AdminChanged","inputs":[{"name":"oldAdmin","type":"address","indexed":true,"internalType":"address"},{"name":"newAdmin","type":"address","indexed":true,"internalType":"address"}],"anonymous":false},{"type":"event","name":"Initialized","inputs":[{"name":"version","type":"uint64","indexed":false,"internalType":"uint64"}],"anonymous":false},{"type":"event","name":"RoleGranted","inputs":[{"name":"agent","type":"address","indexed":true,"internalType":"address"},{"name":"role","type":"string","indexed":false,"internalType":"string"}],"anonymous":false},{"type":"event","name":"RoleRevoked","inputs":[{"name":"agent","type":"address","indexed":true,"internalType":"address"},{"name":"role","type":"string","indexed":false,"internalType":"string"}],"anonymous":false},{"type":"error","name":"InvalidInitialization","inputs":[]},{"type":"error","name":"InvalidInitializer","inputs":[]},{"type":"error","name":"NotInitializing","inputs":[]}],"bytecode":{"object":"0x6080604052348015600f57600080fd5b506102548061001f6000396000f3fe608060405234801561001057600080fd5b506004361061004c5760003560e01c8063485cc955146100515780636e9960c31461006657806379a8c0a614610086578063f328ac9f146100c2575b600080fd5b61006461005f3660046101c9565b6100ee565b005b6000546040516001600160a01b0390911681526020015b60405180910390f35b6100b26100943660046101fc565b6001600160a01b031660009081526002602052604090205460ff1690565b604051901515815260200161007d565b6100b26100d03660046101fc565b6001600160a01b031660009081526001602052604090205460ff1690565b81336001600160a01b038216146101185760405163adc06ae760e01b815260040160405180910390fd5b61012061015d565b50600080546001600160a01b039092166001600160a01b031990921682178155908152600160208190526040909120805460ff1916909117905550565b7ff0c57e16840df040f15088dc2f81fe391c3923bec73e23a9662efc9c229c6a005468010000000000000000900460ff166101ab57604051631afcd79f60e31b815260040160405180910390fd5b565b80356001600160a01b03811681146101c457600080fd5b919050565b600080604083850312156101dc57600080fd5b6101e5836101ad565b91506101f3602084016101ad565b90509250929050565b60006020828403121561020e57600080fd5b610217826101ad565b939250505056fea2646970667358221220414e4ed5a69e08b430c47bf8bc7cee66121f35c10737a38b6d15c37e34dc45e164736f6c634300081a0033","linkReferences":{}},"methodIdentifiers":{"getAdmin()":"6e9960c3","getAgentWriter(address)":"79a8c0a6","getHumanWriter(address)":"f328ac9f","initialize(address,address)":"485cc955"},"id":32}