{"abi":[{"type":"function","name":"addOrModifyListenersBatch","inputs":[{"name":"listeners","type":"tuple[]","internalType":"struct NibbleLibrary.Listener[]","components":[{"name":"id","type":"bytes","internalType":"bytes"},{"name":"metadata","type":"string","internalType":"string"},{"name":"encrypted","type":"bool","internalType":"bool"}]}],"outputs":[],"stateMutability":"nonpayable"},{"type":"function","name":"getListenerIsEncrypted","inputs":[{"name":"listenerId","type":"bytes","internalType":"bytes"}],"outputs":[{"name":"","type":"bool","internalType":"bool"}],"stateMutability":"view"},{"type":"function","name":"getListenerMetadata","inputs":[{"name":"listenerId","type":"bytes","internalType":"bytes"}],"outputs":[{"name":"","type":"string","internalType":"string"}],"stateMutability":"view"},{"type":"function","name":"initialize","inputs":[{"name":"nibbleFactoryAddress","type":"address","internalType":"address"},{"name":"nibbleAccessControlsAddress","type":"address","internalType":"address"},{"name":"nibbleStorageAddress","type":"address","internalType":"address"}],"outputs":[],"stateMutability":"nonpayable"},{"type":"function","name":"nibbleAccessControls","inputs":[],"outputs":[{"name":"","type":"address","internalType":"contract NibbleAccessControls"}],"stateMutability":"view"},{"type":"function","name":"nibbleStorage","inputs":[],"outputs":[{"name":"","type":"address","internalType":"address"}],"stateMutability":"view"},{"type":"function","name":"removeListenersBatch","inputs":[{"name":"listenerIds","type":"bytes[]","internalType":"bytes[]"}],"outputs":[],"stateMutability":"nonpayable"},{"type":"event","name":"Initialized","inputs":[{"name":"version","type":"uint64","indexed":false,"internalType":"uint64"}],"anonymous":false},{"type":"event","name":"ListenersModified","inputs":[{"name":"listenerId","type":"bytes[]","indexed":false,"internalType":"bytes[]"},{"name":"metadata","type":"string[]","indexed":false,"internalType":"string[]"},{"name":"encrypted","type":"bool[]","indexed":false,"internalType":"bool[]"},{"name":"newListener","type":"bool[]","indexed":false,"internalType":"bool[]"}],"anonymous":false},{"type":"event","name":"ListenersRemoved","inputs":[{"name":"listenerId","type":"bytes[]","indexed":false,"internalType":"bytes[]"}],"anonymous":false},{"type":"error","name":"AlreadyInitialized","inputs":[]},{"type":"error","name":"InvalidInitialization","inputs":[]},{"type":"error","name":"InvalidInitializer","inputs":[]},{"type":"error","name":"InvalidRole","inputs":[]},{"type":"error","name":"NotInitializing","inputs":[]}],"bytecode":{"object":"0x6080604052348015600f57600080fd5b506110d78061001f6000396000f3fe608060405234801561001057600080fd5b506004361061007d5760003560e01c8063ad4bbc8b1161005b578063ad4bbc8b146100eb578063c0c53b8b1461010e578063f7d9096b14610121578063f8d0e2961461013457600080fd5b806301e5589814610082578063761d64fe146100975780639c081d2c146100c0575b600080fd5b610095610090366004610abb565b610147565b005b6100aa6100a5366004610b75565b610309565b6040516100b79190610c01565b60405180910390f35b6000546100d3906001600160a01b031681565b6040516001600160a01b0390911681526020016100b7565b6100fe6100f9366004610b75565b6103bc565b60405190151581526020016100b7565b61009561011c366004610c30565b6103ea565b61009561012f366004610c81565b61046d565b6001546100d3906001600160a01b031681565b600054604051633cd4605360e11b81523360048201526001600160a01b03909116906379a8c0a690602401602060405180830381865afa15801561018f573d6000803e3d6000fd5b505050506040513d601f19601f820116820180604052508101906101b39190610dbf565b1580610228575060005460405163f328ac9f60e01b81523360048201526001600160a01b039091169063f328ac9f90602401602060405180830381865afa158015610202573d6000803e3d6000fd5b505050506040513d601f19601f820116820180604052508101906102269190610dbf565b155b8061023e57506001546001600160a01b03163314155b1561025c57604051636caa20b560e11b815260040160405180910390fd5b60005b81518110156102ce57600282828151811061027c5761027c610ddc565b60200260200101516040516102919190610df2565b90815260405190819003602001902060006102ac8282610952565b6102ba600183016000610952565b50600201805460ff1916905560010161025f565b507f953f5d1df219fbd789d7ac05526245abbfa3b088859c629c150137d39b6bca0b816040516102fe9190610e6a565b60405180910390a150565b606060028260405161031b9190610df2565b9081526020016040518091039020600101805461033790610e7d565b80601f016020809104026020016040519081016040528092919081815260200182805461036390610e7d565b80156103b05780601f10610385576101008083540402835291602001916103b0565b820191906000526020600020905b81548152906001019060200180831161039357829003601f168201915b50505050509050919050565b60006002826040516103ce9190610df2565b9081526040519081900360200190206002015460ff1692915050565b82336001600160a01b038216146104145760405163adc06ae760e01b815260040160405180910390fd5b6000546001600160a01b03161561043d5760405162dc149f60e41b815260040160405180910390fd5b50600080546001600160a01b039384166001600160a01b0319918216179091556001805492909316911617905550565b600054604051633cd4605360e11b81523360048201526001600160a01b03909116906379a8c0a690602401602060405180830381865afa1580156104b5573d6000803e3d6000fd5b505050506040513d601f19601f820116820180604052508101906104d99190610dbf565b158061054e575060005460405163f328ac9f60e01b81523360048201526001600160a01b039091169063f328ac9f90602401602060405180830381865afa158015610528573d6000803e3d6000fd5b505050506040513d601f19601f8201168201806040525081019061054c9190610dbf565b155b8061056457506001546001600160a01b03163314155b1561058257604051636caa20b560e11b815260040160405180910390fd5b600081516001600160401b0381111561059d5761059d6109a8565b6040519080825280602002602001820160405280156105c6578160200160208202803683370190505b509050600082516001600160401b038111156105e4576105e46109a8565b60405190808252806020026020018201604052801561060d578160200160208202803683370190505b509050600083516001600160401b0381111561062b5761062b6109a8565b60405190808252806020026020018201604052801561065e57816020015b60608152602001906001900390816106495790505b509050600084516001600160401b0381111561067c5761067c6109a8565b6040519080825280602002602001820160405280156106af57816020015b606081526020019060019003908161069a5790505b50905060005b855181101561090d5760028682815181106106d2576106d2610ddc565b6020026020010151600001516040516106eb9190610df2565b908152604051908190036020019020805461070590610e7d565b905060000361073757600185828151811061072257610722610ddc565b9115156020928302919091019091015261075c565b600085828151811061074b5761074b610ddc565b911515602092830291909101909101525b604051806060016040528087838151811061077957610779610ddc565b602002602001015160000151815260200187838151811061079c5761079c610ddc565b60200260200101516020015181526020018783815181106107bf576107bf610ddc565b602002602001015160400151151581525060028783815181106107e4576107e4610ddc565b6020026020010151600001516040516107fd9190610df2565b9081526040519081900360200190208151819061081a9082610f06565b506020820151600182019061082f9082610f06565b50604091909101516002909101805460ff1916911515919091179055855186908290811061085f5761085f610ddc565b60200260200101516040015184828151811061087d5761087d610ddc565b6020026020010190151590811515815250508581815181106108a1576108a1610ddc565b6020026020010151602001518382815181106108bf576108bf610ddc565b60200260200101819052508581815181106108dc576108dc610ddc565b6020026020010151600001518282815181106108fa576108fa610ddc565b60209081029190910101526001016106b5565b507fd977c0f1b8e1b7c3b41fc816ac42811530625c1f9f86214d0377c2e905eccae9818385876040516109439493929190611002565b60405180910390a15050505050565b50805461095e90610e7d565b6000825580601f1061096e575050565b601f01602090049060005260206000209081019061098c919061098f565b50565b5b808211156109a45760008155600101610990565b5090565b634e487b7160e01b600052604160045260246000fd5b604051606081016001600160401b03811182821017156109e0576109e06109a8565b60405290565b604051601f8201601f191681016001600160401b0381118282101715610a0e57610a0e6109a8565b604052919050565b60006001600160401b03821115610a2f57610a2f6109a8565b5060051b60200190565b6000806001600160401b03841115610a5357610a536109a8565b50601f8301601f1916602001610a68816109e6565b915050828152838383011115610a7d57600080fd5b828260208301376000602084830101529392505050565b600082601f830112610aa557600080fd5b610ab483833560208501610a39565b9392505050565b600060208284031215610acd57600080fd5b81356001600160401b03811115610ae357600080fd5b8201601f81018413610af457600080fd5b8035610b07610b0282610a16565b6109e6565b8082825260208201915060208360051b850101925086831115610b2957600080fd5b602084015b83811015610b6a5780356001600160401b03811115610b4c57600080fd5b610b5b89602083890101610a94565b84525060209283019201610b2e565b509695505050505050565b600060208284031215610b8757600080fd5b81356001600160401b03811115610b9d57600080fd5b610ba984828501610a94565b949350505050565b60005b83811015610bcc578181015183820152602001610bb4565b50506000910152565b60008151808452610bed816020860160208601610bb1565b601f01601f19169290920160200192915050565b602081526000610ab46020830184610bd5565b80356001600160a01b0381168114610c2b57600080fd5b919050565b600080600060608486031215610c4557600080fd5b610c4e84610c14565b9250610c5c60208501610c14565b9150610c6a60408501610c14565b90509250925092565b801515811461098c57600080fd5b600060208284031215610c9357600080fd5b81356001600160401b03811115610ca957600080fd5b8201601f81018413610cba57600080fd5b8035610cc8610b0282610a16565b8082825260208201915060208360051b850101925086831115610cea57600080fd5b602084015b83811015610b6a5780356001600160401b03811115610d0d57600080fd5b85016060818a03601f19011215610d2357600080fd5b610d2b6109be565b60208201356001600160401b03811115610d4457600080fd5b610d538b602083860101610a94565b82525060408201356001600160401b03811115610d6f57600080fd5b82016020810190603f018b13610d8457600080fd5b610d938b823560208401610a39565b60208301525060608201359150610da982610c73565b6040810191909152835260209283019201610cef565b600060208284031215610dd157600080fd5b8151610ab481610c73565b634e487b7160e01b600052603260045260246000fd5b60008251610e04818460208701610bb1565b9190910192915050565b600082825180855260208501945060208160051b8301016020850160005b83811015610e5e57601f19858403018852610e48838351610bd5565b6020988901989093509190910190600101610e2c565b50909695505050505050565b602081526000610ab46020830184610e0e565b600181811c90821680610e9157607f821691505b602082108103610eb157634e487b7160e01b600052602260045260246000fd5b50919050565b601f821115610f0157806000526020600020601f840160051c81016020851015610ede5750805b601f840160051c820191505b81811015610efe5760008155600101610eea565b50505b505050565b81516001600160401b03811115610f1f57610f1f6109a8565b610f3381610f2d8454610e7d565b84610eb7565b6020601f821160018114610f675760008315610f4f5750848201515b600019600385901b1c1916600184901b178455610efe565b600084815260208120601f198516915b82811015610f975787850151825560209485019460019092019101610f77565b5084821015610fb55786840151600019600387901b60f8161c191681555b50505050600190811b01905550565b600081518084526020840193506020830160005b82811015610ff85781511515865260209586019590910190600101610fd8565b5093949350505050565b6080815260006110156080830187610e0e565b828103602084015280865180835260208301915060208160051b8401016020890160005b8381101561106b57601f19868403018552611055838351610bd5565b6020958601959093509190910190600101611039565b5050858103604087015261107f8189610fc4565b935050505082810360608401526110968185610fc4565b97965050505050505056fea2646970667358221220d6ac3ac6ef443befa5dfc3c57c2483f8725dd58cf2aceb77b35df738f50f6f9864736f6c634300081a0033","linkReferences":{}},"methodIdentifiers":{"addOrModifyListenersBatch((bytes,string,bool)[])":"f7d9096b","getListenerIsEncrypted(bytes)":"ad4bbc8b","getListenerMetadata(bytes)":"761d64fe","initialize(address,address,address)":"c0c53b8b","nibbleAccessControls()":"9c081d2c","nibbleStorage()":"f8d0e296","removeListenersBatch(bytes[])":"01e55898"},"id":34}