{"abi":[{"type":"function","name":"addOrModifyListenersBatch","inputs":[{"name":"listeners","type":"tuple[]","internalType":"struct NibbleLibrary.Listener[]","components":[{"name":"id","type":"bytes","internalType":"bytes"},{"name":"metadata","type":"string","internalType":"string"},{"name":"encrypted","type":"bool","internalType":"bool"}]}],"outputs":[],"stateMutability":"nonpayable"},{"type":"function","name":"getListenerIsEncrypted","inputs":[{"name":"listenerId","type":"bytes","internalType":"bytes"}],"outputs":[{"name":"","type":"bool","internalType":"bool"}],"stateMutability":"view"},{"type":"function","name":"getListenerMetadata","inputs":[{"name":"listenerId","type":"bytes","internalType":"bytes"}],"outputs":[{"name":"","type":"string","internalType":"string"}],"stateMutability":"view"},{"type":"function","name":"initialize","inputs":[{"name":"nibbleFactoryAddress","type":"address","internalType":"address"},{"name":"nibbleAccessControlsAddress","type":"address","internalType":"address"},{"name":"nibbleStorageAddress","type":"address","internalType":"address"}],"outputs":[],"stateMutability":"nonpayable"},{"type":"function","name":"nibbleAccessControls","inputs":[],"outputs":[{"name":"","type":"address","internalType":"contract NibbleAccessControls"}],"stateMutability":"view"},{"type":"function","name":"nibbleStorage","inputs":[],"outputs":[{"name":"","type":"address","internalType":"address"}],"stateMutability":"view"},{"type":"function","name":"removeListenersBatch","inputs":[{"name":"listenerIds","type":"bytes[]","internalType":"bytes[]"}],"outputs":[],"stateMutability":"nonpayable"},{"type":"event","name":"Initialized","inputs":[{"name":"version","type":"uint64","indexed":false,"internalType":"uint64"}],"anonymous":false},{"type":"event","name":"ListenersModified","inputs":[{"name":"listenerId","type":"bytes[]","indexed":false,"internalType":"bytes[]"},{"name":"metadata","type":"string[]","indexed":false,"internalType":"string[]"},{"name":"encrypted","type":"bool[]","indexed":false,"internalType":"bool[]"},{"name":"newListener","type":"bool[]","indexed":false,"internalType":"bool[]"}],"anonymous":false},{"type":"event","name":"ListenersRemoved","inputs":[{"name":"listenerId","type":"bytes[]","indexed":false,"internalType":"bytes[]"}],"anonymous":false},{"type":"error","name":"InvalidInitialization","inputs":[]},{"type":"error","name":"InvalidInitializer","inputs":[]},{"type":"error","name":"InvalidRole","inputs":[]},{"type":"error","name":"NotInitializing","inputs":[]}],"bytecode":{"object":"0x6080604052348015600f57600080fd5b506111068061001f6000396000f3fe608060405234801561001057600080fd5b506004361061007d5760003560e01c8063ad4bbc8b1161005b578063ad4bbc8b146100eb578063c0c53b8b1461010e578063f7d9096b14610121578063f8d0e2961461013457600080fd5b806301e5589814610082578063761d64fe146100975780639c081d2c146100c0575b600080fd5b610095610090366004610aea565b610147565b005b6100aa6100a5366004610ba4565b610309565b6040516100b79190610c30565b60405180910390f35b6000546100d3906001600160a01b031681565b6040516001600160a01b0390911681526020016100b7565b6100fe6100f9366004610ba4565b6103bc565b60405190151581526020016100b7565b61009561011c366004610c5f565b6103ea565b61009561012f366004610cb0565b61044c565b6001546100d3906001600160a01b031681565b600054604051633cd4605360e11b81523360048201526001600160a01b03909116906379a8c0a690602401602060405180830381865afa15801561018f573d6000803e3d6000fd5b505050506040513d601f19601f820116820180604052508101906101b39190610dee565b1580610228575060005460405163f328ac9f60e01b81523360048201526001600160a01b039091169063f328ac9f90602401602060405180830381865afa158015610202573d6000803e3d6000fd5b505050506040513d601f19601f820116820180604052508101906102269190610dee565b155b8061023e57506001546001600160a01b03163314155b1561025c57604051636caa20b560e11b815260040160405180910390fd5b60005b81518110156102ce57600282828151811061027c5761027c610e0b565b60200260200101516040516102919190610e21565b90815260405190819003602001902060006102ac8282610981565b6102ba600183016000610981565b50600201805460ff1916905560010161025f565b507f953f5d1df219fbd789d7ac05526245abbfa3b088859c629c150137d39b6bca0b816040516102fe9190610e99565b60405180910390a150565b606060028260405161031b9190610e21565b9081526020016040518091039020600101805461033790610eac565b80601f016020809104026020016040519081016040528092919081815260200182805461036390610eac565b80156103b05780601f10610385576101008083540402835291602001916103b0565b820191906000526020600020905b81548152906001019060200180831161039357829003601f168201915b50505050509050919050565b60006002826040516103ce9190610e21565b9081526040519081900360200190206002015460ff1692915050565b82336001600160a01b038216146104145760405163adc06ae760e01b815260040160405180910390fd5b61041c610931565b50600080546001600160a01b039384166001600160a01b0319918216179091556001805492909316911617905550565b600054604051633cd4605360e11b81523360048201526001600160a01b03909116906379a8c0a690602401602060405180830381865afa158015610494573d6000803e3d6000fd5b505050506040513d601f19601f820116820180604052508101906104b89190610dee565b158061052d575060005460405163f328ac9f60e01b81523360048201526001600160a01b039091169063f328ac9f90602401602060405180830381865afa158015610507573d6000803e3d6000fd5b505050506040513d601f19601f8201168201806040525081019061052b9190610dee565b155b8061054357506001546001600160a01b03163314155b1561056157604051636caa20b560e11b815260040160405180910390fd5b600081516001600160401b0381111561057c5761057c6109d7565b6040519080825280602002602001820160405280156105a5578160200160208202803683370190505b509050600082516001600160401b038111156105c3576105c36109d7565b6040519080825280602002602001820160405280156105ec578160200160208202803683370190505b509050600083516001600160401b0381111561060a5761060a6109d7565b60405190808252806020026020018201604052801561063d57816020015b60608152602001906001900390816106285790505b509050600084516001600160401b0381111561065b5761065b6109d7565b60405190808252806020026020018201604052801561068e57816020015b60608152602001906001900390816106795790505b50905060005b85518110156108ec5760028682815181106106b1576106b1610e0b565b6020026020010151600001516040516106ca9190610e21565b90815260405190819003602001902080546106e490610eac565b905060000361071657600185828151811061070157610701610e0b565b9115156020928302919091019091015261073b565b600085828151811061072a5761072a610e0b565b911515602092830291909101909101525b604051806060016040528087838151811061075857610758610e0b565b602002602001015160000151815260200187838151811061077b5761077b610e0b565b602002602001015160200151815260200187838151811061079e5761079e610e0b565b602002602001015160400151151581525060028783815181106107c3576107c3610e0b565b6020026020010151600001516040516107dc9190610e21565b908152604051908190036020019020815181906107f99082610f35565b506020820151600182019061080e9082610f35565b50604091909101516002909101805460ff1916911515919091179055855186908290811061083e5761083e610e0b565b60200260200101516040015184828151811061085c5761085c610e0b565b60200260200101901515908115158152505085818151811061088057610880610e0b565b60200260200101516020015183828151811061089e5761089e610e0b565b60200260200101819052508581815181106108bb576108bb610e0b565b6020026020010151600001518282815181106108d9576108d9610e0b565b6020908102919091010152600101610694565b507fd977c0f1b8e1b7c3b41fc816ac42811530625c1f9f86214d0377c2e905eccae9818385876040516109229493929190611031565b60405180910390a15050505050565b7ff0c57e16840df040f15088dc2f81fe391c3923bec73e23a9662efc9c229c6a005468010000000000000000900460ff1661097f57604051631afcd79f60e31b815260040160405180910390fd5b565b50805461098d90610eac565b6000825580601f1061099d575050565b601f0160209004906000526020600020908101906109bb91906109be565b50565b5b808211156109d357600081556001016109bf565b5090565b634e487b7160e01b600052604160045260246000fd5b604051606081016001600160401b0381118282101715610a0f57610a0f6109d7565b60405290565b604051601f8201601f191681016001600160401b0381118282101715610a3d57610a3d6109d7565b604052919050565b60006001600160401b03821115610a5e57610a5e6109d7565b5060051b60200190565b6000806001600160401b03841115610a8257610a826109d7565b50601f8301601f1916602001610a9781610a15565b915050828152838383011115610aac57600080fd5b828260208301376000602084830101529392505050565b600082601f830112610ad457600080fd5b610ae383833560208501610a68565b9392505050565b600060208284031215610afc57600080fd5b81356001600160401b03811115610b1257600080fd5b8201601f81018413610b2357600080fd5b8035610b36610b3182610a45565b610a15565b8082825260208201915060208360051b850101925086831115610b5857600080fd5b602084015b83811015610b995780356001600160401b03811115610b7b57600080fd5b610b8a89602083890101610ac3565b84525060209283019201610b5d565b509695505050505050565b600060208284031215610bb657600080fd5b81356001600160401b03811115610bcc57600080fd5b610bd884828501610ac3565b949350505050565b60005b83811015610bfb578181015183820152602001610be3565b50506000910152565b60008151808452610c1c816020860160208601610be0565b601f01601f19169290920160200192915050565b602081526000610ae36020830184610c04565b80356001600160a01b0381168114610c5a57600080fd5b919050565b600080600060608486031215610c7457600080fd5b610c7d84610c43565b9250610c8b60208501610c43565b9150610c9960408501610c43565b90509250925092565b80151581146109bb57600080fd5b600060208284031215610cc257600080fd5b81356001600160401b03811115610cd857600080fd5b8201601f81018413610ce957600080fd5b8035610cf7610b3182610a45565b8082825260208201915060208360051b850101925086831115610d1957600080fd5b602084015b83811015610b995780356001600160401b03811115610d3c57600080fd5b85016060818a03601f19011215610d5257600080fd5b610d5a6109ed565b60208201356001600160401b03811115610d7357600080fd5b610d828b602083860101610ac3565b82525060408201356001600160401b03811115610d9e57600080fd5b82016020810190603f018b13610db357600080fd5b610dc28b823560208401610a68565b60208301525060608201359150610dd882610ca2565b6040810191909152835260209283019201610d1e565b600060208284031215610e0057600080fd5b8151610ae381610ca2565b634e487b7160e01b600052603260045260246000fd5b60008251610e33818460208701610be0565b9190910192915050565b600082825180855260208501945060208160051b8301016020850160005b83811015610e8d57601f19858403018852610e77838351610c04565b6020988901989093509190910190600101610e5b565b50909695505050505050565b602081526000610ae36020830184610e3d565b600181811c90821680610ec057607f821691505b602082108103610ee057634e487b7160e01b600052602260045260246000fd5b50919050565b601f821115610f3057806000526020600020601f840160051c81016020851015610f0d5750805b601f840160051c820191505b81811015610f2d5760008155600101610f19565b50505b505050565b81516001600160401b03811115610f4e57610f4e6109d7565b610f6281610f5c8454610eac565b84610ee6565b6020601f821160018114610f965760008315610f7e5750848201515b600019600385901b1c1916600184901b178455610f2d565b600084815260208120601f198516915b82811015610fc65787850151825560209485019460019092019101610fa6565b5084821015610fe45786840151600019600387901b60f8161c191681555b50505050600190811b01905550565b600081518084526020840193506020830160005b828110156110275781511515865260209586019590910190600101611007565b5093949350505050565b6080815260006110446080830187610e3d565b828103602084015280865180835260208301915060208160051b8401016020890160005b8381101561109a57601f19868403018552611084838351610c04565b6020958601959093509190910190600101611068565b505085810360408701526110ae8189610ff3565b935050505082810360608401526110c58185610ff3565b97965050505050505056fea2646970667358221220d1c44833e326a556d0a1143bc8e522ded419f6c0a76c608e5b26d0b1c4b8851a64736f6c634300081a0033","linkReferences":{}},"methodIdentifiers":{"addOrModifyListenersBatch((bytes,string,bool)[])":"f7d9096b","getListenerIsEncrypted(bytes)":"ad4bbc8b","getListenerMetadata(bytes)":"761d64fe","initialize(address,address,address)":"c0c53b8b","nibbleAccessControls()":"9c081d2c","nibbleStorage()":"f8d0e296","removeListenersBatch(bytes[])":"01e55898"},"id":39}