{"abi":[{"type":"constructor","inputs":[{"name":"storageImp","type":"address","internalType":"address"},{"name":"listenersImp","type":"address","internalType":"address"},{"name":"conditionsImp","type":"address","internalType":"address"},{"name":"agentsImp","type":"address","internalType":"address"},{"name":"evaluationsImp","type":"address","internalType":"address"},{"name":"connectorsImp","type":"address","internalType":"address"},{"name":"accessControlsImp","type":"address","internalType":"address"},{"name":"fheGatesImp","type":"address","internalType":"address"},{"name":"workflowsImp","type":"address","internalType":"address"}],"stateMutability":"nonpayable"},{"type":"function","name":"accessControlsImplementation","inputs":[],"outputs":[{"name":"","type":"address","internalType":"address"}],"stateMutability":"view"},{"type":"function","name":"agentsImplementation","inputs":[],"outputs":[{"name":"","type":"address","internalType":"address"}],"stateMutability":"view"},{"type":"function","name":"conditionsImplementation","inputs":[],"outputs":[{"name":"","type":"address","internalType":"address"}],"stateMutability":"view"},{"type":"function","name":"connectorsImplementation","inputs":[],"outputs":[{"name":"","type":"address","internalType":"address"}],"stateMutability":"view"},{"type":"function","name":"count","inputs":[],"outputs":[{"name":"","type":"uint256","internalType":"uint256"}],"stateMutability":"view"},{"type":"function","name":"deployFromFactory","inputs":[],"outputs":[{"name":"","type":"address[9]","internalType":"address[9]"},{"name":"","type":"bytes","internalType":"bytes"},{"name":"","type":"uint256","internalType":"uint256"}],"stateMutability":"nonpayable"},{"type":"function","name":"evaluationsImplementation","inputs":[],"outputs":[{"name":"","type":"address","internalType":"address"}],"stateMutability":"view"},{"type":"function","name":"fheGatesImplementation","inputs":[],"outputs":[{"name":"","type":"address","internalType":"address"}],"stateMutability":"view"},{"type":"function","name":"getDeployerNibbleCount","inputs":[{"name":"deployer","type":"address","internalType":"address"}],"outputs":[{"name":"","type":"uint256","internalType":"uint256"}],"stateMutability":"view"},{"type":"function","name":"getNibbleAccessControlsContract","inputs":[{"name":"deployer","type":"address","internalType":"address"},{"name":"index","type":"uint256","internalType":"uint256"}],"outputs":[{"name":"","type":"address","internalType":"address"}],"stateMutability":"view"},{"type":"function","name":"getNibbleAgentContract","inputs":[{"name":"deployer","type":"address","internalType":"address"},{"name":"index","type":"uint256","internalType":"uint256"}],"outputs":[{"name":"","type":"address","internalType":"address"}],"stateMutability":"view"},{"type":"function","name":"getNibbleConditionContract","inputs":[{"name":"deployer","type":"address","internalType":"address"},{"name":"index","type":"uint256","internalType":"uint256"}],"outputs":[{"name":"","type":"address","internalType":"address"}],"stateMutability":"view"},{"type":"function","name":"getNibbleConnectorContract","inputs":[{"name":"deployer","type":"address","internalType":"address"},{"name":"index","type":"uint256","internalType":"uint256"}],"outputs":[{"name":"","type":"address","internalType":"address"}],"stateMutability":"view"},{"type":"function","name":"getNibbleCount","inputs":[{"name":"deployer","type":"address","internalType":"address"},{"name":"index","type":"uint256","internalType":"uint256"}],"outputs":[{"name":"","type":"uint256","internalType":"uint256"}],"stateMutability":"view"},{"type":"function","name":"getNibbleEvaluationContract","inputs":[{"name":"deployer","type":"address","internalType":"address"},{"name":"index","type":"uint256","internalType":"uint256"}],"outputs":[{"name":"","type":"address","internalType":"address"}],"stateMutability":"view"},{"type":"function","name":"getNibbleId","inputs":[{"name":"deployer","type":"address","internalType":"address"},{"name":"index","type":"uint256","internalType":"uint256"}],"outputs":[{"name":"","type":"bytes","internalType":"bytes"}],"stateMutability":"view"},{"type":"function","name":"getNibbleListenerContract","inputs":[{"name":"deployer","type":"address","internalType":"address"},{"name":"index","type":"uint256","internalType":"uint256"}],"outputs":[{"name":"","type":"address","internalType":"address"}],"stateMutability":"view"},{"type":"function","name":"getNibbleStorageContract","inputs":[{"name":"deployer","type":"address","internalType":"address"},{"name":"index","type":"uint256","internalType":"uint256"}],"outputs":[{"name":"","type":"address","internalType":"address"}],"stateMutability":"view"},{"type":"function","name":"listenersImplementation","inputs":[],"outputs":[{"name":"","type":"address","internalType":"address"}],"stateMutability":"view"},{"type":"function","name":"storageImplementation","inputs":[],"outputs":[{"name":"","type":"address","internalType":"address"}],"stateMutability":"view"},{"type":"function","name":"workflowsImplementation","inputs":[],"outputs":[{"name":"","type":"address","internalType":"address"}],"stateMutability":"view"},{"type":"event","name":"NibbleDeployed","inputs":[{"name":"storageContract","type":"address","indexed":false,"internalType":"address"},{"name":"listenersContract","type":"address","indexed":false,"internalType":"address"},{"name":"conditionsContract","type":"address","indexed":false,"internalType":"address"},{"name":"evaluationsContract","type":"address","indexed":false,"internalType":"address"},{"name":"agentsContract","type":"address","indexed":false,"internalType":"address"},{"name":"connectorsContract","type":"address","indexed":false,"internalType":"address"},{"name":"fheGatesContract","type":"address","indexed":false,"internalType":"address"},{"name":"accessControlsContract","type":"address","indexed":false,"internalType":"address"},{"name":"workflowsContract","type":"address","indexed":false,"internalType":"address"},{"name":"id","type":"bytes","indexed":false,"internalType":"bytes"},{"name":"count","type":"uint256","indexed":false,"internalType":"uint256"}],"anonymous":false},{"type":"error","name":"AccessControlInitializationFailed","inputs":[]},{"type":"error","name":"AgentsInitializationFailed","inputs":[]},{"type":"error","name":"ConditionsInitializationFailed","inputs":[]},{"type":"error","name":"ConnectorsInitializationFailed","inputs":[]},{"type":"error","name":"EvaluationsInitializationFailed","inputs":[]},{"type":"error","name":"FHEGatesInitializationFailed","inputs":[]},{"type":"error","name":"FailedDeployment","inputs":[]},{"type":"error","name":"InsufficientBalance","inputs":[{"name":"balance","type":"uint256","internalType":"uint256"},{"name":"needed","type":"uint256","internalType":"uint256"}]},{"type":"error","name":"ListenersInitializationFailed","inputs":[]},{"type":"error","name":"StorageInitializationFailed","inputs":[]}],"bytecode":{"object":"0x608060405234801561001057600080fd5b5060405161173c38038061173c83398101604081905261002f916100f2565b600180546001600160a01b03199081166001600160a01b039a8b1617909155600280548216988a16989098179097556003805488169689169690961790955560048054871698881698909817909755600580548616938716939093179092556006805485169186169190911790556008805484169185169190911790556007805483169484169490941790935560098054909116929091169190911790556000805561019a565b80516001600160a01b03811681146100ed57600080fd5b919050565b60008060008060008060008060006101208a8c03121561011157600080fd5b61011a8a6100d6565b985061012860208b016100d6565b975061013660408b016100d6565b965061014460608b016100d6565b955061015260808b016100d6565b945061016060a08b016100d6565b935061016e60c08b016100d6565b925061017c60e08b016100d6565b915061018b6101008b016100d6565b90509295985092959850929598565b611593806101a96000396000f3fe608060405234801561001057600080fd5b50600436106101375760003560e01c80639762d41e116100b8578063b71751ae1161007c578063b71751ae1461029d578063bdf2afe3146102b0578063c0b4f7f8146102c3578063d89c0a30146102da578063e23cd3ff146102ed578063f7559eb91461030057600080fd5b80639762d41e1461021b5780639d0d8fdb14610244578063a6b1b94f14610257578063afa331d71461026a578063b25fbe691461027d57600080fd5b80633f708545116100ff5780633f708545146101bc57806345c94461146101cf5780634bdd1f5b146101e257806350adecc0146101f55780636782af8c1461020857600080fd5b806306661abd1461013c57806308c12a0b14610158578063194648fb146101835780631975c143146101965780631eacc632146101a9575b600080fd5b61014560005481565b6040519081526020015b60405180910390f35b60075461016b906001600160a01b031681565b6040516001600160a01b03909116815260200161014f565b61016b6101913660046111cc565b610313565b60025461016b906001600160a01b031681565b6101456101b73660046111cc565b610363565b60035461016b906001600160a01b031681565b61016b6101dd3660046111cc565b6103a7565b60015461016b906001600160a01b031681565b60085461016b906001600160a01b031681565b61016b6102163660046111cc565b6103f5565b6101456102293660046111f6565b6001600160a01b03166000908152600b602052604090205490565b60095461016b906001600160a01b031681565b61016b6102653660046111cc565b610443565b61016b6102783660046111cc565b610491565b61029061028b3660046111cc565b6104df565b60405161014f9190611268565b61016b6102ab3660046111cc565b6105af565b60045461016b906001600160a01b031681565b6102cb6105fd565b60405161014f9392919061127b565b60055461016b906001600160a01b031681565b60065461016b906001600160a01b031681565b61016b61030e3660046111cc565b6110d4565b6001600160a01b0382166000908152600a6020526040812080548390811061033d5761033d6112d4565b600091825260209091206002600a9092020101546001600160a01b031690505b92915050565b6001600160a01b0382166000908152600a6020526040812080548390811061038d5761038d6112d4565b90600052602060002090600a020160090154905092915050565b6001600160a01b0382166000908152600a602052604081208054839081106103d1576103d16112d4565b60009182526020909120600a90910201600501546001600160a01b03169392505050565b6001600160a01b0382166000908152600a6020526040812080548390811061041f5761041f6112d4565b60009182526020909120600a90910201600101546001600160a01b03169392505050565b6001600160a01b0382166000908152600a6020526040812080548390811061046d5761046d6112d4565b60009182526020909120600a90910201600401546001600160a01b03169392505050565b6001600160a01b0382166000908152600a602052604081208054839081106104bb576104bb6112d4565b60009182526020909120600a90910201600301546001600160a01b03169392505050565b6001600160a01b0382166000908152600a602052604090208054606091908390811061050d5761050d6112d4565b90600052602060002090600a02016008018054610529906112ea565b80601f0160208091040260200160405190810160405280929190818152602001828054610555906112ea565b80156105a25780601f10610577576101008083540402835291602001916105a2565b820191906000526020600020905b81548152906001019060200180831161058557829003601f168201915b5050505050905092915050565b6001600160a01b0382166000908152600a602052604081208054839081106105d9576105d96112d4565b60009182526020909120600a90910201600701546001600160a01b03169392505050565b610605611191565b6004546060906000908190610622906001600160a01b031661111f565b60025490915060009061063d906001600160a01b031661111f565b600154909150600090610658906001600160a01b031661111f565b600654909150600090610673906001600160a01b031661111f565b60035490915060009061068e906001600160a01b031661111f565b6005549091506000906106a9906001600160a01b031661111f565b6007549091506000906106c4906001600160a01b031661111f565b6008549091506000906106df906001600160a01b031661111f565b6009549091506000906106fa906001600160a01b031661111f565b6040513060248201523360448201529091506000906001600160a01b0384169060640160408051601f198184030181529181526020820180516001600160e01b031663485cc95560e01b179052516107529190611324565b6000604051808303816000865af19150503d806000811461078f576040519150601f19603f3d011682016040523d82523d6000602084013e610794565b606091505b50509050806107b657604051636b51e42f60e11b815260040160405180910390fd5b6040513060248201526001600160a01b0384811660448301528a81166064830152898116608483015288811660a483015287811660c483015286811660e48301528581166101048301528381166101248301528b16906101440160408051601f198184030181529181526020820180516001600160e01b031663f5e95acb60e01b179052516108459190611324565b6000604051808303816000865af19150503d8060008114610882576040519150601f19603f3d011682016040523d82523d6000602084013e610887565b606091505b505080915050806108ab57604051631e47105760e21b815260040160405180910390fd5b886001600160a01b031630848c6040516024016108ca93929190611340565b60408051601f198184030181529181526020820180516001600160e01b031663c0c53b8b60e01b179052516108ff9190611324565b6000604051808303816000865af19150503d806000811461093c576040519150601f19603f3d011682016040523d82523d6000602084013e610941565b606091505b5050809150508061096557604051631969692d60e31b815260040160405180910390fd5b876001600160a01b031630848c60405160240161098493929190611340565b60408051601f198184030181529181526020820180516001600160e01b031663c0c53b8b60e01b179052516109b99190611324565b6000604051808303816000865af19150503d80600081146109f6576040519150601f19603f3d011682016040523d82523d6000602084013e6109fb565b606091505b50508091505080610a1e57604051620117cb60e31b815260040160405180910390fd5b846001600160a01b031630848c604051602401610a3d93929190611340565b60408051601f198184030181529181526020820180516001600160e01b031663c0c53b8b60e01b17905251610a729190611324565b6000604051808303816000865af19150503d8060008114610aaf576040519150601f19603f3d011682016040523d82523d6000602084013e610ab4565b606091505b50508091505080610ad85760405163e6df176160e01b815260040160405180910390fd5b866001600160a01b031630848c604051602401610af793929190611340565b60408051601f198184030181529181526020820180516001600160e01b031663c0c53b8b60e01b17905251610b2c9190611324565b6000604051808303816000865af19150503d8060008114610b69576040519150601f19603f3d011682016040523d82523d6000602084013e610b6e565b606091505b50508091505080610b925760405163121256bb60e01b815260040160405180910390fd5b836001600160a01b031630848c604051602401610bb193929190611340565b60408051601f198184030181529181526020820180516001600160e01b031663c0c53b8b60e01b17905251610be69190611324565b6000604051808303816000865af19150503d8060008114610c23576040519150601f19603f3d011682016040523d82523d6000602084013e610c28565b606091505b50508091505080610c4c5760405163793c78b560e11b815260040160405180910390fd5b856001600160a01b031630848c604051602401610c6b93929190611340565b60408051601f198184030181529181526020820180516001600160e01b031663c0c53b8b60e01b17905251610ca09190611324565b6000604051808303816000865af19150503d8060008114610cdd576040519150601f19603f3d011682016040523d82523d6000602084013e610ce2565b606091505b50508091505080610d0657604051635b4bd6e360e11b815260040160405180910390fd5b600080549080610d1583611379565b91905055506000610d873342600054604051606084811b6bffffffffffffffffffffffff1916602083015260348201849052605482018390529060740160408051601f198184030181528282528051602091820120908301520160405160208183030381529060405290509392505050565b336000908152600b602052604081208054929350600192909190610dac908490611392565b92505081905550600a6000336001600160a01b03166001600160a01b031681526020019081526020016000206040518061014001604052808d6001600160a01b031681526020018b6001600160a01b031681526020018c6001600160a01b03168152602001886001600160a01b03168152602001896001600160a01b031681526020018a6001600160a01b03168152602001876001600160a01b03168152602001866001600160a01b0316815260200183815260200160005481525090806001815401808255809150506001900390600052602060002090600a020160009091909190915060008201518160000160006101000a8154816001600160a01b0302191690836001600160a01b0316021790555060208201518160010160006101000a8154816001600160a01b0302191690836001600160a01b0316021790555060408201518160020160006101000a8154816001600160a01b0302191690836001600160a01b0316021790555060608201518160030160006101000a8154816001600160a01b0302191690836001600160a01b0316021790555060808201518160040160006101000a8154816001600160a01b0302191690836001600160a01b0316021790555060a08201518160050160006101000a8154816001600160a01b0302191690836001600160a01b0316021790555060c08201518160060160006101000a8154816001600160a01b0302191690836001600160a01b0316021790555060e08201518160070160006101000a8154816001600160a01b0302191690836001600160a01b0316021790555061010082015181600801908161100f919061140a565b50610120820151816009015550507f9f7193c777e5ac284d220aa869375a2398c4da077c9aea38194c99b26cd33a7e8b8a8c898b8d8b8b8b8a6000546040516110629b9a999897969594939291906114c9565b60405180910390a160408051610120810182526001600160a01b039c8d168152998c1660208b0152998b1699890199909952509288166060870152928716608086015292861660a085015291851660c0840152841660e083015290921661010083015260005491959094509092509050565b6001600160a01b0382166000908152600a602052604081208054839081106110fe576110fe6112d4565b60009182526020909120600a90910201546001600160a01b03169392505050565b600061035d828280763d602d80600a3d3981f3363d3d373d3d3d363d730000008360601b60e81c176000526e5af43d82803e903d91602b57fd5bf38360781b176020526037600983f090506001600160a01b03811661035d5760405163b06ebf3d60e01b815260040160405180910390fd5b6040518061012001604052806009906020820280368337509192915050565b80356001600160a01b03811681146111c757600080fd5b919050565b600080604083850312156111df57600080fd5b6111e8836111b0565b946020939093013593505050565b60006020828403121561120857600080fd5b611211826111b0565b9392505050565b60005b8381101561123357818101518382015260200161121b565b50506000910152565b60008151808452611254816020860160208601611218565b601f01601f19169290920160200192915050565b602081526000611211602083018461123c565b60008185825b60098110156112a95781516001600160a01b0316835260209283019290910190600101611281565b5050506101606101208301526112c361016083018561123c565b905082610140830152949350505050565b634e487b7160e01b600052603260045260246000fd5b600181811c908216806112fe57607f821691505b60208210810361131e57634e487b7160e01b600052602260045260246000fd5b50919050565b60008251611336818460208701611218565b9190910192915050565b6001600160a01b0393841681529183166020830152909116604082015260600190565b634e487b7160e01b600052601160045260246000fd5b60006001820161138b5761138b611363565b5060010190565b8082018082111561035d5761035d611363565b634e487b7160e01b600052604160045260246000fd5b601f82111561140557806000526020600020601f840160051c810160208510156113e25750805b601f840160051c820191505b8181101561140257600081556001016113ee565b50505b505050565b815167ffffffffffffffff811115611424576114246113a5565b6114388161143284546112ea565b846113bb565b6020601f82116001811461146c57600083156114545750848201515b600019600385901b1c1916600184901b178455611402565b600084815260208120601f198516915b8281101561149c578785015182556020948501946001909201910161147c565b50848210156114ba5786840151600019600387901b60f8161c191681555b50505050600190811b01905550565b6001600160a01b038c811682528b811660208301528a8116604083015289811660608301528881166080830152871660a08201526001600160a01b03861660c08201526001600160a01b03851660e08201526001600160a01b038416610100820152610160610120820152600061154461016083018561123c565b9050826101408301529c9b50505050505050505050505056fea2646970667358221220260915259a4ebf6840a5184f8159675404c0af5ad75a7599853a17c61ebd1a6264736f6c634300081a0033","linkReferences":{}},"methodIdentifiers":{"accessControlsImplementation()":"50adecc0","agentsImplementation()":"3f708545","conditionsImplementation()":"1975c143","connectorsImplementation()":"e23cd3ff","count()":"06661abd","deployFromFactory()":"c0b4f7f8","evaluationsImplementation()":"d89c0a30","fheGatesImplementation()":"08c12a0b","getDeployerNibbleCount(address)":"9762d41e","getNibbleAccessControlsContract(address,uint256)":"b71751ae","getNibbleAgentContract(address,uint256)":"a6b1b94f","getNibbleConditionContract(address,uint256)":"194648fb","getNibbleConnectorContract(address,uint256)":"45c94461","getNibbleCount(address,uint256)":"1eacc632","getNibbleEvaluationContract(address,uint256)":"afa331d7","getNibbleId(address,uint256)":"b25fbe69","getNibbleListenerContract(address,uint256)":"6782af8c","getNibbleStorageContract(address,uint256)":"f7559eb9","listenersImplementation()":"4bdd1f5b","storageImplementation()":"bdf2afe3","workflowsImplementation()":"9d0d8fdb"},"id":32}