{"abi":[{"type":"constructor","inputs":[{"name":"storageImp","type":"address","internalType":"address"},{"name":"listenersImp","type":"address","internalType":"address"},{"name":"conditionsImp","type":"address","internalType":"address"},{"name":"agentsImp","type":"address","internalType":"address"},{"name":"evaluationsImp","type":"address","internalType":"address"},{"name":"connectorsImp","type":"address","internalType":"address"},{"name":"accessControlsImp","type":"address","internalType":"address"},{"name":"fheGatesImp","type":"address","internalType":"address"},{"name":"workflowsImp","type":"address","internalType":"address"}],"stateMutability":"nonpayable"},{"type":"function","name":"accessControlsImplementation","inputs":[],"outputs":[{"name":"","type":"address","internalType":"address"}],"stateMutability":"view"},{"type":"function","name":"agentsImplementation","inputs":[],"outputs":[{"name":"","type":"address","internalType":"address"}],"stateMutability":"view"},{"type":"function","name":"conditionsImplementation","inputs":[],"outputs":[{"name":"","type":"address","internalType":"address"}],"stateMutability":"view"},{"type":"function","name":"connectorsImplementation","inputs":[],"outputs":[{"name":"","type":"address","internalType":"address"}],"stateMutability":"view"},{"type":"function","name":"count","inputs":[],"outputs":[{"name":"","type":"uint256","internalType":"uint256"}],"stateMutability":"view"},{"type":"function","name":"deployFromFactory","inputs":[],"outputs":[{"name":"","type":"address[9]","internalType":"address[9]"},{"name":"","type":"bytes","internalType":"bytes"},{"name":"","type":"uint256","internalType":"uint256"}],"stateMutability":"nonpayable"},{"type":"function","name":"evaluationsImplementation","inputs":[],"outputs":[{"name":"","type":"address","internalType":"address"}],"stateMutability":"view"},{"type":"function","name":"fheGatesImplementation","inputs":[],"outputs":[{"name":"","type":"address","internalType":"address"}],"stateMutability":"view"},{"type":"function","name":"getDeployerNibbleCount","inputs":[{"name":"deployer","type":"address","internalType":"address"}],"outputs":[{"name":"","type":"uint256","internalType":"uint256"}],"stateMutability":"view"},{"type":"function","name":"getNibbleAccessControlsContract","inputs":[{"name":"deployer","type":"address","internalType":"address"},{"name":"index","type":"uint256","internalType":"uint256"}],"outputs":[{"name":"","type":"address","internalType":"address"}],"stateMutability":"view"},{"type":"function","name":"getNibbleAgentContract","inputs":[{"name":"deployer","type":"address","internalType":"address"},{"name":"index","type":"uint256","internalType":"uint256"}],"outputs":[{"name":"","type":"address","internalType":"address"}],"stateMutability":"view"},{"type":"function","name":"getNibbleConditionContract","inputs":[{"name":"deployer","type":"address","internalType":"address"},{"name":"index","type":"uint256","internalType":"uint256"}],"outputs":[{"name":"","type":"address","internalType":"address"}],"stateMutability":"view"},{"type":"function","name":"getNibbleConnectorContract","inputs":[{"name":"deployer","type":"address","internalType":"address"},{"name":"index","type":"uint256","internalType":"uint256"}],"outputs":[{"name":"","type":"address","internalType":"address"}],"stateMutability":"view"},{"type":"function","name":"getNibbleCount","inputs":[{"name":"deployer","type":"address","internalType":"address"},{"name":"index","type":"uint256","internalType":"uint256"}],"outputs":[{"name":"","type":"uint256","internalType":"uint256"}],"stateMutability":"view"},{"type":"function","name":"getNibbleEvaluationContract","inputs":[{"name":"deployer","type":"address","internalType":"address"},{"name":"index","type":"uint256","internalType":"uint256"}],"outputs":[{"name":"","type":"address","internalType":"address"}],"stateMutability":"view"},{"type":"function","name":"getNibbleId","inputs":[{"name":"deployer","type":"address","internalType":"address"},{"name":"index","type":"uint256","internalType":"uint256"}],"outputs":[{"name":"","type":"bytes","internalType":"bytes"}],"stateMutability":"view"},{"type":"function","name":"getNibbleListenerContract","inputs":[{"name":"deployer","type":"address","internalType":"address"},{"name":"index","type":"uint256","internalType":"uint256"}],"outputs":[{"name":"","type":"address","internalType":"address"}],"stateMutability":"view"},{"type":"function","name":"getNibbleStorageContract","inputs":[{"name":"deployer","type":"address","internalType":"address"},{"name":"index","type":"uint256","internalType":"uint256"}],"outputs":[{"name":"","type":"address","internalType":"address"}],"stateMutability":"view"},{"type":"function","name":"listenersImplementation","inputs":[],"outputs":[{"name":"","type":"address","internalType":"address"}],"stateMutability":"view"},{"type":"function","name":"storageImplementation","inputs":[],"outputs":[{"name":"","type":"address","internalType":"address"}],"stateMutability":"view"},{"type":"function","name":"workflowsImplementation","inputs":[],"outputs":[{"name":"","type":"address","internalType":"address"}],"stateMutability":"view"},{"type":"event","name":"NibbleDeployed","inputs":[{"name":"storageContract","type":"address","indexed":false,"internalType":"address"},{"name":"listenersContract","type":"address","indexed":false,"internalType":"address"},{"name":"conditionsContract","type":"address","indexed":false,"internalType":"address"},{"name":"evaluationsContract","type":"address","indexed":false,"internalType":"address"},{"name":"agentsContract","type":"address","indexed":false,"internalType":"address"},{"name":"connectorsContract","type":"address","indexed":false,"internalType":"address"},{"name":"fheGatesContract","type":"address","indexed":false,"internalType":"address"},{"name":"accessControlsContract","type":"address","indexed":false,"internalType":"address"},{"name":"workflowsContract","type":"address","indexed":false,"internalType":"address"},{"name":"id","type":"bytes","indexed":false,"internalType":"bytes"},{"name":"count","type":"uint256","indexed":false,"internalType":"uint256"}],"anonymous":false},{"type":"error","name":"FailedDeployment","inputs":[]},{"type":"error","name":"InsufficientBalance","inputs":[{"name":"balance","type":"uint256","internalType":"uint256"},{"name":"needed","type":"uint256","internalType":"uint256"}]}],"bytecode":{"object":"0x608060405234801561001057600080fd5b5060405161145338038061145383398101604081905261002f916100f2565b600180546001600160a01b03199081166001600160a01b039a8b1617909155600280548216988a16989098179097556003805488169689169690961790955560048054871698881698909817909755600580548616938716939093179092556006805485169186169190911790556008805484169185169190911790556007805483169484169490941790935560098054909116929091169190911790556000805561019a565b80516001600160a01b03811681146100ed57600080fd5b919050565b60008060008060008060008060006101208a8c03121561011157600080fd5b61011a8a6100d6565b985061012860208b016100d6565b975061013660408b016100d6565b965061014460608b016100d6565b955061015260808b016100d6565b945061016060a08b016100d6565b935061016e60c08b016100d6565b925061017c60e08b016100d6565b915061018b6101008b016100d6565b90509295985092959850929598565b6112aa806101a96000396000f3fe608060405234801561001057600080fd5b50600436106101375760003560e01c80639762d41e116100b8578063b71751ae1161007c578063b71751ae1461029d578063bdf2afe3146102b0578063c0b4f7f8146102c3578063d89c0a30146102da578063e23cd3ff146102ed578063f7559eb91461030057600080fd5b80639762d41e1461021b5780639d0d8fdb14610244578063a6b1b94f14610257578063afa331d71461026a578063b25fbe691461027d57600080fd5b80633f708545116100ff5780633f708545146101bc57806345c94461146101cf5780634bdd1f5b146101e257806350adecc0146101f55780636782af8c1461020857600080fd5b806306661abd1461013c57806308c12a0b14610158578063194648fb146101835780631975c143146101965780631eacc632146101a9575b600080fd5b61014560005481565b6040519081526020015b60405180910390f35b60075461016b906001600160a01b031681565b6040516001600160a01b03909116815260200161014f565b61016b610191366004610f09565b610313565b60025461016b906001600160a01b031681565b6101456101b7366004610f09565b610363565b60035461016b906001600160a01b031681565b61016b6101dd366004610f09565b6103a7565b60015461016b906001600160a01b031681565b60085461016b906001600160a01b031681565b61016b610216366004610f09565b6103f5565b610145610229366004610f33565b6001600160a01b03166000908152600b602052604090205490565b60095461016b906001600160a01b031681565b61016b610265366004610f09565b610443565b61016b610278366004610f09565b610491565b61029061028b366004610f09565b6104df565b60405161014f9190610f9b565b61016b6102ab366004610f09565b6105af565b60045461016b906001600160a01b031681565b6102cb6105fd565b60405161014f93929190610fae565b60055461016b906001600160a01b031681565b60065461016b906001600160a01b031681565b61016b61030e366004610f09565b610e11565b6001600160a01b0382166000908152600a6020526040812080548390811061033d5761033d611007565b600091825260209091206002600a9092020101546001600160a01b031690505b92915050565b6001600160a01b0382166000908152600a6020526040812080548390811061038d5761038d611007565b90600052602060002090600a020160090154905092915050565b6001600160a01b0382166000908152600a602052604081208054839081106103d1576103d1611007565b60009182526020909120600a90910201600501546001600160a01b03169392505050565b6001600160a01b0382166000908152600a6020526040812080548390811061041f5761041f611007565b60009182526020909120600a90910201600101546001600160a01b03169392505050565b6001600160a01b0382166000908152600a6020526040812080548390811061046d5761046d611007565b60009182526020909120600a90910201600401546001600160a01b03169392505050565b6001600160a01b0382166000908152600a602052604081208054839081106104bb576104bb611007565b60009182526020909120600a90910201600301546001600160a01b03169392505050565b6001600160a01b0382166000908152600a602052604090208054606091908390811061050d5761050d611007565b90600052602060002090600a020160080180546105299061101d565b80601f01602080910402602001604051908101604052809291908181526020018280546105559061101d565b80156105a25780601f10610577576101008083540402835291602001916105a2565b820191906000526020600020905b81548152906001019060200180831161058557829003601f168201915b5050505050905092915050565b6001600160a01b0382166000908152600a602052604081208054839081106105d9576105d9611007565b60009182526020909120600a90910201600701546001600160a01b03169392505050565b610605610ece565b6004546060906000908190610622906001600160a01b0316610e5c565b60025490915060009061063d906001600160a01b0316610e5c565b600154909150600090610658906001600160a01b0316610e5c565b600654909150600090610673906001600160a01b0316610e5c565b60035490915060009061068e906001600160a01b0316610e5c565b6005549091506000906106a9906001600160a01b0316610e5c565b6007549091506000906106c4906001600160a01b0316610e5c565b6008549091506000906106df906001600160a01b0316610e5c565b6009549091506000906106fa906001600160a01b0316610e5c565b60405163485cc95560e01b81523360048201523060248201529091506001600160a01b0383169063485cc95590604401600060405180830381600087803b15801561074457600080fd5b505af1158015610758573d6000803e3d6000fd5b505060405163f5e95acb60e01b81523060048201526001600160a01b0385811660248301528b811660448301528a81166064830152898116608483015288811660a483015287811660c483015286811660e48301528481166101048301528c16925063f5e95acb915061012401600060405180830381600087803b1580156107df57600080fd5b505af11580156107f3573d6000803e3d6000fd5b505060405163c0c53b8b60e01b81526001600160a01b038b16925063c0c53b8b915061082790309086908e90600401611057565b600060405180830381600087803b15801561084157600080fd5b505af1158015610855573d6000803e3d6000fd5b505060405163c0c53b8b60e01b81526001600160a01b038a16925063c0c53b8b915061088990309086908e90600401611057565b600060405180830381600087803b1580156108a357600080fd5b505af11580156108b7573d6000803e3d6000fd5b505060405163c0c53b8b60e01b81526001600160a01b038716925063c0c53b8b91506108eb90309086908e90600401611057565b600060405180830381600087803b15801561090557600080fd5b505af1158015610919573d6000803e3d6000fd5b505060405163c0c53b8b60e01b81526001600160a01b038916925063c0c53b8b915061094d90309086908e90600401611057565b600060405180830381600087803b15801561096757600080fd5b505af115801561097b573d6000803e3d6000fd5b505060405163c0c53b8b60e01b81526001600160a01b038616925063c0c53b8b91506109af90309086908e90600401611057565b600060405180830381600087803b1580156109c957600080fd5b505af11580156109dd573d6000803e3d6000fd5b505060405163c0c53b8b60e01b81526001600160a01b038816925063c0c53b8b9150610a1190309086908e90600401611057565b600060405180830381600087803b158015610a2b57600080fd5b505af1158015610a3f573d6000803e3d6000fd5b5050600080549250905080610a5383611090565b91905055506000610ac53342600054604051606084811b6bffffffffffffffffffffffff1916602083015260348201849052605482018390529060740160408051601f198184030181528282528051602091820120908301520160405160208183030381529060405290509392505050565b336000908152600b602052604081208054929350600192909190610aea9084906110a9565b92505081905550600a6000336001600160a01b03166001600160a01b031681526020019081526020016000206040518061014001604052808c6001600160a01b031681526020018a6001600160a01b031681526020018b6001600160a01b03168152602001876001600160a01b03168152602001886001600160a01b03168152602001896001600160a01b03168152602001866001600160a01b03168152602001856001600160a01b0316815260200183815260200160005481525090806001815401808255809150506001900390600052602060002090600a020160009091909190915060008201518160000160006101000a8154816001600160a01b0302191690836001600160a01b0316021790555060208201518160010160006101000a8154816001600160a01b0302191690836001600160a01b0316021790555060408201518160020160006101000a8154816001600160a01b0302191690836001600160a01b0316021790555060608201518160030160006101000a8154816001600160a01b0302191690836001600160a01b0316021790555060808201518160040160006101000a8154816001600160a01b0302191690836001600160a01b0316021790555060a08201518160050160006101000a8154816001600160a01b0302191690836001600160a01b0316021790555060c08201518160060160006101000a8154816001600160a01b0302191690836001600160a01b0316021790555060e08201518160070160006101000a8154816001600160a01b0302191690836001600160a01b03160217905550610100820151816008019081610d4d9190611121565b50610120820151816009015550507f9f7193c777e5ac284d220aa869375a2398c4da077c9aea38194c99b26cd33a7e8a898b888a8c8a8a8a8a600054604051610da09b9a999897969594939291906111e0565b60405180910390a160408051610120810182526001600160a01b039b8c168152988b1660208a0152988a16988801989098529288166060870152928716608086015292861660a085015291851660c0840152841660e083015290921661010083015260005491959094509092509050565b6001600160a01b0382166000908152600a60205260408120805483908110610e3b57610e3b611007565b60009182526020909120600a90910201546001600160a01b03169392505050565b600061035d828280763d602d80600a3d3981f3363d3d373d3d3d363d730000008360601b60e81c176000526e5af43d82803e903d91602b57fd5bf38360781b176020526037600983f090506001600160a01b03811661035d5760405163b06ebf3d60e01b815260040160405180910390fd5b6040518061012001604052806009906020820280368337509192915050565b80356001600160a01b0381168114610f0457600080fd5b919050565b60008060408385031215610f1c57600080fd5b610f2583610eed565b946020939093013593505050565b600060208284031215610f4557600080fd5b610f4e82610eed565b9392505050565b6000815180845260005b81811015610f7b57602081850181015186830182015201610f5f565b506000602082860101526020601f19601f83011685010191505092915050565b602081526000610f4e6020830184610f55565b60008185825b6009811015610fdc5781516001600160a01b0316835260209283019290910190600101610fb4565b505050610160610120830152610ff6610160830185610f55565b905082610140830152949350505050565b634e487b7160e01b600052603260045260246000fd5b600181811c9082168061103157607f821691505b60208210810361105157634e487b7160e01b600052602260045260246000fd5b50919050565b6001600160a01b0393841681529183166020830152909116604082015260600190565b634e487b7160e01b600052601160045260246000fd5b6000600182016110a2576110a261107a565b5060010190565b8082018082111561035d5761035d61107a565b634e487b7160e01b600052604160045260246000fd5b601f82111561111c57806000526020600020601f840160051c810160208510156110f95750805b601f840160051c820191505b818110156111195760008155600101611105565b50505b505050565b815167ffffffffffffffff81111561113b5761113b6110bc565b61114f81611149845461101d565b846110d2565b6020601f821160018114611183576000831561116b5750848201515b600019600385901b1c1916600184901b178455611119565b600084815260208120601f198516915b828110156111b35787850151825560209485019460019092019101611193565b50848210156111d15786840151600019600387901b60f8161c191681555b50505050600190811b01905550565b6001600160a01b038c811682528b811660208301528a8116604083015289811660608301528881166080830152871660a08201526001600160a01b03861660c08201526001600160a01b03851660e08201526001600160a01b038416610100820152610160610120820152600061125b610160830185610f55565b9050826101408301529c9b50505050505050505050505056fea26469706673582212205851650726cd41a00d43a5e8ba33fdba65172dc29d7de90d8136e80b7a73b8e964736f6c634300081a0033","linkReferences":{}},"methodIdentifiers":{"accessControlsImplementation()":"50adecc0","agentsImplementation()":"3f708545","conditionsImplementation()":"1975c143","connectorsImplementation()":"e23cd3ff","count()":"06661abd","deployFromFactory()":"c0b4f7f8","evaluationsImplementation()":"d89c0a30","fheGatesImplementation()":"08c12a0b","getDeployerNibbleCount(address)":"9762d41e","getNibbleAccessControlsContract(address,uint256)":"b71751ae","getNibbleAgentContract(address,uint256)":"a6b1b94f","getNibbleConditionContract(address,uint256)":"194648fb","getNibbleConnectorContract(address,uint256)":"45c94461","getNibbleCount(address,uint256)":"1eacc632","getNibbleEvaluationContract(address,uint256)":"afa331d7","getNibbleId(address,uint256)":"b25fbe69","getNibbleListenerContract(address,uint256)":"6782af8c","getNibbleStorageContract(address,uint256)":"f7559eb9","listenersImplementation()":"4bdd1f5b","storageImplementation()":"bdf2afe3","workflowsImplementation()":"9d0d8fdb"},"id":11}