{"abi":[{"type":"constructor","inputs":[{"name":"storageImp","type":"address","internalType":"address"},{"name":"listenersImp","type":"address","internalType":"address"},{"name":"conditionsImp","type":"address","internalType":"address"},{"name":"agentsImp","type":"address","internalType":"address"},{"name":"evaluationsImp","type":"address","internalType":"address"},{"name":"adaptersImp","type":"address","internalType":"address"},{"name":"accessControlsImp","type":"address","internalType":"address"}],"stateMutability":"nonpayable"},{"type":"function","name":"accessControlsImplementation","inputs":[],"outputs":[{"name":"","type":"address","internalType":"address"}],"stateMutability":"view"},{"type":"function","name":"adaptersImplementation","inputs":[],"outputs":[{"name":"","type":"address","internalType":"address"}],"stateMutability":"view"},{"type":"function","name":"agentsImplementation","inputs":[],"outputs":[{"name":"","type":"address","internalType":"address"}],"stateMutability":"view"},{"type":"function","name":"conditionsImplementation","inputs":[],"outputs":[{"name":"","type":"address","internalType":"address"}],"stateMutability":"view"},{"type":"function","name":"count","inputs":[],"outputs":[{"name":"","type":"uint256","internalType":"uint256"}],"stateMutability":"view"},{"type":"function","name":"deployFromFactory","inputs":[],"outputs":[{"name":"","type":"address[7]","internalType":"address[7]"},{"name":"","type":"bytes","internalType":"bytes"},{"name":"","type":"uint256","internalType":"uint256"}],"stateMutability":"nonpayable"},{"type":"function","name":"evaluationsImplementation","inputs":[],"outputs":[{"name":"","type":"address","internalType":"address"}],"stateMutability":"view"},{"type":"function","name":"getDeployerNibbleCount","inputs":[{"name":"deployer","type":"address","internalType":"address"}],"outputs":[{"name":"","type":"uint256","internalType":"uint256"}],"stateMutability":"view"},{"type":"function","name":"getNibbleAccessControlsContract","inputs":[{"name":"deployer","type":"address","internalType":"address"},{"name":"index","type":"uint256","internalType":"uint256"}],"outputs":[{"name":"","type":"address","internalType":"address"}],"stateMutability":"view"},{"type":"function","name":"getNibbleAdapterContract","inputs":[{"name":"deployer","type":"address","internalType":"address"},{"name":"index","type":"uint256","internalType":"uint256"}],"outputs":[{"name":"","type":"address","internalType":"address"}],"stateMutability":"view"},{"type":"function","name":"getNibbleAgentContract","inputs":[{"name":"deployer","type":"address","internalType":"address"},{"name":"index","type":"uint256","internalType":"uint256"}],"outputs":[{"name":"","type":"address","internalType":"address"}],"stateMutability":"view"},{"type":"function","name":"getNibbleConditionContract","inputs":[{"name":"deployer","type":"address","internalType":"address"},{"name":"index","type":"uint256","internalType":"uint256"}],"outputs":[{"name":"","type":"address","internalType":"address"}],"stateMutability":"view"},{"type":"function","name":"getNibbleCount","inputs":[{"name":"deployer","type":"address","internalType":"address"},{"name":"index","type":"uint256","internalType":"uint256"}],"outputs":[{"name":"","type":"uint256","internalType":"uint256"}],"stateMutability":"view"},{"type":"function","name":"getNibbleEvaluationContract","inputs":[{"name":"deployer","type":"address","internalType":"address"},{"name":"index","type":"uint256","internalType":"uint256"}],"outputs":[{"name":"","type":"address","internalType":"address"}],"stateMutability":"view"},{"type":"function","name":"getNibbleId","inputs":[{"name":"deployer","type":"address","internalType":"address"},{"name":"index","type":"uint256","internalType":"uint256"}],"outputs":[{"name":"","type":"bytes","internalType":"bytes"}],"stateMutability":"view"},{"type":"function","name":"getNibbleListenerContract","inputs":[{"name":"deployer","type":"address","internalType":"address"},{"name":"index","type":"uint256","internalType":"uint256"}],"outputs":[{"name":"","type":"address","internalType":"address"}],"stateMutability":"view"},{"type":"function","name":"getNibbleStorageContract","inputs":[{"name":"deployer","type":"address","internalType":"address"},{"name":"index","type":"uint256","internalType":"uint256"}],"outputs":[{"name":"","type":"address","internalType":"address"}],"stateMutability":"view"},{"type":"function","name":"listenersImplementation","inputs":[],"outputs":[{"name":"","type":"address","internalType":"address"}],"stateMutability":"view"},{"type":"function","name":"storageImplementation","inputs":[],"outputs":[{"name":"","type":"address","internalType":"address"}],"stateMutability":"view"},{"type":"event","name":"NibbleDeployed","inputs":[{"name":"storageContract","type":"address","indexed":false,"internalType":"address"},{"name":"listenersContract","type":"address","indexed":false,"internalType":"address"},{"name":"conditionsContract","type":"address","indexed":false,"internalType":"address"},{"name":"evaluationsContract","type":"address","indexed":false,"internalType":"address"},{"name":"agentsContract","type":"address","indexed":false,"internalType":"address"},{"name":"adaptersContract","type":"address","indexed":false,"internalType":"address"},{"name":"accessControlsContract","type":"address","indexed":false,"internalType":"address"},{"name":"id","type":"bytes","indexed":false,"internalType":"bytes"},{"name":"count","type":"uint256","indexed":false,"internalType":"uint256"}],"anonymous":false},{"type":"error","name":"FailedDeployment","inputs":[]},{"type":"error","name":"InsufficientBalance","inputs":[{"name":"balance","type":"uint256","internalType":"uint256"},{"name":"needed","type":"uint256","internalType":"uint256"}]}],"bytecode":{"object":"0x608060405234801561001057600080fd5b5060405161110b38038061110b83398101604081905261002f916100d3565b600180546001600160a01b03199081166001600160a01b039889161790915560028054821696881696909617909555600380548616948716949094179093556004805485169686169690961790955560058054841691851691909117905560068054831694841694909417909355600780549091169290911691909117905560008055610159565b80516001600160a01b03811681146100ce57600080fd5b919050565b600080600080600080600060e0888a0312156100ee57600080fd5b6100f7886100b7565b9650610105602089016100b7565b9550610113604089016100b7565b9450610121606089016100b7565b935061012f608089016100b7565b925061013d60a089016100b7565b915061014b60c089016100b7565b905092959891949750929550565b610fa3806101686000396000f3fe608060405234801561001057600080fd5b50600436106101215760003560e01c80639762d41e116100ad578063b71751ae11610071578063b71751ae14610274578063bdf2afe314610287578063c0b4f7f81461029a578063d89c0a30146102b1578063f7559eb9146102c457600080fd5b80639762d41e146101f2578063a2b8d59f1461021b578063a6b1b94f1461022e578063afa331d714610241578063b25fbe691461025457600080fd5b80633f708545116100f45780633f708545146101935780634bdd1f5b146101a65780634e50651f146101b957806350adecc0146101cc5780636782af8c146101df57600080fd5b806306661abd14610126578063194648fb146101425780631975c1431461016d5780631eacc63214610180575b600080fd5b61012f60005481565b6040519081526020015b60405180910390f35b610155610150366004610c4e565b6102d7565b6040516001600160a01b039091168152602001610139565b600254610155906001600160a01b031681565b61012f61018e366004610c4e565b610327565b600354610155906001600160a01b031681565b600154610155906001600160a01b031681565b600654610155906001600160a01b031681565b600754610155906001600160a01b031681565b6101556101ed366004610c4e565b61036b565b61012f610200366004610c78565b6001600160a01b031660009081526009602052604090205490565b610155610229366004610c4e565b6103b9565b61015561023c366004610c4e565b610407565b61015561024f366004610c4e565b610455565b610267610262366004610c4e565b6104a3565b6040516101399190610ce0565b610155610282366004610c4e565b610573565b600454610155906001600160a01b031681565b6102a26105c1565b60405161013993929190610cf3565b600554610155906001600160a01b031681565b6101556102d2366004610c4e565b610b57565b6001600160a01b038216600090815260086020526040812080548390811061030157610301610d4b565b60009182526020909120600260099092020101546001600160a01b031690505b92915050565b6001600160a01b038216600090815260086020526040812080548390811061035157610351610d4b565b906000526020600020906009020160080154905092915050565b6001600160a01b038216600090815260086020526040812080548390811061039557610395610d4b565b60009182526020909120600990910201600101546001600160a01b03169392505050565b6001600160a01b03821660009081526008602052604081208054839081106103e3576103e3610d4b565b60009182526020909120600990910201600501546001600160a01b03169392505050565b6001600160a01b038216600090815260086020526040812080548390811061043157610431610d4b565b60009182526020909120600990910201600401546001600160a01b03169392505050565b6001600160a01b038216600090815260086020526040812080548390811061047f5761047f610d4b565b60009182526020909120600990910201600301546001600160a01b03169392505050565b6001600160a01b0382166000908152600860205260409020805460609190839081106104d1576104d1610d4b565b906000526020600020906009020160070180546104ed90610d61565b80601f016020809104026020016040519081016040528092919081815260200182805461051990610d61565b80156105665780601f1061053b57610100808354040283529160200191610566565b820191906000526020600020905b81548152906001019060200180831161054957829003601f168201915b5050505050905092915050565b6001600160a01b038216600090815260086020526040812080548390811061059d5761059d610d4b565b60009182526020909120600990910201600601546001600160a01b03169392505050565b6105c9610c14565b60045460609060009081906105e6906001600160a01b0316610ba2565b600254909150600090610601906001600160a01b0316610ba2565b60015490915060009061061c906001600160a01b0316610ba2565b600654909150600090610637906001600160a01b0316610ba2565b600354909150600090610652906001600160a01b0316610ba2565b60055490915060009061066d906001600160a01b0316610ba2565b600754909150600090610688906001600160a01b0316610ba2565b60405163189acdbd60e31b81523360048201529091506001600160a01b0382169063c4d66de890602401600060405180830381600087803b1580156106cc57600080fd5b505af11580156106e0573d6000803e3d6000fd5b50505050866001600160a01b0316638129fc1c6040518163ffffffff1660e01b8152600401600060405180830381600087803b15801561071f57600080fd5b505af1158015610733573d6000803e3d6000fd5b50505050856001600160a01b0316638129fc1c6040518163ffffffff1660e01b8152600401600060405180830381600087803b15801561077257600080fd5b505af1158015610786573d6000803e3d6000fd5b50505050846001600160a01b0316638129fc1c6040518163ffffffff1660e01b8152600401600060405180830381600087803b1580156107c557600080fd5b505af11580156107d9573d6000803e3d6000fd5b50505050826001600160a01b0316638129fc1c6040518163ffffffff1660e01b8152600401600060405180830381600087803b15801561081857600080fd5b505af115801561082c573d6000803e3d6000fd5b50505050816001600160a01b0316638129fc1c6040518163ffffffff1660e01b8152600401600060405180830381600087803b15801561086b57600080fd5b505af115801561087f573d6000803e3d6000fd5b50505050836001600160a01b0316638129fc1c6040518163ffffffff1660e01b8152600401600060405180830381600087803b1580156108be57600080fd5b505af11580156108d2573d6000803e3d6000fd5b50506000805492509050806108e683610db1565b919050555060006109583342600054604051606084811b6bffffffffffffffffffffffff1916602083015260348201849052605482018390529060740160408051601f198184030181528282528051602091820120908301520160405160208183030381529060405290509392505050565b336000908152600960205260408120805492935060019290919061097d908490610dca565b90915550503360009081526008602090815260408083208151610120810183526001600160a01b038d811682528b81168286019081528d8216948301948552898216606084019081528b8316608085019081528d841660a086019081528b851660c0870190815260e087018c81528b54610100890152885460018082018b55998d529a909b2087516009909b020180546001600160a01b03199081169b88169b909b178155945197850180548b169887169890981790975596516002840180548a169186169190911790559051600383018054891691851691909117905551600482018054881691841691909117905593516005850180548716918316919091179055915160068401805490951692169190911790925591519091906007820190610aa89082610e42565b50610100820151816008015550507f5a0a70992abd23c9a14c4dcab44c9974920223bbd23b06873f0b68cf8aaf2e5088878986888a8888600054604051610af799989796959493929190610f01565b60405180910390a16040805160e0810182526001600160a01b03998a1681529689166020880152968816968601969096529086166060850152908516608084015290841660a083015290921660c083015260005491959094509092509050565b6001600160a01b0382166000908152600860205260408120805483908110610b8157610b81610d4b565b60009182526020909120600990910201546001600160a01b03169392505050565b6000610321828280763d602d80600a3d3981f3363d3d373d3d3d363d730000008360601b60e81c176000526e5af43d82803e903d91602b57fd5bf38360781b176020526037600983f090506001600160a01b0381166103215760405163b06ebf3d60e01b815260040160405180910390fd5b6040518060e001604052806007906020820280368337509192915050565b80356001600160a01b0381168114610c4957600080fd5b919050565b60008060408385031215610c6157600080fd5b610c6a83610c32565b946020939093013593505050565b600060208284031215610c8a57600080fd5b610c9382610c32565b9392505050565b6000815180845260005b81811015610cc057602081850181015186830182015201610ca4565b506000602082860101526020601f19601f83011685010191505092915050565b602081526000610c936020830184610c9a565b60008185825b6007811015610d215781516001600160a01b0316835260209283019290910190600101610cf9565b50505061012060e0830152610d3a610120830185610c9a565b905082610100830152949350505050565b634e487b7160e01b600052603260045260246000fd5b600181811c90821680610d7557607f821691505b602082108103610d9557634e487b7160e01b600052602260045260246000fd5b50919050565b634e487b7160e01b600052601160045260246000fd5b600060018201610dc357610dc3610d9b565b5060010190565b8082018082111561032157610321610d9b565b634e487b7160e01b600052604160045260246000fd5b601f821115610e3d57806000526020600020601f840160051c81016020851015610e1a5750805b601f840160051c820191505b81811015610e3a5760008155600101610e26565b50505b505050565b815167ffffffffffffffff811115610e5c57610e5c610ddd565b610e7081610e6a8454610d61565b84610df3565b6020601f821160018114610ea45760008315610e8c5750848201515b600019600385901b1c1916600184901b178455610e3a565b600084815260208120601f198516915b82811015610ed45787850151825560209485019460019092019101610eb4565b5084821015610ef25786840151600019600387901b60f8161c191681555b50505050600190811b01905550565b6001600160a01b038a81168252898116602083015288811660408301528781166060830152868116608083015285811660a0830152841660c082015261012060e08201819052600090610f5690830185610c9a565b9050826101008301529a995050505050505050505056fea2646970667358221220d352a5d8adb90c8a5da7785d46602a35e81bf382464b604bb1a4268176d1c75e64736f6c634300081a0033","linkReferences":{}},"methodIdentifiers":{"accessControlsImplementation()":"50adecc0","adaptersImplementation()":"4e50651f","agentsImplementation()":"3f708545","conditionsImplementation()":"1975c143","count()":"06661abd","deployFromFactory()":"c0b4f7f8","evaluationsImplementation()":"d89c0a30","getDeployerNibbleCount(address)":"9762d41e","getNibbleAccessControlsContract(address,uint256)":"b71751ae","getNibbleAdapterContract(address,uint256)":"a2b8d59f","getNibbleAgentContract(address,uint256)":"a6b1b94f","getNibbleConditionContract(address,uint256)":"194648fb","getNibbleCount(address,uint256)":"1eacc632","getNibbleEvaluationContract(address,uint256)":"afa331d7","getNibbleId(address,uint256)":"b25fbe69","getNibbleListenerContract(address,uint256)":"6782af8c","getNibbleStorageContract(address,uint256)":"f7559eb9","listenersImplementation()":"4bdd1f5b","storageImplementation()":"bdf2afe3"},"id":37}