{"abi":[{"type":"function","name":"accessControls","inputs":[],"outputs":[{"name":"","type":"address","internalType":"contract AgentMemeAccessControls"}],"stateMutability":"view"},{"type":"function","name":"initialize","inputs":[{"name":"accessControlsAddress","type":"address","internalType":"address"}],"outputs":[],"stateMutability":"nonpayable"},{"type":"function","name":"initialized","inputs":[],"outputs":[{"name":"","type":"bool","internalType":"bool"}],"stateMutability":"view"},{"type":"error","name":"AlreadyInitialized","inputs":[]}],"bytecode":{"object":"0x6080604052348015600f57600080fd5b506101688061001f6000396000f3fe608060405234801561001057600080fd5b50600436106100415760003560e01c8063158ef93e14610046578063748365ef1461006f578063c4d66de81461009a575b600080fd5b60005461005a90600160a01b900460ff1681565b60405190151581526020015b60405180910390f35b600054610082906001600160a01b031681565b6040516001600160a01b039091168152602001610066565b6100ad6100a8366004610102565b6100af565b005b600054600160a01b900460ff16156100d95760405162dc149f60e41b815260040160405180910390fd5b600080546001600160a01b039092166001600160a81b031990921691909117600160a01b179055565b60006020828403121561011457600080fd5b81356001600160a01b038116811461012b57600080fd5b939250505056fea2646970667358221220b6e80c25dfa2df3bb67b556cad4409ce4e61e8c63cafe436d1ac05ad221a159a64736f6c634300081a0033","linkReferences":{}},"methodIdentifiers":{"accessControls()":"748365ef","initialize(address)":"c4d66de8","initialized()":"158ef93e"},"id":2}