{"abi":[{"type":"function","name":"addAgentAdmin","inputs":[{"name":"_agentAdmin","type":"address","internalType":"address"}],"outputs":[],"stateMutability":"nonpayable"},{"type":"function","name":"addAgentReader","inputs":[{"name":"_reader","type":"address","internalType":"address"}],"outputs":[],"stateMutability":"nonpayable"},{"type":"function","name":"addAgentTokenDistributor","inputs":[{"name":"_tokenDistributor","type":"address","internalType":"address"}],"outputs":[],"stateMutability":"nonpayable"},{"type":"function","name":"addAgentWriter","inputs":[{"name":"_writer","type":"address","internalType":"address"}],"outputs":[],"stateMutability":"nonpayable"},{"type":"function","name":"addHumanWriter","inputs":[{"name":"_writer","type":"address","internalType":"address"}],"outputs":[],"stateMutability":"nonpayable"},{"type":"function","name":"changeAdmin","inputs":[{"name":"newAdmin","type":"address","internalType":"address"}],"outputs":[],"stateMutability":"nonpayable"},{"type":"function","name":"getAdmin","inputs":[],"outputs":[{"name":"","type":"address","internalType":"address"}],"stateMutability":"view"},{"type":"function","name":"hasAgentAdminPermissions","inputs":[{"name":"agentAddress","type":"address","internalType":"address"}],"outputs":[{"name":"","type":"bool","internalType":"bool"}],"stateMutability":"view"},{"type":"function","name":"hasAgentReadPermissions","inputs":[{"name":"agentAddress","type":"address","internalType":"address"}],"outputs":[{"name":"","type":"bool","internalType":"bool"}],"stateMutability":"view"},{"type":"function","name":"hasAgentTokenDistributorPermissions","inputs":[{"name":"agentAddress","type":"address","internalType":"address"}],"outputs":[{"name":"","type":"bool","internalType":"bool"}],"stateMutability":"view"},{"type":"function","name":"hasAgentWritePermissions","inputs":[{"name":"agentAddress","type":"address","internalType":"address"}],"outputs":[{"name":"","type":"bool","internalType":"bool"}],"stateMutability":"view"},{"type":"function","name":"hasHumanWritePermissions","inputs":[{"name":"humanAddress","type":"address","internalType":"address"}],"outputs":[{"name":"","type":"bool","internalType":"bool"}],"stateMutability":"view"},{"type":"function","name":"initialize","inputs":[{"name":"admin","type":"address","internalType":"address"},{"name":"agentWriters","type":"address[]","internalType":"address[]"},{"name":"agentReaders","type":"address[]","internalType":"address[]"},{"name":"agentAdmins","type":"address[]","internalType":"address[]"},{"name":"agentTokenDistributors","type":"address[]","internalType":"address[]"}],"outputs":[],"stateMutability":"nonpayable"},{"type":"function","name":"initialized","inputs":[],"outputs":[{"name":"","type":"bool","internalType":"bool"}],"stateMutability":"view"},{"type":"function","name":"removeAgentAdmin","inputs":[{"name":"_agentAdmin","type":"address","internalType":"address"}],"outputs":[],"stateMutability":"nonpayable"},{"type":"function","name":"removeAgentReader","inputs":[{"name":"_reader","type":"address","internalType":"address"}],"outputs":[],"stateMutability":"nonpayable"},{"type":"function","name":"removeAgentTokenDistributor","inputs":[{"name":"_tokenDistributor","type":"address","internalType":"address"}],"outputs":[],"stateMutability":"nonpayable"},{"type":"function","name":"removeAgentWriter","inputs":[{"name":"_writer","type":"address","internalType":"address"}],"outputs":[],"stateMutability":"nonpayable"},{"type":"function","name":"removeHumanWriter","inputs":[{"name":"_writer","type":"address","internalType":"address"}],"outputs":[],"stateMutability":"nonpayable"},{"type":"event","name":"AdminChanged","inputs":[{"name":"oldAdmin","type":"address","indexed":true,"internalType":"address"},{"name":"newAdmin","type":"address","indexed":true,"internalType":"address"}],"anonymous":false},{"type":"event","name":"RoleGranted","inputs":[{"name":"agent","type":"address","indexed":true,"internalType":"address"},{"name":"role","type":"string","indexed":false,"internalType":"string"}],"anonymous":false},{"type":"event","name":"RoleRevoked","inputs":[{"name":"agent","type":"address","indexed":true,"internalType":"address"},{"name":"role","type":"string","indexed":false,"internalType":"string"}],"anonymous":false},{"type":"error","name":"AdminCantBeZero","inputs":[]},{"type":"error","name":"AlreadyInitialized","inputs":[]},{"type":"error","name":"OnlyAdmin","inputs":[]}],"bytecode":{"object":"0x6080604052348015600f57600080fd5b50610ef98061001f6000396000f3fe608060405234801561001057600080fd5b50600436106101215760003560e01c806396e41a1c116100ad578063a8d81ae711610071578063a8d81ae71461029b578063c98817f2146102c7578063cdf1b693146102f3578063e7542acb14610306578063edb398531461031957600080fd5b806396e41a1c1461020a578063a1a5d5e71461021d578063a204526b14610230578063a59ce4df14610243578063a7c527121461026f57600080fd5b806367da29ff116100f457806367da29ff1461018a5780636a6b8e9e146101b65780636e9960c3146101c95780638f283970146101e457806394c9a70d146101f757600080fd5b8063139138b814610126578063158ef93e1461013b57806316bba0141461016457806365d07b2e14610177575b600080fd5b610139610134366004610c21565b61032c565b005b60005461014f90600160a01b900460ff1681565b60405190151581526020015b60405180910390f35b610139610172366004610c21565b6103bc565b610139610185366004610c21565b610441565b61014f610198366004610c21565b6001600160a01b031660009081526001602052604090205460ff1690565b6101396101c4366004610c21565b6104a8565b6000546040516001600160a01b03909116815260200161015b565b6101396101f2366004610c21565b610532565b610139610205366004610c21565b6105df565b610139610218366004610c21565b610669565b61013961022b366004610c21565b6106f1565b61013961023e366004610cff565b610776565b61014f610251366004610c21565b6001600160a01b031660009081526005602052604090205460ff1690565b61014f61027d366004610c21565b6001600160a01b031660009081526004602052604090205460ff1690565b61014f6102a9366004610c21565b6001600160a01b031660009081526002602052604090205460ff1690565b61014f6102d5366004610c21565b6001600160a01b031660009081526003602052604090205460ff1690565b610139610301366004610c21565b610a8c565b610139610314366004610c21565b610af6565b610139610327366004610c21565b610b7e565b6000546001600160a01b0316331480159061035757503360009081526002602052604090205460ff16155b1561037557604051634755657960e01b815260040160405180910390fd5b6001600160a01b03811660008181526001602052604090819020805460ff1916905551600080516020610ea4833981519152906103b190610dd0565b60405180910390a250565b6000546001600160a01b031633148015906103e757503360009081526002602052604090205460ff16155b1561040557604051634755657960e01b815260040160405180910390fd5b6001600160a01b03811660008181526004602052604090819020805460ff1916905551600080516020610ea4833981519152906103b190610df5565b6000546001600160a01b0316331461046c57604051634755657960e01b815260040160405180910390fd5b6001600160a01b03811660008181526002602052604090819020805460ff1916905551600080516020610ea4833981519152906103b190610e1a565b6000546001600160a01b031633146104d357604051634755657960e01b815260040160405180910390fd5b6001600160a01b03811660008181526003602052604090819020805460ff1916600117905551600080516020610e84833981519152906103b1906020808252600b908201526a343ab6b0b72bb934ba32b960a91b604082015260600190565b6000546001600160a01b0316331461055d57604051634755657960e01b815260040160405180910390fd5b6001600160a01b03811661058457604051630df7191f60e11b815260040160405180910390fd5b600080546040516001600160a01b03808516939216917f7e644d79422f17c01e4894b5f4f588d331ebfa28653d42ae832dc59e38c9798f91a3600080546001600160a01b0319166001600160a01b0392909216919091179055565b6000546001600160a01b0316331480159061060a57503360009081526002602052604090205460ff16155b1561062857604051634755657960e01b815260040160405180910390fd5b6001600160a01b038116600081815260016020819052604091829020805460ff1916909117905551600080516020610e84833981519152906103b190610dd0565b6000546001600160a01b0316331480159061069457503360009081526002602052604090205460ff16155b156106b257604051634755657960e01b815260040160405180910390fd5b6001600160a01b03811660008181526005602052604090819020805460ff1916600117905551600080516020610e84833981519152906103b190610e3e565b6000546001600160a01b0316331480159061071c57503360009081526002602052604090205460ff16155b1561073a57604051634755657960e01b815260040160405180910390fd5b6001600160a01b03811660008181526005602052604090819020805460ff1916905551600080516020610ea4833981519152906103b190610e3e565b600054600160a01b900460ff16156107a05760405162dc149f60e41b815260040160405180910390fd5b600080546001600160a81b0319166001600160a01b03871617600160a01b1781555b845181101561086f5760018060008784815181106107e2576107e2610e6d565b60200260200101516001600160a01b03166001600160a01b0316815260200190815260200160002060006101000a81548160ff02191690831515021790555084818151811061083357610833610e6d565b60200260200101516001600160a01b0316600080516020610e8483398151915260405161085f90610dd0565b60405180910390a26001016107c2565b5060005b835181101561092057600180600086848151811061089357610893610e6d565b60200260200101516001600160a01b03166001600160a01b0316815260200190815260200160002060006101000a81548160ff0219169083151502179055508381815181106108e4576108e4610e6d565b60200260200101516001600160a01b0316600080516020610e8483398151915260405161091090610df5565b60405180910390a2600101610873565b5060005b82518110156109d25760016002600085848151811061094557610945610e6d565b60200260200101516001600160a01b03166001600160a01b0316815260200190815260200160002060006101000a81548160ff02191690831515021790555082818151811061099657610996610e6d565b60200260200101516001600160a01b0316600080516020610e848339815191526040516109c290610e1a565b60405180910390a2600101610924565b5060005b8151811015610a84576001600560008484815181106109f7576109f7610e6d565b60200260200101516001600160a01b03166001600160a01b0316815260200190815260200160002060006101000a81548160ff021916908315150217905550818181518110610a4857610a48610e6d565b60200260200101516001600160a01b0316600080516020610e84833981519152604051610a7490610e3e565b60405180910390a26001016109d6565b505050505050565b6000546001600160a01b03163314610ab757604051634755657960e01b815260040160405180910390fd5b6001600160a01b03811660008181526002602052604090819020805460ff1916600117905551600080516020610e84833981519152906103b190610e1a565b6000546001600160a01b03163314801590610b2157503360009081526002602052604090205460ff16155b15610b3f57604051634755657960e01b815260040160405180910390fd5b6001600160a01b03811660008181526004602052604090819020805460ff1916600117905551600080516020610e84833981519152906103b190610df5565b6000546001600160a01b03163314610ba957604051634755657960e01b815260040160405180910390fd5b6001600160a01b03811660008181526003602052604090819020805460ff1916905551600080516020610ea4833981519152906103b1906020808252600b908201526a343ab6b0b72bb934ba32b960a91b604082015260600190565b80356001600160a01b0381168114610c1c57600080fd5b919050565b600060208284031215610c3357600080fd5b610c3c82610c05565b9392505050565b634e487b7160e01b600052604160045260246000fd5b600082601f830112610c6a57600080fd5b813567ffffffffffffffff811115610c8457610c84610c43565b8060051b604051601f19603f830116810181811067ffffffffffffffff82111715610cb157610cb1610c43565b604052918252602081850181019290810186841115610ccf57600080fd5b6020860192505b83831015610cf557610ce783610c05565b815260209283019201610cd6565b5095945050505050565b600080600080600060a08688031215610d1757600080fd5b610d2086610c05565b9450602086013567ffffffffffffffff811115610d3c57600080fd5b610d4888828901610c59565b945050604086013567ffffffffffffffff811115610d6557600080fd5b610d7188828901610c59565b935050606086013567ffffffffffffffff811115610d8e57600080fd5b610d9a88828901610c59565b925050608086013567ffffffffffffffff811115610db757600080fd5b610dc388828901610c59565b9150509295509295909350565b6020808252600b908201526a30b3b2b73a2bb934ba32b960a91b604082015260600190565b6020808252600b908201526a30b3b2b73a2932b0b232b960a91b604082015260600190565b6020808252600a908201526930b3b2b73a20b236b4b760b11b604082015260600190565b60208082526015908201527430b3b2b73a2a37b5b2b72234b9ba3934b13aba37b960591b604082015260600190565b634e487b7160e01b600052603260045260246000fdfeb710f7d3e79cb091613cfea70444ea824ad23f2b1297bdea427bc6f097e346a89f43a01c0d4ff5aff09b3b9b472df707ceefd3f948f8942f10fa1562a8921304a2646970667358221220851f61f86befa28550e74cc11ff74f515a829f898a7bb9eb1809983236b1c59464736f6c634300081a0033","linkReferences":{}},"methodIdentifiers":{"addAgentAdmin(address)":"cdf1b693","addAgentReader(address)":"e7542acb","addAgentTokenDistributor(address)":"96e41a1c","addAgentWriter(address)":"94c9a70d","addHumanWriter(address)":"6a6b8e9e","changeAdmin(address)":"8f283970","getAdmin()":"6e9960c3","hasAgentAdminPermissions(address)":"a8d81ae7","hasAgentReadPermissions(address)":"a7c52712","hasAgentTokenDistributorPermissions(address)":"a59ce4df","hasAgentWritePermissions(address)":"67da29ff","hasHumanWritePermissions(address)":"c98817f2","initialize(address,address[],address[],address[],address[])":"a204526b","initialized()":"158ef93e","removeAgentAdmin(address)":"65d07b2e","removeAgentReader(address)":"16bba014","removeAgentTokenDistributor(address)":"a1a5d5e7","removeAgentWriter(address)":"139138b8","removeHumanWriter(address)":"edb39853"},"id":1}