{"abi":[{"type":"constructor","inputs":[{"name":"admin","type":"address","internalType":"address"},{"name":"agentWriters","type":"address[]","internalType":"address[]"},{"name":"agentReaders","type":"address[]","internalType":"address[]"},{"name":"agentAdmins","type":"address[]","internalType":"address[]"},{"name":"agentTokenDistributors","type":"address[]","internalType":"address[]"}],"stateMutability":"nonpayable"},{"type":"function","name":"addAgentAdmin","inputs":[{"name":"_agentAdmin","type":"address","internalType":"address"}],"outputs":[],"stateMutability":"nonpayable"},{"type":"function","name":"addAgentReader","inputs":[{"name":"_reader","type":"address","internalType":"address"}],"outputs":[],"stateMutability":"nonpayable"},{"type":"function","name":"addAgentTokenDistributor","inputs":[{"name":"_tokenDistributor","type":"address","internalType":"address"}],"outputs":[],"stateMutability":"nonpayable"},{"type":"function","name":"addAgentWriter","inputs":[{"name":"_writer","type":"address","internalType":"address"}],"outputs":[],"stateMutability":"nonpayable"},{"type":"function","name":"addHumanWriter","inputs":[{"name":"_writer","type":"address","internalType":"address"}],"outputs":[],"stateMutability":"nonpayable"},{"type":"function","name":"changeAdmin","inputs":[{"name":"newAdmin","type":"address","internalType":"address"}],"outputs":[],"stateMutability":"nonpayable"},{"type":"function","name":"getAdmin","inputs":[],"outputs":[{"name":"","type":"address","internalType":"address"}],"stateMutability":"view"},{"type":"function","name":"hasAgentAdminPermissions","inputs":[{"name":"agentAddress","type":"address","internalType":"address"}],"outputs":[{"name":"","type":"bool","internalType":"bool"}],"stateMutability":"view"},{"type":"function","name":"hasAgentReadPermissions","inputs":[{"name":"agentAddress","type":"address","internalType":"address"}],"outputs":[{"name":"","type":"bool","internalType":"bool"}],"stateMutability":"view"},{"type":"function","name":"hasAgentTokenDistributorPermissions","inputs":[{"name":"agentAddress","type":"address","internalType":"address"}],"outputs":[{"name":"","type":"bool","internalType":"bool"}],"stateMutability":"view"},{"type":"function","name":"hasAgentWritePermissions","inputs":[{"name":"agentAddress","type":"address","internalType":"address"}],"outputs":[{"name":"","type":"bool","internalType":"bool"}],"stateMutability":"view"},{"type":"function","name":"hasHumanWritePermissions","inputs":[{"name":"humanAddress","type":"address","internalType":"address"}],"outputs":[{"name":"","type":"bool","internalType":"bool"}],"stateMutability":"view"},{"type":"function","name":"removeAgentAdmin","inputs":[{"name":"_agentAdmin","type":"address","internalType":"address"}],"outputs":[],"stateMutability":"nonpayable"},{"type":"function","name":"removeAgentReader","inputs":[{"name":"_reader","type":"address","internalType":"address"}],"outputs":[],"stateMutability":"nonpayable"},{"type":"function","name":"removeAgentTokenDistributor","inputs":[{"name":"_tokenDistributor","type":"address","internalType":"address"}],"outputs":[],"stateMutability":"nonpayable"},{"type":"function","name":"removeAgentWriter","inputs":[{"name":"_writer","type":"address","internalType":"address"}],"outputs":[],"stateMutability":"nonpayable"},{"type":"function","name":"removeHumanWriter","inputs":[{"name":"_writer","type":"address","internalType":"address"}],"outputs":[],"stateMutability":"nonpayable"},{"type":"event","name":"AdminChanged","inputs":[{"name":"oldAdmin","type":"address","indexed":true,"internalType":"address"},{"name":"newAdmin","type":"address","indexed":true,"internalType":"address"}],"anonymous":false},{"type":"event","name":"RoleGranted","inputs":[{"name":"agent","type":"address","indexed":true,"internalType":"address"},{"name":"role","type":"string","indexed":false,"internalType":"string"}],"anonymous":false},{"type":"event","name":"RoleRevoked","inputs":[{"name":"agent","type":"address","indexed":true,"internalType":"address"},{"name":"role","type":"string","indexed":false,"internalType":"string"}],"anonymous":false},{"type":"error","name":"AdminCantBeZero","inputs":[]},{"type":"error","name":"OnlyAdmin","inputs":[]}],"bytecode":{"object":"0x608060405234801561001057600080fd5b5060405161100438038061100483398101604081905261002f91610481565b600080546001600160a01b0319166001600160a01b0387161781555b845181101561011857600180600087848151811061006b5761006b610555565b60200260200101516001600160a01b03166001600160a01b0316815260200190815260200160002060006101000a81548160ff0219169083151502179055508481815181106100bc576100bc610555565b60200260200101516001600160a01b0316600080516020610fe4833981519152604051610108906020808252600b908201526a30b3b2b73a2bb934ba32b960a91b604082015260600190565b60405180910390a260010161004b565b5060005b83518110156101e957600180600086848151811061013c5761013c610555565b60200260200101516001600160a01b03166001600160a01b0316815260200190815260200160002060006101000a81548160ff02191690831515021790555083818151811061018d5761018d610555565b60200260200101516001600160a01b0316600080516020610fe48339815191526040516101d9906020808252600b908201526a30b3b2b73a2932b0b232b960a91b604082015260600190565b60405180910390a260010161011c565b5060005b82518110156102ba5760016002600085848151811061020e5761020e610555565b60200260200101516001600160a01b03166001600160a01b0316815260200190815260200160002060006101000a81548160ff02191690831515021790555082818151811061025f5761025f610555565b60200260200101516001600160a01b0316600080516020610fe48339815191526040516102aa906020808252600a908201526930b3b2b73a20b236b4b760b11b604082015260600190565b60405180910390a26001016101ed565b5060005b815181101561039e576001600560008484815181106102df576102df610555565b60200260200101516001600160a01b03166001600160a01b0316815260200190815260200160002060006101000a81548160ff02191690831515021790555081818151811061033057610330610555565b60200260200101516001600160a01b0316600080516020610fe483398151915260405161038e9060208082526015908201527f6167656e74546f6b656e4469737472696275746f720000000000000000000000604082015260600190565b60405180910390a26001016102be565b50505050505061056b565b80516001600160a01b03811681146103c057600080fd5b919050565b634e487b7160e01b600052604160045260246000fd5b600082601f8301126103ec57600080fd5b81516001600160401b03811115610405576104056103c5565b604051600582901b90603f8201601f191681016001600160401b0381118282101715610433576104336103c5565b60405291825260208185018101929081018684111561045157600080fd5b6020860192505b8383101561047757610469836103a9565b815260209283019201610458565b5095945050505050565b600080600080600060a0868803121561049957600080fd5b6104a2866103a9565b60208701519095506001600160401b038111156104be57600080fd5b6104ca888289016103db565b604088015190955090506001600160401b038111156104e857600080fd5b6104f4888289016103db565b606088015190945090506001600160401b0381111561051257600080fd5b61051e888289016103db565b608088015190935090506001600160401b0381111561053c57600080fd5b610548888289016103db565b9150509295509295909350565b634e487b7160e01b600052603260045260246000fd5b610a6a8061057a6000396000f3fe608060405234801561001057600080fd5b506004361061010b5760003560e01c806396e41a1c116100a2578063a8d81ae711610071578063a8d81ae71461025e578063c98817f21461028a578063cdf1b693146102b6578063e7542acb146102c9578063edb39853146102dc57600080fd5b806396e41a1c146101e0578063a1a5d5e7146101f3578063a59ce4df14610206578063a7c527121461023257600080fd5b80636a6b8e9e116100de5780636a6b8e9e1461018c5780636e9960c31461019f5780638f283970146101ba57806394c9a70d146101cd57600080fd5b8063139138b81461011057806316bba0141461012557806365d07b2e1461013857806367da29ff1461014b575b600080fd5b61012361011e3660046109c4565b6102ef565b005b6101236101333660046109c4565b61039f565b6101236101463660046109c4565b610444565b6101776101593660046109c4565b6001600160a01b031660009081526001602052604090205460ff1690565b60405190151581526020015b60405180910390f35b61012361019a3660046109c4565b6104ca565b6000546040516001600160a01b039091168152602001610183565b6101236101c83660046109c4565b610554565b6101236101db3660046109c4565b610601565b6101236101ee3660046109c4565b6106ab565b6101236102013660046109c4565b61075d565b6101776102143660046109c4565b6001600160a01b031660009081526005602052604090205460ff1690565b6101776102403660046109c4565b6001600160a01b031660009081526004602052604090205460ff1690565b61017761026c3660046109c4565b6001600160a01b031660009081526002602052604090205460ff1690565b6101776102983660046109c4565b6001600160a01b031660009081526003602052604090205460ff1690565b6101236102c43660046109c4565b61080c565b6101236102d73660046109c4565b610895565b6101236102ea3660046109c4565b61093d565b6000546001600160a01b0316331480159061031a57503360009081526002602052604090205460ff16155b1561033857604051634755657960e01b815260040160405180910390fd5b6001600160a01b03811660008181526001602052604090819020805460ff1916905551600080516020610a1583398151915290610394906020808252600b908201526a30b3b2b73a2bb934ba32b960a91b604082015260600190565b60405180910390a250565b6000546001600160a01b031633148015906103ca57503360009081526002602052604090205460ff16155b156103e857604051634755657960e01b815260040160405180910390fd5b6001600160a01b03811660008181526004602052604090819020805460ff1916905551600080516020610a1583398151915290610394906020808252600b908201526a30b3b2b73a2932b0b232b960a91b604082015260600190565b6000546001600160a01b0316331461046f57604051634755657960e01b815260040160405180910390fd5b6001600160a01b03811660008181526002602052604090819020805460ff1916905551600080516020610a1583398151915290610394906020808252600a908201526930b3b2b73a20b236b4b760b11b604082015260600190565b6000546001600160a01b031633146104f557604051634755657960e01b815260040160405180910390fd5b6001600160a01b03811660008181526003602052604090819020805460ff19166001179055516000805160206109f583398151915290610394906020808252600b908201526a343ab6b0b72bb934ba32b960a91b604082015260600190565b6000546001600160a01b0316331461057f57604051634755657960e01b815260040160405180910390fd5b6001600160a01b0381166105a657604051630df7191f60e11b815260040160405180910390fd5b600080546040516001600160a01b03808516939216917f7e644d79422f17c01e4894b5f4f588d331ebfa28653d42ae832dc59e38c9798f91a3600080546001600160a01b0319166001600160a01b0392909216919091179055565b6000546001600160a01b0316331480159061062c57503360009081526002602052604090205460ff16155b1561064a57604051634755657960e01b815260040160405180910390fd5b6001600160a01b038116600081815260016020819052604091829020805460ff19169091179055516000805160206109f583398151915290610394906020808252600b908201526a30b3b2b73a2bb934ba32b960a91b604082015260600190565b6000546001600160a01b031633148015906106d657503360009081526002602052604090205460ff16155b156106f457604051634755657960e01b815260040160405180910390fd5b6001600160a01b03811660008181526005602052604090819020805460ff19166001179055516000805160206109f5833981519152906103949060208082526015908201527430b3b2b73a2a37b5b2b72234b9ba3934b13aba37b960591b604082015260600190565b6000546001600160a01b0316331480159061078857503360009081526002602052604090205460ff16155b156107a657604051634755657960e01b815260040160405180910390fd5b6001600160a01b03811660008181526005602052604090819020805460ff1916905551600080516020610a15833981519152906103949060208082526015908201527430b3b2b73a2a37b5b2b72234b9ba3934b13aba37b960591b604082015260600190565b6000546001600160a01b0316331461083757604051634755657960e01b815260040160405180910390fd5b6001600160a01b03811660008181526002602052604090819020805460ff19166001179055516000805160206109f583398151915290610394906020808252600a908201526930b3b2b73a20b236b4b760b11b604082015260600190565b6000546001600160a01b031633148015906108c057503360009081526002602052604090205460ff16155b156108de57604051634755657960e01b815260040160405180910390fd5b6001600160a01b03811660008181526004602052604090819020805460ff19166001179055516000805160206109f583398151915290610394906020808252600b908201526a30b3b2b73a2932b0b232b960a91b604082015260600190565b6000546001600160a01b0316331461096857604051634755657960e01b815260040160405180910390fd5b6001600160a01b03811660008181526003602052604090819020805460ff1916905551600080516020610a1583398151915290610394906020808252600b908201526a343ab6b0b72bb934ba32b960a91b604082015260600190565b6000602082840312156109d657600080fd5b81356001600160a01b03811681146109ed57600080fd5b939250505056feb710f7d3e79cb091613cfea70444ea824ad23f2b1297bdea427bc6f097e346a89f43a01c0d4ff5aff09b3b9b472df707ceefd3f948f8942f10fa1562a8921304a2646970667358221220f72087708dbab7297a60e499655845ad6a9880406ee3ee8d39a372da0639859f64736f6c634300081a0033b710f7d3e79cb091613cfea70444ea824ad23f2b1297bdea427bc6f097e346a8","linkReferences":{}},"methodIdentifiers":{"addAgentAdmin(address)":"cdf1b693","addAgentReader(address)":"e7542acb","addAgentTokenDistributor(address)":"96e41a1c","addAgentWriter(address)":"94c9a70d","addHumanWriter(address)":"6a6b8e9e","changeAdmin(address)":"8f283970","getAdmin()":"6e9960c3","hasAgentAdminPermissions(address)":"a8d81ae7","hasAgentReadPermissions(address)":"a7c52712","hasAgentTokenDistributorPermissions(address)":"a59ce4df","hasAgentWritePermissions(address)":"67da29ff","hasHumanWritePermissions(address)":"c98817f2","removeAgentAdmin(address)":"65d07b2e","removeAgentReader(address)":"16bba014","removeAgentTokenDistributor(address)":"a1a5d5e7","removeAgentWriter(address)":"139138b8","removeHumanWriter(address)":"edb39853"},"id":5}