{"abi":[{"type":"function","name":"addOrModifyAdaptersBatch","inputs":[{"name":"adapters","type":"tuple","internalType":"struct NibbleLibrary.ModifyAdapters","components":[{"name":"conditions","type":"tuple[]","internalType":"struct NibbleLibrary.Condition[]","components":[{"name":"id","type":"bytes","internalType":"bytes"},{"name":"metadata","type":"string","internalType":"string"},{"name":"encrypted","type":"bool","internalType":"bool"}]},{"name":"listeners","type":"tuple[]","internalType":"struct NibbleLibrary.Listener[]","components":[{"name":"id","type":"bytes","internalType":"bytes"},{"name":"metadata","type":"string","internalType":"string"},{"name":"encrypted","type":"bool","internalType":"bool"}]},{"name":"connectors","type":"tuple[]","internalType":"struct NibbleLibrary.Connector[]","components":[{"name":"id","type":"bytes","internalType":"bytes"},{"name":"metadata","type":"string","internalType":"string"},{"name":"encrypted","type":"bool","internalType":"bool"},{"name":"onChain","type":"bool","internalType":"bool"}]},{"name":"agents","type":"tuple[]","internalType":"struct NibbleLibrary.Agent[]","components":[{"name":"id","type":"bytes","internalType":"bytes"},{"name":"metadata","type":"string","internalType":"string"},{"name":"wallet","type":"address","internalType":"address"},{"name":"encrypted","type":"bool","internalType":"bool"},{"name":"writer","type":"bool","internalType":"bool"}]},{"name":"evaluations","type":"tuple[]","internalType":"struct NibbleLibrary.Evaluation[]","components":[{"name":"id","type":"bytes","internalType":"bytes"},{"name":"metadata","type":"string","internalType":"string"},{"name":"encrypted","type":"bool","internalType":"bool"}]},{"name":"fheGates","type":"tuple[]","internalType":"struct NibbleLibrary.FHEGate[]","components":[{"name":"id","type":"bytes","internalType":"bytes"},{"name":"metadata","type":"string","internalType":"string"},{"name":"encrypted","type":"bool","internalType":"bool"}]}]}],"outputs":[],"stateMutability":"nonpayable"},{"type":"function","name":"addOrModifyWorkflow","inputs":[{"name":"workflow","type":"tuple","internalType":"struct NibbleLibrary.Workflow","components":[{"name":"id","type":"bytes","internalType":"bytes"},{"name":"metadata","type":"string","internalType":"string"},{"name":"encrypted","type":"bool","internalType":"bool"}]}],"outputs":[],"stateMutability":"nonpayable"},{"type":"function","name":"initialize","inputs":[{"name":"nibbleFactoryAddress","type":"address","internalType":"address"},{"name":"nibbleAccessControlsAddress","type":"address","internalType":"address"},{"name":"nibbleConditionsAddress","type":"address","internalType":"address"},{"name":"nibbleListenersAddress","type":"address","internalType":"address"},{"name":"nibbleConnectorsAddress","type":"address","internalType":"address"},{"name":"nibbleAgentsAddress","type":"address","internalType":"address"},{"name":"nibbleEvaluationsAddress","type":"address","internalType":"address"},{"name":"nibbleFHEGatesAddress","type":"address","internalType":"address"},{"name":"nibbleWorkflowsAddress","type":"address","internalType":"address"}],"outputs":[],"stateMutability":"nonpayable"},{"type":"function","name":"nibbleAccessControls","inputs":[],"outputs":[{"name":"","type":"address","internalType":"contract NibbleAccessControls"}],"stateMutability":"view"},{"type":"function","name":"nibbleAgents","inputs":[],"outputs":[{"name":"","type":"address","internalType":"contract NibbleAgents"}],"stateMutability":"view"},{"type":"function","name":"nibbleConditions","inputs":[],"outputs":[{"name":"","type":"address","internalType":"contract NibbleConditions"}],"stateMutability":"view"},{"type":"function","name":"nibbleConnectors","inputs":[],"outputs":[{"name":"","type":"address","internalType":"contract NibbleConnectors"}],"stateMutability":"view"},{"type":"function","name":"nibbleEvaluations","inputs":[],"outputs":[{"name":"","type":"address","internalType":"contract NibbleEvaluations"}],"stateMutability":"view"},{"type":"function","name":"nibbleFHEGates","inputs":[],"outputs":[{"name":"","type":"address","internalType":"contract NibbleFHEGates"}],"stateMutability":"view"},{"type":"function","name":"nibbleListeners","inputs":[],"outputs":[{"name":"","type":"address","internalType":"contract NibbleListeners"}],"stateMutability":"view"},{"type":"function","name":"nibbleWorkflows","inputs":[],"outputs":[{"name":"","type":"address","internalType":"contract NibbleWorkflows"}],"stateMutability":"view"},{"type":"function","name":"removeAdaptersBatch","inputs":[{"name":"adapters","type":"tuple","internalType":"struct NibbleLibrary.RemoveAdapters","components":[{"name":"conditions","type":"bytes[]","internalType":"bytes[]"},{"name":"listeners","type":"bytes[]","internalType":"bytes[]"},{"name":"connectors","type":"bytes[]","internalType":"bytes[]"},{"name":"agents","type":"bytes[]","internalType":"bytes[]"},{"name":"evaluations","type":"bytes[]","internalType":"bytes[]"},{"name":"fheGates","type":"bytes[]","internalType":"bytes[]"}]}],"outputs":[],"stateMutability":"nonpayable"},{"type":"function","name":"removeWorkflow","inputs":[{"name":"workflowId","type":"bytes","internalType":"bytes"}],"outputs":[],"stateMutability":"nonpayable"},{"type":"event","name":"AdaptersDeleted","inputs":[{"name":"writer","type":"address","indexed":false,"internalType":"address"}],"anonymous":false},{"type":"event","name":"AdaptersModified","inputs":[{"name":"writer","type":"address","indexed":false,"internalType":"address"}],"anonymous":false},{"type":"event","name":"Initialized","inputs":[{"name":"version","type":"uint64","indexed":false,"internalType":"uint64"}],"anonymous":false},{"type":"event","name":"WorkflowDeleted","inputs":[{"name":"workflowId","type":"bytes","indexed":false,"internalType":"bytes"},{"name":"writer","type":"address","indexed":false,"internalType":"address"}],"anonymous":false},{"type":"event","name":"WorkflowModified","inputs":[{"name":"workflowId","type":"bytes","indexed":false,"internalType":"bytes"},{"name":"writer","type":"address","indexed":false,"internalType":"address"}],"anonymous":false},{"type":"error","name":"AlreadyInitialized","inputs":[]},{"type":"error","name":"InvalidInitialization","inputs":[]},{"type":"error","name":"InvalidInitializer","inputs":[]},{"type":"error","name":"InvalidRole","inputs":[]},{"type":"error","name":"NotInitializing","inputs":[]}],"bytecode":{"object":"0x6080604052348015600f57600080fd5b50611ae48061001f6000396000f3fe608060405234801561001057600080fd5b50600436106100cf5760003560e01c80639c081d2c1161008c578063b08ee2c811610066578063b08ee2c81461019d578063c3962e3c146101b0578063e89b2283146101c3578063f5e95acb146101d657600080fd5b80639c081d2c146101645780639cc6eb5f14610177578063a4a1a01d1461018a57600080fd5b8063153800cd146100d457806334d8776a146100e9578063418906ef146100fc5780636671f69a1461012b5780637a19b9fa1461013e578063907e9c0814610151575b600080fd5b6100e76100e2366004610f73565b6101e9565b005b6100e76100f736600461116f565b6105be565b60075461010f906001600160a01b031681565b6040516001600160a01b03909116815260200160405180910390f35b6100e761013936600461148d565b610751565b60035461010f906001600160a01b031681565b6100e761015f3660046115c5565b610b20565b60005461010f906001600160a01b031681565b60065461010f906001600160a01b031681565b60055461010f906001600160a01b031681565b60025461010f906001600160a01b031681565b60045461010f906001600160a01b031681565b60015461010f906001600160a01b031681565b6100e76101e43660046115f9565b610cb2565b600054604051633cd4605360e11b81523360048201526001600160a01b03909116906379a8c0a690602401602060405180830381865afa158015610231573d6000803e3d6000fd5b505050506040513d601f19601f8201168201806040525081019061025591906116a1565b15806102ca575060005460405163f328ac9f60e01b81523360048201526001600160a01b039091169063f328ac9f90602401602060405180830381865afa1580156102a4573d6000803e3d6000fd5b505050506040513d601f19601f820116820180604052508101906102c891906116a1565b155b156102e857604051636caa20b560e11b815260040160405180910390fd5b8051511561035357600154815160405163068aaefb60e51b81526001600160a01b039092169163d155df60916103209160040161170b565b600060405180830381600087803b15801561033a57600080fd5b505af115801561034e573d6000803e3d6000fd5b505050505b602081015151156103c3576002546020820151604051623cab1360e31b81526001600160a01b03909216916301e55898916103909160040161170b565b600060405180830381600087803b1580156103aa57600080fd5b505af11580156103be573d6000803e3d6000fd5b505050505b6040810151511561043457600354604080830151905163e8b2fd1f60e01b81526001600160a01b039092169163e8b2fd1f916104019160040161170b565b600060405180830381600087803b15801561041b57600080fd5b505af115801561042f573d6000803e3d6000fd5b505050505b606081015151156104a55760048054606083015160405163d558fb7b60e01b81526001600160a01b039092169263d558fb7b9261047292910161170b565b600060405180830381600087803b15801561048c57600080fd5b505af11580156104a0573d6000803e3d6000fd5b505050505b60808101515115610516576005546080820151604051631eb887e760e21b81526001600160a01b0390921691637ae21f9c916104e39160040161170b565b600060405180830381600087803b1580156104fd57600080fd5b505af1158015610511573d6000803e3d6000fd5b505050505b60a081015151156105875760065460a0820151604051636731232f60e01b81526001600160a01b0390921691636731232f916105549160040161170b565b600060405180830381600087803b15801561056e57600080fd5b505af1158015610582573d6000803e3d6000fd5b505050505b6040513381527f0ce1ce940ad9e130f4eeb8c3d576f37af991329763057ae32880fcd69556f86f906020015b60405180910390a150565b600054604051633cd4605360e11b81523360048201526001600160a01b03909116906379a8c0a690602401602060405180830381865afa158015610606573d6000803e3d6000fd5b505050506040513d601f19601f8201168201806040525081019061062a91906116a1565b158061069f575060005460405163f328ac9f60e01b81523360048201526001600160a01b039091169063f328ac9f90602401602060405180830381865afa158015610679573d6000803e3d6000fd5b505050506040513d601f19601f8201168201806040525081019061069d91906116a1565b155b156106bd57604051636caa20b560e11b815260040160405180910390fd5b600754604051631a6c3bb560e11b81526001600160a01b03909116906334d8776a906106ed9084906004016117b7565b600060405180830381600087803b15801561070757600080fd5b505af115801561071b573d6000803e3d6000fd5b505082516040517f0405face110f5500afa65ad5d0bdaf11b87e504c934e05161f8dea8f9729d3e493506105b3925033906117ca565b600054604051633cd4605360e11b81523360048201526001600160a01b03909116906379a8c0a690602401602060405180830381865afa158015610799573d6000803e3d6000fd5b505050506040513d601f19601f820116820180604052508101906107bd91906116a1565b1580610832575060005460405163f328ac9f60e01b81523360048201526001600160a01b039091169063f328ac9f90602401602060405180830381865afa15801561080c573d6000803e3d6000fd5b505050506040513d601f19601f8201168201806040525081019061083091906116a1565b155b1561085057604051636caa20b560e11b815260040160405180910390fd5b805151156108bb576001548151604051631c9e79d160e11b81526001600160a01b039092169163393cf3a291610888916004016117f4565b600060405180830381600087803b1580156108a257600080fd5b505af11580156108b6573d6000803e3d6000fd5b505050505b6020810151511561092c57600254602082015160405163f7d9096b60e01b81526001600160a01b039092169163f7d9096b916108f99160040161184d565b600060405180830381600087803b15801561091357600080fd5b505af1158015610927573d6000803e3d6000fd5b505050505b6040810151511561099d576003546040808301519051630e2e51db60e11b81526001600160a01b0390921691631c5ca3b69161096a916004016118a6565b600060405180830381600087803b15801561098457600080fd5b505af1158015610998573d6000803e3d6000fd5b505050505b60608101515115610a0e57600480546060830151604051631cb8bc1360e31b81526001600160a01b039092169263e5c5e098926109db92910161193e565b600060405180830381600087803b1580156109f557600080fd5b505af1158015610a09573d6000803e3d6000fd5b505050505b60808101515115610a7f57600554608082015160405163828b73e560e01b81526001600160a01b039092169163828b73e591610a4c916004016119e9565b600060405180830381600087803b158015610a6657600080fd5b505af1158015610a7a573d6000803e3d6000fd5b505050505b60a08101515115610af05760065460a0820151604051632dfc043760e21b81526001600160a01b039092169163b7f010dc91610abd91600401611a42565b600060405180830381600087803b158015610ad757600080fd5b505af1158015610aeb573d6000803e3d6000fd5b505050505b6040513381527feeee0ddb2cced55315c5c3afb5d4f3aa7c0086bcb9fb8a4be7c0fbb0589ceda1906020016105b3565b600054604051633cd4605360e11b81523360048201526001600160a01b03909116906379a8c0a690602401602060405180830381865afa158015610b68573d6000803e3d6000fd5b505050506040513d601f19601f82011682018060405250810190610b8c91906116a1565b1580610c01575060005460405163f328ac9f60e01b81523360048201526001600160a01b039091169063f328ac9f90602401602060405180830381865afa158015610bdb573d6000803e3d6000fd5b505050506040513d601f19601f82011682018060405250810190610bff91906116a1565b155b15610c1f57604051636caa20b560e11b815260040160405180910390fd5b60075460405163120fd38160e31b81526001600160a01b039091169063907e9c0890610c4f908490600401611a9b565b600060405180830381600087803b158015610c6957600080fd5b505af1158015610c7d573d6000803e3d6000fd5b505050507f7e394bd6a0355664cfae32d9944076accb23e9ee4ed36dc348d9e8ec8cc911a181336040516105b39291906117ca565b88336001600160a01b03821614610cdc5760405163adc06ae760e01b815260040160405180910390fd5b6000546001600160a01b031615610d055760405162dc149f60e41b815260040160405180910390fd5b50600180546001600160a01b03199081166001600160a01b03998a161790915560028054821697891697909717909655600380548716958816959095179094556004805486169387169390931790925560058054851691861691909117905560068054841691851691909117905560008054831694841694909417909355600780549091169290911691909117905550565b634e487b7160e01b600052604160045260246000fd5b60405160c081016001600160401b0381118282101715610dcf57610dcf610d97565b60405290565b604051608081016001600160401b0381118282101715610dcf57610dcf610d97565b60405160a081016001600160401b0381118282101715610dcf57610dcf610d97565b604051601f8201601f191681016001600160401b0381118282101715610e4157610e41610d97565b604052919050565b60006001600160401b03821115610e6257610e62610d97565b5060051b60200190565b600082601f830112610e7d57600080fd5b8135602083016000806001600160401b03841115610e9d57610e9d610d97565b50601f8301601f1916602001610eb281610e19565b915050828152858383011115610ec757600080fd5b82826020830137600092810160200192909252509392505050565b600082601f830112610ef357600080fd5b8135610f06610f0182610e49565b610e19565b8082825260208201915060208360051b860101925085831115610f2857600080fd5b602085015b83811015610f695780356001600160401b03811115610f4b57600080fd5b610f5a886020838a0101610e6c565b84525060209283019201610f2d565b5095945050505050565b600060208284031215610f8557600080fd5b81356001600160401b03811115610f9b57600080fd5b820160c08185031215610fad57600080fd5b610fb5610dad565b81356001600160401b03811115610fcb57600080fd5b610fd786828501610ee2565b82525060208201356001600160401b03811115610ff357600080fd5b610fff86828501610ee2565b60208301525060408201356001600160401b0381111561101e57600080fd5b61102a86828501610ee2565b60408301525060608201356001600160401b0381111561104957600080fd5b61105586828501610ee2565b60608301525060808201356001600160401b0381111561107457600080fd5b61108086828501610ee2565b60808301525060a08201356001600160401b0381111561109f57600080fd5b6110ab86828501610ee2565b60a083015250949350505050565b80151581146110c757600080fd5b50565b6000606082840312156110dc57600080fd5b604051606081016001600160401b03811182821017156110fe576110fe610d97565b60405290508082356001600160401b0381111561111a57600080fd5b61112685828601610e6c565b82525060208301356001600160401b0381111561114257600080fd5b61114e85828601610e6c565b6020830152506040830135611162816110b9565b6040919091015292915050565b60006020828403121561118157600080fd5b81356001600160401b0381111561119757600080fd5b6111a3848285016110ca565b949350505050565b600082601f8301126111bc57600080fd5b81356020830160006111d0610f0184610e49565b83815260059390931b820192905060208101868411156111ef57600080fd5b825b8481101561122a5780356001600160401b0381111561120f57600080fd5b61121b898287016110ca565b835250602091820191016111f1565b50909695505050505050565b600082601f83011261124757600080fd5b8135611255610f0182610e49565b8082825260208201915060208360051b86010192508583111561127757600080fd5b602085015b83811015610f695780356001600160401b0381111561129a57600080fd5b86016080818903601f190112156112b057600080fd5b6112b8610dd5565b60208201356001600160401b038111156112d157600080fd5b6112e08a602083860101610e6c565b82525060408201356001600160401b038111156112fc57600080fd5b61130b8a602083860101610e6c565b602083015250606082013561131f816110b9565b60408201526080919091013590611335826110b9565b606081019190915283526020928301920161127c565b80356001600160a01b038116811461136257600080fd5b919050565b600082601f83011261137857600080fd5b8135611386610f0182610e49565b8082825260208201915060208360051b8601019250858311156113a857600080fd5b602085015b83811015610f695780356001600160401b038111156113cb57600080fd5b860160a0818903601f190112156113e157600080fd5b6113e9610df7565b60208201356001600160401b0381111561140257600080fd5b6114118a602083860101610e6c565b82525060408201356001600160401b0381111561142d57600080fd5b61143c8a602083860101610e6c565b60208301525061144e6060830161134b565b60408201526080820135611461816110b9565b606082015260a0919091013590611477826110b9565b60808101919091528352602092830192016113ad565b60006020828403121561149f57600080fd5b81356001600160401b038111156114b557600080fd5b820160c081850312156114c757600080fd5b6114cf610dad565b81356001600160401b038111156114e557600080fd5b6114f1868285016111ab565b82525060208201356001600160401b0381111561150d57600080fd5b611519868285016111ab565b60208301525060408201356001600160401b0381111561153857600080fd5b61154486828501611236565b60408301525060608201356001600160401b0381111561156357600080fd5b61156f86828501611367565b60608301525060808201356001600160401b0381111561158e57600080fd5b61159a868285016111ab565b60808301525060a08201356001600160401b038111156115b957600080fd5b6110ab868285016111ab565b6000602082840312156115d757600080fd5b81356001600160401b038111156115ed57600080fd5b6111a384828501610e6c565b60008060008060008060008060006101208a8c03121561161857600080fd5b6116218a61134b565b985061162f60208b0161134b565b975061163d60408b0161134b565b965061164b60608b0161134b565b955061165960808b0161134b565b945061166760a08b0161134b565b935061167560c08b0161134b565b925061168360e08b0161134b565b91506116926101008b0161134b565b90509295985092959850929598565b6000602082840312156116b357600080fd5b81516116be816110b9565b9392505050565b6000815180845260005b818110156116eb576020818501810151868301820152016116cf565b506000602082860101526020601f19601f83011685010191505092915050565b6000602082016020835280845180835260408501915060408160051b86010192506020860160005b8281101561176457603f1987860301845261174f8583516116c5565b94506020938401939190910190600101611733565b50929695505050505050565b600081516060845261178560608501826116c5565b90506020830151848203602086015261179e82826116c5565b9150506040830151151560408501528091505092915050565b6020815260006116be6020830184611770565b6040815260006117dd60408301856116c5565b905060018060a01b03831660208301529392505050565b6000602082016020835280845180835260408501915060408160051b86010192506020860160005b8281101561176457603f19878603018452611838858351611770565b9450602093840193919091019060010161181c565b6000602082016020835280845180835260408501915060408160051b86010192506020860160005b8281101561176457603f19878603018452611891858351611770565b94506020938401939190910190600101611875565b6000602082016020835280845180835260408501915060408160051b86010192506020860160005b8281101561176457603f1987860301845281518051608087526118f460808801826116c5565b90506020820151878203602089015261190d82826116c5565b6040848101511515908a015260609384015115159390980192909252505060209384019391909101906001016118ce565b6000602082016020835280845180835260408501915060408160051b86010192506020860160005b8281101561176457603f198786030184528151805160a0875261198c60a08801826116c5565b9050602082015187820360208901526119a582826116c5565b6040848101516001600160a01b0316908a01526060808501511515908a01526080938401511515939098019290925250506020938401939190910190600101611966565b6000602082016020835280845180835260408501915060408160051b86010192506020860160005b8281101561176457603f19878603018452611a2d858351611770565b94506020938401939190910190600101611a11565b6000602082016020835280845180835260408501915060408160051b86010192506020860160005b8281101561176457603f19878603018452611a86858351611770565b94506020938401939190910190600101611a6a565b6020815260006116be60208301846116c556fea264697066735822122034c798d00da7ce5dd49dea5d4f423167e252f2a7fc6df0da23a7aaf39638ec8964736f6c634300081a0033","linkReferences":{}},"methodIdentifiers":{"addOrModifyAdaptersBatch(((bytes,string,bool)[],(bytes,string,bool)[],(bytes,string,bool,bool)[],(bytes,string,address,bool,bool)[],(bytes,string,bool)[],(bytes,string,bool)[]))":"6671f69a","addOrModifyWorkflow((bytes,string,bool))":"34d8776a","initialize(address,address,address,address,address,address,address,address,address)":"f5e95acb","nibbleAccessControls()":"9c081d2c","nibbleAgents()":"c3962e3c","nibbleConditions()":"e89b2283","nibbleConnectors()":"7a19b9fa","nibbleEvaluations()":"a4a1a01d","nibbleFHEGates()":"9cc6eb5f","nibbleListeners()":"b08ee2c8","nibbleWorkflows()":"418906ef","removeAdaptersBatch((bytes[],bytes[],bytes[],bytes[],bytes[],bytes[]))":"153800cd","removeWorkflow(bytes)":"907e9c08"},"id":35}