{"abi":[{"type":"function","name":"addOrModifyAdaptersBatch","inputs":[{"name":"adapters","type":"tuple","internalType":"struct NibbleLibrary.ModifyAdapters","components":[{"name":"conditions","type":"tuple[]","internalType":"struct NibbleLibrary.Condition[]","components":[{"name":"id","type":"bytes","internalType":"bytes"},{"name":"metadata","type":"string","internalType":"string"},{"name":"encrypted","type":"bool","internalType":"bool"}]},{"name":"listeners","type":"tuple[]","internalType":"struct NibbleLibrary.Listener[]","components":[{"name":"id","type":"bytes","internalType":"bytes"},{"name":"metadata","type":"string","internalType":"string"},{"name":"encrypted","type":"bool","internalType":"bool"}]},{"name":"connectors","type":"tuple[]","internalType":"struct NibbleLibrary.Connector[]","components":[{"name":"id","type":"bytes","internalType":"bytes"},{"name":"metadata","type":"string","internalType":"string"},{"name":"encrypted","type":"bool","internalType":"bool"},{"name":"onChain","type":"bool","internalType":"bool"}]},{"name":"agents","type":"tuple[]","internalType":"struct NibbleLibrary.Agent[]","components":[{"name":"id","type":"bytes","internalType":"bytes"},{"name":"metadata","type":"string","internalType":"string"},{"name":"wallet","type":"address","internalType":"address"},{"name":"encrypted","type":"bool","internalType":"bool"},{"name":"writer","type":"bool","internalType":"bool"}]},{"name":"evaluations","type":"tuple[]","internalType":"struct NibbleLibrary.Evaluation[]","components":[{"name":"id","type":"bytes","internalType":"bytes"},{"name":"metadata","type":"string","internalType":"string"},{"name":"encrypted","type":"bool","internalType":"bool"}]},{"name":"fheGates","type":"tuple[]","internalType":"struct NibbleLibrary.FHEGate[]","components":[{"name":"id","type":"bytes","internalType":"bytes"},{"name":"metadata","type":"string","internalType":"string"},{"name":"encrypted","type":"bool","internalType":"bool"}]}]}],"outputs":[],"stateMutability":"nonpayable"},{"type":"function","name":"addOrModifyWorkflowsBatch","inputs":[],"outputs":[],"stateMutability":"nonpayable"},{"type":"function","name":"initialize","inputs":[{"name":"nibbleFactoryAddress","type":"address","internalType":"address"},{"name":"nibbleAccessControlsAddress","type":"address","internalType":"address"},{"name":"nibbleConditionsAddress","type":"address","internalType":"address"},{"name":"nibbleListenersAddress","type":"address","internalType":"address"},{"name":"nibbleConnectorsAddress","type":"address","internalType":"address"},{"name":"nibbleAgentsAddress","type":"address","internalType":"address"},{"name":"nibbleEvaluationsAddress","type":"address","internalType":"address"},{"name":"nibbleFHEGatesAddress","type":"address","internalType":"address"},{"name":"nibbleWorkflowsAddress","type":"address","internalType":"address"}],"outputs":[],"stateMutability":"nonpayable"},{"type":"function","name":"nibbleAccessControls","inputs":[],"outputs":[{"name":"","type":"address","internalType":"contract NibbleAccessControls"}],"stateMutability":"view"},{"type":"function","name":"nibbleAgents","inputs":[],"outputs":[{"name":"","type":"address","internalType":"contract NibbleAgents"}],"stateMutability":"view"},{"type":"function","name":"nibbleConditions","inputs":[],"outputs":[{"name":"","type":"address","internalType":"contract NibbleConditions"}],"stateMutability":"view"},{"type":"function","name":"nibbleConnectors","inputs":[],"outputs":[{"name":"","type":"address","internalType":"contract NibbleConnectors"}],"stateMutability":"view"},{"type":"function","name":"nibbleEvaluations","inputs":[],"outputs":[{"name":"","type":"address","internalType":"contract NibbleEvaluations"}],"stateMutability":"view"},{"type":"function","name":"nibbleFHEGates","inputs":[],"outputs":[{"name":"","type":"address","internalType":"contract NibbleFHEGates"}],"stateMutability":"view"},{"type":"function","name":"nibbleListeners","inputs":[],"outputs":[{"name":"","type":"address","internalType":"contract NibbleListeners"}],"stateMutability":"view"},{"type":"function","name":"nibbleWorkflows","inputs":[],"outputs":[{"name":"","type":"address","internalType":"contract NibbleWorkflows"}],"stateMutability":"view"},{"type":"function","name":"removeAdaptersBatch","inputs":[{"name":"adapters","type":"tuple","internalType":"struct NibbleLibrary.RemoveAdapters","components":[{"name":"conditions","type":"bytes[]","internalType":"bytes[]"},{"name":"listeners","type":"bytes[]","internalType":"bytes[]"},{"name":"connectors","type":"bytes[]","internalType":"bytes[]"},{"name":"agents","type":"bytes[]","internalType":"bytes[]"},{"name":"evaluations","type":"bytes[]","internalType":"bytes[]"},{"name":"fheGates","type":"bytes[]","internalType":"bytes[]"}]}],"outputs":[],"stateMutability":"nonpayable"},{"type":"event","name":"AdaptersDeleted","inputs":[],"anonymous":false},{"type":"event","name":"AdaptersModified","inputs":[],"anonymous":false},{"type":"event","name":"Initialized","inputs":[{"name":"version","type":"uint64","indexed":false,"internalType":"uint64"}],"anonymous":false},{"type":"error","name":"InvalidInitialization","inputs":[]},{"type":"error","name":"InvalidInitializer","inputs":[]},{"type":"error","name":"InvalidRole","inputs":[]},{"type":"error","name":"NotInitializing","inputs":[]}],"bytecode":{"object":"0x6080604052348015600f57600080fd5b506116cf8061001f6000396000f3fe608060405234801561001057600080fd5b50600436106100b45760003560e01c80639cc6eb5f116100715780639cc6eb5f14610136578063a4a1a01d14610149578063b08ee2c81461015c578063c3962e3c1461016f578063e89b228314610182578063f5e95acb1461019557600080fd5b8063153800cd146100b9578063418906ef146100ce578063530a36e6146100cc5780636671f69a146100fd5780637a19b9fa146101105780639c081d2c14610123575b600080fd5b6100cc6100c7366004610c2d565b6101a8565b005b6007546100e1906001600160a01b031681565b6040516001600160a01b03909116815260200160405180910390f35b6100cc61010b3660046110fc565b610574565b6003546100e1906001600160a01b031681565b6000546100e1906001600160a01b031681565b6006546100e1906001600160a01b031681565b6005546100e1906001600160a01b031681565b6002546100e1906001600160a01b031681565b6004546100e1906001600160a01b031681565b6001546100e1906001600160a01b031681565b6100cc6101a3366004611234565b61093f565b600054604051633cd4605360e11b81523360048201526001600160a01b03909116906379a8c0a690602401602060405180830381865afa1580156101f0573d6000803e3d6000fd5b505050506040513d601f19601f8201168201806040525081019061021491906112dc565b1580610289575060005460405163f328ac9f60e01b81523360048201526001600160a01b039091169063f328ac9f90602401602060405180830381865afa158015610263573d6000803e3d6000fd5b505050506040513d601f19601f8201168201806040525081019061028791906112dc565b155b156102a757604051636caa20b560e11b815260040160405180910390fd5b8051511561031257600154815160405163068aaefb60e51b81526001600160a01b039092169163d155df60916102df91600401611346565b600060405180830381600087803b1580156102f957600080fd5b505af115801561030d573d6000803e3d6000fd5b505050505b60208101515115610382576002546020820151604051623cab1360e31b81526001600160a01b03909216916301e558989161034f91600401611346565b600060405180830381600087803b15801561036957600080fd5b505af115801561037d573d6000803e3d6000fd5b505050505b604081015151156103f357600354604080830151905163e8b2fd1f60e01b81526001600160a01b039092169163e8b2fd1f916103c091600401611346565b600060405180830381600087803b1580156103da57600080fd5b505af11580156103ee573d6000803e3d6000fd5b505050505b606081015151156104645760048054606083015160405163d558fb7b60e01b81526001600160a01b039092169263d558fb7b92610431929101611346565b600060405180830381600087803b15801561044b57600080fd5b505af115801561045f573d6000803e3d6000fd5b505050505b608081015151156104d5576005546080820151604051631eb887e760e21b81526001600160a01b0390921691637ae21f9c916104a291600401611346565b600060405180830381600087803b1580156104bc57600080fd5b505af11580156104d0573d6000803e3d6000fd5b505050505b60a081015151156105465760065460a0820151604051636731232f60e01b81526001600160a01b0390921691636731232f9161051391600401611346565b600060405180830381600087803b15801561052d57600080fd5b505af1158015610541573d6000803e3d6000fd5b505050505b6040517fd5c0e080c644d9aae9cad10f778cf12b0a6a889024696d646b9aa44073472e5190600090a150565b565b600054604051633cd4605360e11b81523360048201526001600160a01b03909116906379a8c0a690602401602060405180830381865afa1580156105bc573d6000803e3d6000fd5b505050506040513d601f19601f820116820180604052508101906105e091906112dc565b1580610655575060005460405163f328ac9f60e01b81523360048201526001600160a01b039091169063f328ac9f90602401602060405180830381865afa15801561062f573d6000803e3d6000fd5b505050506040513d601f19601f8201168201806040525081019061065391906112dc565b155b1561067357604051636caa20b560e11b815260040160405180910390fd5b805151156106de576001548151604051631c9e79d160e11b81526001600160a01b039092169163393cf3a2916106ab916004016113f2565b600060405180830381600087803b1580156106c557600080fd5b505af11580156106d9573d6000803e3d6000fd5b505050505b6020810151511561074f57600254602082015160405163f7d9096b60e01b81526001600160a01b039092169163f7d9096b9161071c9160040161144b565b600060405180830381600087803b15801561073657600080fd5b505af115801561074a573d6000803e3d6000fd5b505050505b604081015151156107c0576003546040808301519051630e2e51db60e11b81526001600160a01b0390921691631c5ca3b69161078d916004016114a4565b600060405180830381600087803b1580156107a757600080fd5b505af11580156107bb573d6000803e3d6000fd5b505050505b6060810151511561083157600480546060830151604051631cb8bc1360e31b81526001600160a01b039092169263e5c5e098926107fe92910161153c565b600060405180830381600087803b15801561081857600080fd5b505af115801561082c573d6000803e3d6000fd5b505050505b608081015151156108a257600554608082015160405163828b73e560e01b81526001600160a01b039092169163828b73e59161086f916004016115e7565b600060405180830381600087803b15801561088957600080fd5b505af115801561089d573d6000803e3d6000fd5b505050505b60a081015151156109135760065460a0820151604051632dfc043760e21b81526001600160a01b039092169163b7f010dc916108e091600401611640565b600060405180830381600087803b1580156108fa57600080fd5b505af115801561090e573d6000803e3d6000fd5b505050505b6040517fd5f9d19417557d0196662d128fa7a3764a94a4c9d6486dcc5fd83973cc2533bc90600090a150565b88336001600160a01b038216146109695760405163adc06ae760e01b815260040160405180910390fd5b610971610a03565b50600180546001600160a01b03199081166001600160a01b03998a161790915560028054821697891697909717909655600380548716958816959095179094556004805486169387169390931790925560058054851691861691909117905560068054841691851691909117905560008054831694841694909417909355600780549091169290911691909117905550565b7ff0c57e16840df040f15088dc2f81fe391c3923bec73e23a9662efc9c229c6a005468010000000000000000900460ff1661057257604051631afcd79f60e31b815260040160405180910390fd5b634e487b7160e01b600052604160045260246000fd5b60405160c081016001600160401b0381118282101715610a8957610a89610a51565b60405290565b604051608081016001600160401b0381118282101715610a8957610a89610a51565b60405160a081016001600160401b0381118282101715610a8957610a89610a51565b604051601f8201601f191681016001600160401b0381118282101715610afb57610afb610a51565b604052919050565b60006001600160401b03821115610b1c57610b1c610a51565b5060051b60200190565b600082601f830112610b3757600080fd5b8135602083016000806001600160401b03841115610b5757610b57610a51565b50601f8301601f1916602001610b6c81610ad3565b915050828152858383011115610b8157600080fd5b82826020830137600092810160200192909252509392505050565b600082601f830112610bad57600080fd5b8135610bc0610bbb82610b03565b610ad3565b8082825260208201915060208360051b860101925085831115610be257600080fd5b602085015b83811015610c235780356001600160401b03811115610c0557600080fd5b610c14886020838a0101610b26565b84525060209283019201610be7565b5095945050505050565b600060208284031215610c3f57600080fd5b81356001600160401b03811115610c5557600080fd5b820160c08185031215610c6757600080fd5b610c6f610a67565b81356001600160401b03811115610c8557600080fd5b610c9186828501610b9c565b82525060208201356001600160401b03811115610cad57600080fd5b610cb986828501610b9c565b60208301525060408201356001600160401b03811115610cd857600080fd5b610ce486828501610b9c565b60408301525060608201356001600160401b03811115610d0357600080fd5b610d0f86828501610b9c565b60608301525060808201356001600160401b03811115610d2e57600080fd5b610d3a86828501610b9c565b60808301525060a08201356001600160401b03811115610d5957600080fd5b610d6586828501610b9c565b60a083015250949350505050565b8015158114610d8157600080fd5b50565b600082601f830112610d9557600080fd5b8135602083016000610da9610bbb84610b03565b83815260059390931b82019290506020810186841115610dc857600080fd5b825b84811015610e995780356001600160401b03811115610de857600080fd5b840160006060828b031215610dfb578081fd5b604051606081016001600160401b0381118282101715610e1d57610e1d610a51565b604052823591506001600160401b03821115610e3857600080fd5b610e448b838501610b26565b8152602083013591506001600160401b03821115610e6157600080fd5b610e6d8b838501610b26565b602082015260408301359250610e8283610d73565b604081019290925250825260209182019101610dca565b50909695505050505050565b600082601f830112610eb657600080fd5b8135610ec4610bbb82610b03565b8082825260208201915060208360051b860101925085831115610ee657600080fd5b602085015b83811015610c235780356001600160401b03811115610f0957600080fd5b86016080818903601f19011215610f1f57600080fd5b610f27610a8f565b60208201356001600160401b03811115610f4057600080fd5b610f4f8a602083860101610b26565b82525060408201356001600160401b03811115610f6b57600080fd5b610f7a8a602083860101610b26565b6020830152506060820135610f8e81610d73565b60408201526080919091013590610fa482610d73565b6060810191909152835260209283019201610eeb565b80356001600160a01b0381168114610fd157600080fd5b919050565b600082601f830112610fe757600080fd5b8135610ff5610bbb82610b03565b8082825260208201915060208360051b86010192508583111561101757600080fd5b602085015b83811015610c235780356001600160401b0381111561103a57600080fd5b860160a0818903601f1901121561105057600080fd5b611058610ab1565b60208201356001600160401b0381111561107157600080fd5b6110808a602083860101610b26565b82525060408201356001600160401b0381111561109c57600080fd5b6110ab8a602083860101610b26565b6020830152506110bd60608301610fba565b604082015260808201356110d081610d73565b606082015260a09190910135906110e682610d73565b608081019190915283526020928301920161101c565b60006020828403121561110e57600080fd5b81356001600160401b0381111561112457600080fd5b820160c0818503121561113657600080fd5b61113e610a67565b81356001600160401b0381111561115457600080fd5b61116086828501610d84565b82525060208201356001600160401b0381111561117c57600080fd5b61118886828501610d84565b60208301525060408201356001600160401b038111156111a757600080fd5b6111b386828501610ea5565b60408301525060608201356001600160401b038111156111d257600080fd5b6111de86828501610fd6565b60608301525060808201356001600160401b038111156111fd57600080fd5b61120986828501610d84565b60808301525060a08201356001600160401b0381111561122857600080fd5b610d6586828501610d84565b60008060008060008060008060006101208a8c03121561125357600080fd5b61125c8a610fba565b985061126a60208b01610fba565b975061127860408b01610fba565b965061128660608b01610fba565b955061129460808b01610fba565b94506112a260a08b01610fba565b93506112b060c08b01610fba565b92506112be60e08b01610fba565b91506112cd6101008b01610fba565b90509295985092959850929598565b6000602082840312156112ee57600080fd5b81516112f981610d73565b9392505050565b6000815180845260005b818110156113265760208185018101518683018201520161130a565b506000602082860101526020601f19601f83011685010191505092915050565b6000602082016020835280845180835260408501915060408160051b86010192506020860160005b8281101561139f57603f1987860301845261138a858351611300565b9450602093840193919091019060010161136e565b50929695505050505050565b60008151606084526113c06060850182611300565b9050602083015184820360208601526113d98282611300565b9150506040830151151560408501528091505092915050565b6000602082016020835280845180835260408501915060408160051b86010192506020860160005b8281101561139f57603f198786030184526114368583516113ab565b9450602093840193919091019060010161141a565b6000602082016020835280845180835260408501915060408160051b86010192506020860160005b8281101561139f57603f1987860301845261148f8583516113ab565b94506020938401939190910190600101611473565b6000602082016020835280845180835260408501915060408160051b86010192506020860160005b8281101561139f57603f1987860301845281518051608087526114f26080880182611300565b90506020820151878203602089015261150b8282611300565b6040848101511515908a015260609384015115159390980192909252505060209384019391909101906001016114cc565b6000602082016020835280845180835260408501915060408160051b86010192506020860160005b8281101561139f57603f198786030184528151805160a0875261158a60a0880182611300565b9050602082015187820360208901526115a38282611300565b6040848101516001600160a01b0316908a01526060808501511515908a01526080938401511515939098019290925250506020938401939190910190600101611564565b6000602082016020835280845180835260408501915060408160051b86010192506020860160005b8281101561139f57603f1987860301845261162b8583516113ab565b9450602093840193919091019060010161160f565b6000602082016020835280845180835260408501915060408160051b86010192506020860160005b8281101561139f57603f198786030184526116848583516113ab565b9450602093840193919091019060010161166856fea26469706673582212202b7dce4335616222f5c75157ee0db14eaf727144d034eb6dc9a0a20d0cae71a764736f6c634300081a0033","linkReferences":{}},"methodIdentifiers":{"addOrModifyAdaptersBatch(((bytes,string,bool)[],(bytes,string,bool)[],(bytes,string,bool,bool)[],(bytes,string,address,bool,bool)[],(bytes,string,bool)[],(bytes,string,bool)[]))":"6671f69a","addOrModifyWorkflowsBatch()":"530a36e6","initialize(address,address,address,address,address,address,address,address,address)":"f5e95acb","nibbleAccessControls()":"9c081d2c","nibbleAgents()":"c3962e3c","nibbleConditions()":"e89b2283","nibbleConnectors()":"7a19b9fa","nibbleEvaluations()":"a4a1a01d","nibbleFHEGates()":"9cc6eb5f","nibbleListeners()":"b08ee2c8","nibbleWorkflows()":"418906ef","removeAdaptersBatch((bytes[],bytes[],bytes[],bytes[],bytes[],bytes[]))":"153800cd"},"id":12}