{"abi":[{"type":"function","name":"addOrModifyAdaptersBatch","inputs":[{"name":"adapters","type":"tuple","internalType":"struct NibbleLibrary.ModifyAdapters","components":[{"name":"conditions","type":"tuple[]","internalType":"struct NibbleLibrary.Condition[]","components":[{"name":"id","type":"bytes","internalType":"bytes"},{"name":"metadata","type":"string","internalType":"string"},{"name":"encrypted","type":"bool","internalType":"bool"}]},{"name":"listeners","type":"tuple[]","internalType":"struct NibbleLibrary.Listener[]","components":[{"name":"id","type":"bytes","internalType":"bytes"},{"name":"metadata","type":"string","internalType":"string"},{"name":"encrypted","type":"bool","internalType":"bool"}]},{"name":"connectors","type":"tuple[]","internalType":"struct NibbleLibrary.Connector[]","components":[{"name":"id","type":"bytes","internalType":"bytes"},{"name":"metadata","type":"string","internalType":"string"},{"name":"encrypted","type":"bool","internalType":"bool"},{"name":"onChain","type":"bool","internalType":"bool"}]},{"name":"agents","type":"tuple[]","internalType":"struct NibbleLibrary.Agent[]","components":[{"name":"id","type":"bytes","internalType":"bytes"},{"name":"metadata","type":"string","internalType":"string"},{"name":"encrypted","type":"bool","internalType":"bool"},{"name":"writer","type":"bool","internalType":"bool"}]},{"name":"evaluations","type":"tuple[]","internalType":"struct NibbleLibrary.Evaluation[]","components":[{"name":"id","type":"bytes","internalType":"bytes"},{"name":"metadata","type":"string","internalType":"string"},{"name":"encrypted","type":"bool","internalType":"bool"}]}]}],"outputs":[],"stateMutability":"nonpayable"},{"type":"function","name":"deleteAdaptersBatch","inputs":[{"name":"adapters","type":"tuple","internalType":"struct NibbleLibrary.DeleteAdapters","components":[{"name":"conditions","type":"bytes[]","internalType":"bytes[]"},{"name":"listeners","type":"bytes[]","internalType":"bytes[]"},{"name":"connectors","type":"bytes[]","internalType":"bytes[]"},{"name":"agents","type":"bytes[]","internalType":"bytes[]"},{"name":"evaluations","type":"bytes[]","internalType":"bytes[]"}]}],"outputs":[],"stateMutability":"nonpayable"},{"type":"function","name":"initialize","inputs":[{"name":"nibbleFactoryAddress","type":"address","internalType":"address"},{"name":"nibbleAccessControlsAddress","type":"address","internalType":"address"},{"name":"nibbleConditionsAddress","type":"address","internalType":"address"},{"name":"nibbleListenersAddress","type":"address","internalType":"address"},{"name":"nibbleConnectorsAddress","type":"address","internalType":"address"},{"name":"nibbleAgentsAddress","type":"address","internalType":"address"},{"name":"nibbleEvaluationsAddress","type":"address","internalType":"address"}],"outputs":[],"stateMutability":"nonpayable"},{"type":"function","name":"nibbleAccessControls","inputs":[],"outputs":[{"name":"","type":"address","internalType":"contract NibbleAccessControls"}],"stateMutability":"view"},{"type":"function","name":"nibbleAgents","inputs":[],"outputs":[{"name":"","type":"address","internalType":"contract NibbleAgents"}],"stateMutability":"view"},{"type":"function","name":"nibbleConditions","inputs":[],"outputs":[{"name":"","type":"address","internalType":"contract NibbleConditions"}],"stateMutability":"view"},{"type":"function","name":"nibbleConnectors","inputs":[],"outputs":[{"name":"","type":"address","internalType":"contract NibbleConnectors"}],"stateMutability":"view"},{"type":"function","name":"nibbleEvaluations","inputs":[],"outputs":[{"name":"","type":"address","internalType":"contract NibbleEvaluations"}],"stateMutability":"view"},{"type":"function","name":"nibbleListeners","inputs":[],"outputs":[{"name":"","type":"address","internalType":"contract NibbleListeners"}],"stateMutability":"view"},{"type":"event","name":"AdaptersDeleted","inputs":[],"anonymous":false},{"type":"event","name":"AdaptersModified","inputs":[],"anonymous":false},{"type":"event","name":"Initialized","inputs":[{"name":"version","type":"uint64","indexed":false,"internalType":"uint64"}],"anonymous":false},{"type":"error","name":"InvalidInitialization","inputs":[]},{"type":"error","name":"InvalidInitializer","inputs":[]},{"type":"error","name":"NotInitializing","inputs":[]}],"bytecode":{"object":"0x6080604052348015600f57600080fd5b506110f38061001f6000396000f3fe608060405234801561001057600080fd5b50600436106100935760003560e01c8063a4a1a01d11610066578063a4a1a01d14610102578063a9667ac314610115578063b08ee2c814610128578063c3962e3c1461013b578063e89b22831461014e57600080fd5b80633587647614610098578063448933cd146100ad5780637a19b9fa146100c05780639c081d2c146100ef575b600080fd5b6100ab6100a6366004610726565b610161565b005b6100ab6100bb366004610966565b610205565b6003546100d3906001600160a01b031681565b6040516001600160a01b03909116815260200160405180910390f35b6000546100d3906001600160a01b031681565b6005546100d3906001600160a01b031681565b6100ab610123366004610cae565b61045f565b6002546100d3906001600160a01b031681565b6004546100d3906001600160a01b031681565b6001546100d3906001600160a01b031681565b86336001600160a01b0382161461018b5760405163adc06ae760e01b815260040160405180910390fd5b6101936106ba565b50600180546001600160a01b03199081166001600160a01b03978816179091556002805482169587169590951790945560038054851693861693909317909255600480548416918516919091179055600580548316918416919091179055600080549091169290911691909117905550565b8051511561027057600154815160405163068aaefb60e51b81526001600160a01b039092169163d155df609161023d91600401610e01565b600060405180830381600087803b15801561025757600080fd5b505af115801561026b573d6000803e3d6000fd5b505050505b602081015151156102e0576002546020820151604051623cab1360e31b81526001600160a01b03909216916301e55898916102ad91600401610e01565b600060405180830381600087803b1580156102c757600080fd5b505af11580156102db573d6000803e3d6000fd5b505050505b6040810151511561035157600354604080830151905163e8b2fd1f60e01b81526001600160a01b039092169163e8b2fd1f9161031e91600401610e01565b600060405180830381600087803b15801561033857600080fd5b505af115801561034c573d6000803e3d6000fd5b505050505b606081015151156103c25760048054606083015160405163d558fb7b60e01b81526001600160a01b039092169263d558fb7b9261038f929101610e01565b600060405180830381600087803b1580156103a957600080fd5b505af11580156103bd573d6000803e3d6000fd5b505050505b60808101515115610433576005546080820151604051631eb887e760e21b81526001600160a01b0390921691637ae21f9c9161040091600401610e01565b600060405180830381600087803b15801561041a57600080fd5b505af115801561042e573d6000803e3d6000fd5b505050505b6040517fd5c0e080c644d9aae9cad10f778cf12b0a6a889024696d646b9aa44073472e5190600090a150565b805151156104ca576001548151604051631c9e79d160e11b81526001600160a01b039092169163393cf3a29161049791600401610ead565b600060405180830381600087803b1580156104b157600080fd5b505af11580156104c5573d6000803e3d6000fd5b505050505b6020810151511561053b57600254602082015160405163f7d9096b60e01b81526001600160a01b039092169163f7d9096b9161050891600401610f06565b600060405180830381600087803b15801561052257600080fd5b505af1158015610536573d6000803e3d6000fd5b505050505b604081015151156105ac576003546040808301519051630e2e51db60e11b81526001600160a01b0390921691631c5ca3b69161057991600401610fb2565b600060405180830381600087803b15801561059357600080fd5b505af11580156105a7573d6000803e3d6000fd5b505050505b6060810151511561061d57600480546060830151604051631338831b60e21b81526001600160a01b0390921692634ce20c6c926105ea92910161100b565b600060405180830381600087803b15801561060457600080fd5b505af1158015610618573d6000803e3d6000fd5b505050505b6080810151511561068e57600554608082015160405163828b73e560e01b81526001600160a01b039092169163828b73e59161065b91600401611064565b600060405180830381600087803b15801561067557600080fd5b505af1158015610689573d6000803e3d6000fd5b505050505b6040517fd5f9d19417557d0196662d128fa7a3764a94a4c9d6486dcc5fd83973cc2533bc90600090a150565b7ff0c57e16840df040f15088dc2f81fe391c3923bec73e23a9662efc9c229c6a005468010000000000000000900460ff1661070857604051631afcd79f60e31b815260040160405180910390fd5b565b80356001600160a01b038116811461072157600080fd5b919050565b600080600080600080600060e0888a03121561074157600080fd5b61074a8861070a565b96506107586020890161070a565b95506107666040890161070a565b94506107746060890161070a565b93506107826080890161070a565b925061079060a0890161070a565b915061079e60c0890161070a565b905092959891949750929550565b634e487b7160e01b600052604160045260246000fd5b60405160a081016001600160401b03811182821017156107e4576107e46107ac565b60405290565b604051608081016001600160401b03811182821017156107e4576107e46107ac565b604051601f8201601f191681016001600160401b0381118282101715610834576108346107ac565b604052919050565b60006001600160401b03821115610855576108556107ac565b5060051b60200190565b600082601f83011261087057600080fd5b8135602083016000806001600160401b03841115610890576108906107ac565b50601f8301601f19166020016108a58161080c565b9150508281528583830111156108ba57600080fd5b82826020830137600092810160200192909252509392505050565b600082601f8301126108e657600080fd5b81356108f96108f48261083c565b61080c565b8082825260208201915060208360051b86010192508583111561091b57600080fd5b602085015b8381101561095c5780356001600160401b0381111561093e57600080fd5b61094d886020838a010161085f565b84525060209283019201610920565b5095945050505050565b60006020828403121561097857600080fd5b81356001600160401b0381111561098e57600080fd5b820160a081850312156109a057600080fd5b6109a86107c2565b81356001600160401b038111156109be57600080fd5b6109ca868285016108d5565b82525060208201356001600160401b038111156109e657600080fd5b6109f2868285016108d5565b60208301525060408201356001600160401b03811115610a1157600080fd5b610a1d868285016108d5565b60408301525060608201356001600160401b03811115610a3c57600080fd5b610a48868285016108d5565b60608301525060808201356001600160401b03811115610a6757600080fd5b610a73868285016108d5565b608083015250949350505050565b8035801515811461072157600080fd5b600082601f830112610aa257600080fd5b8135602083016000610ab66108f48461083c565b83815260059390931b82019290506020810186841115610ad557600080fd5b825b84811015610ba05780356001600160401b03811115610af557600080fd5b840160006060828b031215610b08578081fd5b604051606081016001600160401b0381118282101715610b2a57610b2a6107ac565b604052823591506001600160401b03821115610b4557600080fd5b610b518b83850161085f565b8152602083013591506001600160401b03821115610b6e57600080fd5b610b7a8b83850161085f565b6020820152610b8b60408401610a81565b60408201528452505060209182019101610ad7565b50909695505050505050565b600082601f830112610bbd57600080fd5b8135602083016000610bd16108f48461083c565b83815260059390931b82019290506020810186841115610bf057600080fd5b825b84811015610ba05780356001600160401b03811115610c1057600080fd5b840160006080828b031215610c23578081fd5b610c2b6107ea565b905081356001600160401b03811115610c4357600080fd5b610c4f8b82850161085f565b82525060208201356001600160401b03811115610c6b57600080fd5b610c778b82850161085f565b602083015250610c8960408301610a81565b6040820152610c9a60608301610a81565b606082015283525060209182019101610bf2565b600060208284031215610cc057600080fd5b81356001600160401b03811115610cd657600080fd5b820160a08185031215610ce857600080fd5b610cf06107c2565b81356001600160401b03811115610d0657600080fd5b610d1286828501610a91565b82525060208201356001600160401b03811115610d2e57600080fd5b610d3a86828501610a91565b60208301525060408201356001600160401b03811115610d5957600080fd5b610d6586828501610bac565b60408301525060608201356001600160401b03811115610d8457600080fd5b610d9086828501610bac565b60608301525060808201356001600160401b03811115610daf57600080fd5b610a7386828501610a91565b6000815180845260005b81811015610de157602081850181015186830182015201610dc5565b506000602082860101526020601f19601f83011685010191505092915050565b6000602082016020835280845180835260408501915060408160051b86010192506020860160005b82811015610e5a57603f19878603018452610e45858351610dbb565b94506020938401939190910190600101610e29565b50929695505050505050565b6000815160608452610e7b6060850182610dbb565b905060208301518482036020860152610e948282610dbb565b9150506040830151151560408501528091505092915050565b6000602082016020835280845180835260408501915060408160051b86010192506020860160005b82811015610e5a57603f19878603018452610ef1858351610e66565b94506020938401939190910190600101610ed5565b6000602082016020835280845180835260408501915060408160051b86010192506020860160005b82811015610e5a57603f19878603018452610f4a858351610e66565b94506020938401939190910190600101610f2e565b6000815160808452610f746080850182610dbb565b905060208301518482036020860152610f8d8282610dbb565b9150506040830151151560408501526060830151151560608501528091505092915050565b6000602082016020835280845180835260408501915060408160051b86010192506020860160005b82811015610e5a57603f19878603018452610ff6858351610f5f565b94506020938401939190910190600101610fda565b6000602082016020835280845180835260408501915060408160051b86010192506020860160005b82811015610e5a57603f1987860301845261104f858351610f5f565b94506020938401939190910190600101611033565b6000602082016020835280845180835260408501915060408160051b86010192506020860160005b82811015610e5a57603f198786030184526110a8858351610e66565b9450602093840193919091019060010161108c56fea2646970667358221220f856c848cfb88bb8918d19d3cee6052725cdf4cb022fc320a435aee4844ab48364736f6c634300081a0033","linkReferences":{}},"methodIdentifiers":{"addOrModifyAdaptersBatch(((bytes,string,bool)[],(bytes,string,bool)[],(bytes,string,bool,bool)[],(bytes,string,bool,bool)[],(bytes,string,bool)[]))":"a9667ac3","deleteAdaptersBatch((bytes[],bytes[],bytes[],bytes[],bytes[]))":"448933cd","initialize(address,address,address,address,address,address,address)":"35876476","nibbleAccessControls()":"9c081d2c","nibbleAgents()":"c3962e3c","nibbleConditions()":"e89b2283","nibbleConnectors()":"7a19b9fa","nibbleEvaluations()":"a4a1a01d","nibbleListeners()":"b08ee2c8"},"id":40}