{"abi":[{"type":"constructor","inputs":[{"name":"nibbleFactoryAddress","type":"address","internalType":"address"}],"stateMutability":"nonpayable"},{"type":"function","name":"initialize","inputs":[],"outputs":[],"stateMutability":"nonpayable"},{"type":"function","name":"initialized","inputs":[],"outputs":[{"name":"","type":"bool","internalType":"bool"}],"stateMutability":"view"},{"type":"function","name":"nibbleFactory","inputs":[],"outputs":[{"name":"","type":"address","internalType":"address"}],"stateMutability":"view"},{"type":"event","name":"Initialized","inputs":[{"name":"version","type":"uint64","indexed":false,"internalType":"uint64"}],"anonymous":false},{"type":"error","name":"AlreadyInitialized","inputs":[]},{"type":"error","name":"InvalidInitialization","inputs":[]},{"type":"error","name":"InvalidInitializer","inputs":[]},{"type":"error","name":"NotInitializing","inputs":[]}],"bytecode":{"object":"0x6080604052348015600f57600080fd5b506040516101d13803806101d1833981016040819052602c916050565b600080546001600160a01b0319166001600160a01b0392909216919091179055607e565b600060208284031215606157600080fd5b81516001600160a01b0381168114607757600080fd5b9392505050565b6101448061008d6000396000f3fe608060405234801561001057600080fd5b50600436106100415760003560e01c8063158ef93e146100465780638129fc1c1461006f57806389315fc714610079575b600080fd5b60005461005a90600160a01b900460ff1681565b60405190151581526020015b60405180910390f35b6100776100a4565b005b60005461008c906001600160a01b031681565b6040516001600160a01b039091168152602001610066565b6000546001600160a01b031633146100cf5760405163adc06ae760e01b815260040160405180910390fd5b600054600160a01b900460ff16156100f95760405162dc149f60e41b815260040160405180910390fd5b6000805460ff60a01b1916600160a01b17905556fea2646970667358221220114b442e203b9706bcf864095fbb08a10f6fa65f45c9d0c851f7bba0ba37c11064736f6c634300081a0033","linkReferences":{}},"methodIdentifiers":{"initialize()":"8129fc1c","initialized()":"158ef93e","nibbleFactory()":"89315fc7"},"id":40}