{"abi":[{"type":"function","name":"addOrModifyAgentsBatch","inputs":[{"name":"agents","type":"tuple[]","internalType":"struct NibbleLibrary.Agent[]","components":[{"name":"id","type":"bytes","internalType":"bytes"},{"name":"metadata","type":"string","internalType":"string"},{"name":"wallet","type":"address","internalType":"address"},{"name":"encrypted","type":"bool","internalType":"bool"},{"name":"writer","type":"bool","internalType":"bool"}]}],"outputs":[],"stateMutability":"nonpayable"},{"type":"function","name":"getAgentIsEncrypted","inputs":[{"name":"agentId","type":"bytes","internalType":"bytes"}],"outputs":[{"name":"","type":"bool","internalType":"bool"}],"stateMutability":"view"},{"type":"function","name":"getAgentMetadata","inputs":[{"name":"agentId","type":"bytes","internalType":"bytes"}],"outputs":[{"name":"","type":"string","internalType":"string"}],"stateMutability":"view"},{"type":"function","name":"getAgentWallet","inputs":[{"name":"agentId","type":"bytes","internalType":"bytes"}],"outputs":[{"name":"","type":"address","internalType":"address"}],"stateMutability":"view"},{"type":"function","name":"getAgentWriter","inputs":[{"name":"agentId","type":"bytes","internalType":"bytes"}],"outputs":[{"name":"","type":"bool","internalType":"bool"}],"stateMutability":"view"},{"type":"function","name":"initialize","inputs":[{"name":"nibbleFactoryAddress","type":"address","internalType":"address"},{"name":"nibbleAccessControlsAddress","type":"address","internalType":"address"},{"name":"nibbleStorageAddress","type":"address","internalType":"address"}],"outputs":[],"stateMutability":"nonpayable"},{"type":"function","name":"nibbleAccessControls","inputs":[],"outputs":[{"name":"","type":"address","internalType":"contract NibbleAccessControls"}],"stateMutability":"view"},{"type":"function","name":"nibbleStorage","inputs":[],"outputs":[{"name":"","type":"address","internalType":"address"}],"stateMutability":"view"},{"type":"function","name":"removeAgentsBatch","inputs":[{"name":"agentIds","type":"bytes[]","internalType":"bytes[]"}],"outputs":[],"stateMutability":"nonpayable"},{"type":"event","name":"AgentsModified","inputs":[{"name":"agentId","type":"bytes[]","indexed":false,"internalType":"bytes[]"},{"name":"metadata","type":"string[]","indexed":false,"internalType":"string[]"},{"name":"encrypted","type":"bool[]","indexed":false,"internalType":"bool[]"},{"name":"writers","type":"bool[]","indexed":false,"internalType":"bool[]"},{"name":"newAgent","type":"bool[]","indexed":false,"internalType":"bool[]"}],"anonymous":false},{"type":"event","name":"AgentsRemoved","inputs":[{"name":"agentId","type":"bytes[]","indexed":false,"internalType":"bytes[]"}],"anonymous":false},{"type":"event","name":"Initialized","inputs":[{"name":"version","type":"uint64","indexed":false,"internalType":"uint64"}],"anonymous":false},{"type":"error","name":"AlreadyInitialized","inputs":[]},{"type":"error","name":"InvalidInitialization","inputs":[]},{"type":"error","name":"InvalidInitializer","inputs":[]},{"type":"error","name":"InvalidRole","inputs":[]},{"type":"error","name":"NotInitializing","inputs":[]}],"bytecode":{"object":"0x6080604052348015600f57600080fd5b506112948061001f6000396000f3fe608060405234801561001057600080fd5b50600436106100935760003560e01c8063c0c53b8b11610066578063c0c53b8b1461011e578063d02eca5c14610133578063d558fb7b14610146578063e5c5e09814610159578063f8d0e2961461016c57600080fd5b80633df4d16e14610098578063657b1df4146100c8578063866c4425146100e85780639c081d2c1461010b575b600080fd5b6100ab6100a6366004610c19565b61017f565b6040516001600160a01b0390911681526020015b60405180910390f35b6100db6100d6366004610c19565b6101b3565b6040516100bf9190610ca5565b6100fb6100f6366004610c19565b610266565b60405190151581526020016100bf565b6000546100ab906001600160a01b031681565b61013161012c366004610cd4565b61029c565b005b6100fb610141366004610c19565b61031f565b610131610154366004610d3a565b610355565b610131610167366004610e0d565b61051d565b6001546100ab906001600160a01b031681565b60006002826040516101919190610f67565b908152604051908190036020019020600201546001600160a01b031692915050565b60606002826040516101c59190610f67565b908152602001604051809103902060010180546101e190610f83565b80601f016020809104026020016040519081016040528092919081815260200182805461020d90610f83565b801561025a5780601f1061022f5761010080835404028352916020019161025a565b820191906000526020600020905b81548152906001019060200180831161023d57829003601f168201915b50505050509050919050565b60006002826040516102789190610f67565b9081526040519081900360200190206002015460ff600160a01b9091041692915050565b82336001600160a01b038216146102c65760405163adc06ae760e01b815260040160405180910390fd5b6000546001600160a01b0316156102ef5760405162dc149f60e41b815260040160405180910390fd5b50600080546001600160a01b039384166001600160a01b0319918216179091556001805492909316911617905550565b60006002826040516103319190610f67565b9081526040519081900360200190206002015460ff600160a81b9091041692915050565b600054604051633cd4605360e11b81523360048201526001600160a01b03909116906379a8c0a690602401602060405180830381865afa15801561039d573d6000803e3d6000fd5b505050506040513d601f19601f820116820180604052508101906103c19190610fbd565b1580610436575060005460405163f328ac9f60e01b81523360048201526001600160a01b039091169063f328ac9f90602401602060405180830381865afa158015610410573d6000803e3d6000fd5b505050506040513d601f19601f820116820180604052508101906104349190610fbd565b155b8061044c57506001546001600160a01b03163314155b1561046a57604051636caa20b560e11b815260040160405180910390fd5b60005b81518110156104e257600282828151811061048a5761048a610fda565b602002602001015160405161049f9190610f67565b90815260405190819003602001902060006104ba8282610ad3565b6104c8600183016000610ad3565b5060020180546001600160b01b031916905560010161046d565b507f29bcaf79081eba030e1ed6e9ba8ced104835bf3dfa56a8c185fd78b2ddcaf9d181604051610512919061104c565b60405180910390a150565b600054604051633cd4605360e11b81523360048201526001600160a01b03909116906379a8c0a690602401602060405180830381865afa158015610565573d6000803e3d6000fd5b505050506040513d601f19601f820116820180604052508101906105899190610fbd565b15806105fe575060005460405163f328ac9f60e01b81523360048201526001600160a01b039091169063f328ac9f90602401602060405180830381865afa1580156105d8573d6000803e3d6000fd5b505050506040513d601f19601f820116820180604052508101906105fc9190610fbd565b155b8061061457506001546001600160a01b03163314155b1561063257604051636caa20b560e11b815260040160405180910390fd5b600081516001600160401b0381111561064d5761064d610b29565b604051908082528060200260200182016040528015610676578160200160208202803683370190505b509050600082516001600160401b0381111561069457610694610b29565b6040519080825280602002602001820160405280156106bd578160200160208202803683370190505b509050600083516001600160401b038111156106db576106db610b29565b604051908082528060200260200182016040528015610704578160200160208202803683370190505b509050600084516001600160401b0381111561072257610722610b29565b60405190808252806020026020018201604052801561075557816020015b60608152602001906001900390816107405790505b509050600085516001600160401b0381111561077357610773610b29565b6040519080825280602002602001820160405280156107a657816020015b60608152602001906001900390816107915790505b50905060005b8651811015610a8b5760028782815181106107c9576107c9610fda565b6020026020010151600001516040516107e29190610f67565b90815260405190819003602001902080546107fc90610f83565b905060000361082e57600186828151811061081957610819610fda565b91151560209283029190910190910152610853565b600086828151811061084257610842610fda565b911515602092830291909101909101525b6040518060a0016040528088838151811061087057610870610fda565b602002602001015160000151815260200188838151811061089357610893610fda565b60200260200101516020015181526020018883815181106108b6576108b6610fda565b6020026020010151604001516001600160a01b031681526020018883815181106108e2576108e2610fda565b6020026020010151606001511515815260200188838151811061090757610907610fda565b6020026020010151608001511515815250600288838151811061092c5761092c610fda565b6020026020010151600001516040516109459190610f67565b9081526040519081900360200190208151819061096290826110ae565b506020820151600182019061097790826110ae565b5060408201516002909101805460608401516080909401511515600160a81b0260ff60a81b19941515600160a01b026001600160a81b03199092166001600160a01b0390941693909317179290921617905586518790829081106109dd576109dd610fda565b6020026020010151606001518582815181106109fb576109fb610fda565b602002602001019015159081151581525050868181518110610a1f57610a1f610fda565b602002602001015160200151838281518110610a3d57610a3d610fda565b6020026020010181905250868181518110610a5a57610a5a610fda565b602002602001015160000151828281518110610a7857610a78610fda565b60209081029190910101526001016107ac565b507f379b0a345375e6c6adfd5689e2896bb0e8c8be373eb9a2b579727146f2af62a88183868689604051610ac39594939291906111aa565b60405180910390a1505050505050565b508054610adf90610f83565b6000825580601f10610aef575050565b601f016020900490600052602060002090810190610b0d9190610b10565b50565b5b80821115610b255760008155600101610b11565b5090565b634e487b7160e01b600052604160045260246000fd5b60405160a081016001600160401b0381118282101715610b6157610b61610b29565b60405290565b604051601f8201601f191681016001600160401b0381118282101715610b8f57610b8f610b29565b604052919050565b6000806001600160401b03841115610bb157610bb1610b29565b50601f8301601f1916602001610bc681610b67565b915050828152838383011115610bdb57600080fd5b828260208301376000602084830101529392505050565b600082601f830112610c0357600080fd5b610c1283833560208501610b97565b9392505050565b600060208284031215610c2b57600080fd5b81356001600160401b03811115610c4157600080fd5b610c4d84828501610bf2565b949350505050565b60005b83811015610c70578181015183820152602001610c58565b50506000910152565b60008151808452610c91816020860160208601610c55565b601f01601f19169290920160200192915050565b602081526000610c126020830184610c79565b80356001600160a01b0381168114610ccf57600080fd5b919050565b600080600060608486031215610ce957600080fd5b610cf284610cb8565b9250610d0060208501610cb8565b9150610d0e60408501610cb8565b90509250925092565b60006001600160401b03821115610d3057610d30610b29565b5060051b60200190565b600060208284031215610d4c57600080fd5b81356001600160401b03811115610d6257600080fd5b8201601f81018413610d7357600080fd5b8035610d86610d8182610d17565b610b67565b8082825260208201915060208360051b850101925086831115610da857600080fd5b602084015b83811015610de95780356001600160401b03811115610dcb57600080fd5b610dda89602083890101610bf2565b84525060209283019201610dad565b509695505050505050565b8015158114610b0d57600080fd5b8035610ccf81610df4565b600060208284031215610e1f57600080fd5b81356001600160401b03811115610e3557600080fd5b8201601f81018413610e4657600080fd5b8035610e54610d8182610d17565b8082825260208201915060208360051b850101925086831115610e7657600080fd5b602084015b83811015610de95780356001600160401b03811115610e9957600080fd5b850160a0818a03601f19011215610eaf57600080fd5b610eb7610b3f565b60208201356001600160401b03811115610ed057600080fd5b610edf8b602083860101610bf2565b82525060408201356001600160401b03811115610efb57600080fd5b82016020810190603f018b13610f1057600080fd5b610f1f8b823560208401610b97565b602083015250610f3160608301610cb8565b6040820152610f4260808301610e02565b6060820152610f5360a08301610e02565b608082015284525060209283019201610e7b565b60008251610f79818460208701610c55565b9190910192915050565b600181811c90821680610f9757607f821691505b602082108103610fb757634e487b7160e01b600052602260045260246000fd5b50919050565b600060208284031215610fcf57600080fd5b8151610c1281610df4565b634e487b7160e01b600052603260045260246000fd5b600082825180855260208501945060208160051b8301016020850160005b8381101561104057601f1985840301885261102a838351610c79565b602098890198909350919091019060010161100e565b50909695505050505050565b602081526000610c126020830184610ff0565b601f8211156110a957806000526020600020601f840160051c810160208510156110865750805b601f840160051c820191505b818110156110a65760008155600101611092565b50505b505050565b81516001600160401b038111156110c7576110c7610b29565b6110db816110d58454610f83565b8461105f565b6020601f82116001811461110f57600083156110f75750848201515b600019600385901b1c1916600184901b1784556110a6565b600084815260208120601f198516915b8281101561113f578785015182556020948501946001909201910161111f565b508482101561115d5786840151600019600387901b60f8161c191681555b50505050600190811b01905550565b600081518084526020840193506020830160005b828110156111a05781511515865260209586019590910190600101611180565b5093949350505050565b60a0815260006111bd60a0830188610ff0565b828103602084015280875180835260208301915060208160051b84010160208a0160005b8381101561121357601f198684030185526111fd838351610c79565b60209586019590935091909101906001016111e1565b50508581036040870152611227818a61116c565b9350505050828103606084015261123e818661116c565b90508281036080840152611252818561116c565b9897505050505050505056fea26469706673582212200cb9a2bd5ef20b76febb604d9839b33bc2a2904f6e7e489d8b2259918a8fc2c364736f6c634300081a0033","linkReferences":{}},"methodIdentifiers":{"addOrModifyAgentsBatch((bytes,string,address,bool,bool)[])":"e5c5e098","getAgentIsEncrypted(bytes)":"866c4425","getAgentMetadata(bytes)":"657b1df4","getAgentWallet(bytes)":"3df4d16e","getAgentWriter(bytes)":"d02eca5c","initialize(address,address,address)":"c0c53b8b","nibbleAccessControls()":"9c081d2c","nibbleStorage()":"f8d0e296","removeAgentsBatch(bytes[])":"d558fb7b"},"id":27}