{"abi":[{"type":"function","name":"addOrModifyAgentsBatch","inputs":[{"name":"agents","type":"tuple[]","internalType":"struct NibbleLibrary.Agent[]","components":[{"name":"id","type":"bytes","internalType":"bytes"},{"name":"metadata","type":"string","internalType":"string"},{"name":"encrypted","type":"bool","internalType":"bool"},{"name":"writer","type":"bool","internalType":"bool"}]}],"outputs":[],"stateMutability":"nonpayable"},{"type":"function","name":"getAgentIsEncrypted","inputs":[{"name":"agentId","type":"bytes","internalType":"bytes"}],"outputs":[{"name":"","type":"bool","internalType":"bool"}],"stateMutability":"view"},{"type":"function","name":"getAgentMetadata","inputs":[{"name":"agentId","type":"bytes","internalType":"bytes"}],"outputs":[{"name":"","type":"string","internalType":"string"}],"stateMutability":"view"},{"type":"function","name":"initialize","inputs":[{"name":"nibbleFactoryAddress","type":"address","internalType":"address"},{"name":"nibbleAccessControlsAddress","type":"address","internalType":"address"},{"name":"nibbleStorageAddress","type":"address","internalType":"address"}],"outputs":[],"stateMutability":"nonpayable"},{"type":"function","name":"nibbleAccessControls","inputs":[],"outputs":[{"name":"","type":"address","internalType":"contract NibbleAccessControls"}],"stateMutability":"view"},{"type":"function","name":"nibbleStorage","inputs":[],"outputs":[{"name":"","type":"address","internalType":"address"}],"stateMutability":"view"},{"type":"function","name":"removeAgentsBatch","inputs":[{"name":"agentIds","type":"bytes[]","internalType":"bytes[]"}],"outputs":[],"stateMutability":"nonpayable"},{"type":"event","name":"AgentsModified","inputs":[{"name":"agentId","type":"bytes[]","indexed":false,"internalType":"bytes[]"},{"name":"metadata","type":"string[]","indexed":false,"internalType":"string[]"},{"name":"encrypted","type":"bool[]","indexed":false,"internalType":"bool[]"},{"name":"writers","type":"bool[]","indexed":false,"internalType":"bool[]"},{"name":"newAgent","type":"bool[]","indexed":false,"internalType":"bool[]"}],"anonymous":false},{"type":"event","name":"AgentsRemoved","inputs":[{"name":"agentId","type":"bytes[]","indexed":false,"internalType":"bytes[]"}],"anonymous":false},{"type":"event","name":"Initialized","inputs":[{"name":"version","type":"uint64","indexed":false,"internalType":"uint64"}],"anonymous":false},{"type":"error","name":"InvalidInitialization","inputs":[]},{"type":"error","name":"InvalidInitializer","inputs":[]},{"type":"error","name":"InvalidRole","inputs":[]},{"type":"error","name":"NotInitializing","inputs":[]}],"bytecode":{"object":"0x6080604052348015600f57600080fd5b506111b78061001f6000396000f3fe608060405234801561001057600080fd5b506004361061007d5760003560e01c80639c081d2c1161005b5780639c081d2c146100e3578063c0c53b8b1461010e578063d558fb7b14610121578063f8d0e2961461013457600080fd5b80634ce20c6c14610082578063657b1df414610097578063866c4425146100c0575b600080fd5b610095610090366004610b8e565b610147565b005b6100aa6100a5366004610ce7565b6106b1565b6040516100b79190610d73565b60405180910390f35b6100d36100ce366004610ce7565b610764565b60405190151581526020016100b7565b6000546100f6906001600160a01b031681565b6040516001600160a01b0390911681526020016100b7565b61009561011c366004610d9d565b610792565b61009561012f366004610de0565b6107f4565b6001546100f6906001600160a01b031681565b600054604051633cd4605360e11b81523360048201526001600160a01b03909116906379a8c0a690602401602060405180830381865afa15801561018f573d6000803e3d6000fd5b505050506040513d601f19601f820116820180604052508101906101b39190610e8a565b1580610228575060005460405163f328ac9f60e01b81523360048201526001600160a01b039091169063f328ac9f90602401602060405180830381865afa158015610202573d6000803e3d6000fd5b505050506040513d601f19601f820116820180604052508101906102269190610e8a565b155b8061023e57506001546001600160a01b03163314155b1561025c57604051636caa20b560e11b815260040160405180910390fd5b600081516001600160401b0381111561027757610277610a5d565b6040519080825280602002602001820160405280156102a0578160200160208202803683370190505b509050600082516001600160401b038111156102be576102be610a5d565b6040519080825280602002602001820160405280156102e7578160200160208202803683370190505b509050600083516001600160401b0381111561030557610305610a5d565b60405190808252806020026020018201604052801561032e578160200160208202803683370190505b509050600084516001600160401b0381111561034c5761034c610a5d565b60405190808252806020026020018201604052801561037f57816020015b606081526020019060019003908161036a5790505b509050600085516001600160401b0381111561039d5761039d610a5d565b6040519080825280602002602001820160405280156103d057816020015b60608152602001906001900390816103bb5790505b50905060005b86518110156106695760028782815181106103f3576103f3610ea7565b60200260200101516000015160405161040c9190610ebd565b908152604051908190036020019020805461042690610ed9565b905060000361045857600186828151811061044357610443610ea7565b9115156020928302919091019091015261047d565b600086828151811061046c5761046c610ea7565b911515602092830291909101909101525b604051806080016040528088838151811061049a5761049a610ea7565b60200260200101516000015181526020018883815181106104bd576104bd610ea7565b60200260200101516020015181526020018883815181106104e0576104e0610ea7565b6020026020010151604001511515815260200188838151811061050557610505610ea7565b6020026020010151606001511515815250600288838151811061052a5761052a610ea7565b6020026020010151600001516040516105439190610ebd565b908152604051908190036020019020815181906105609082610f62565b50602082015160018201906105759082610f62565b5060408201516002909101805460609093015115156101000261ff00199215159290921661ffff199093169290921717905586518790829081106105bb576105bb610ea7565b6020026020010151604001518582815181106105d9576105d9610ea7565b6020026020010190151590811515815250508681815181106105fd576105fd610ea7565b60200260200101516020015183828151811061061b5761061b610ea7565b602002602001018190525086818151811061063857610638610ea7565b60200260200101516000015182828151811061065657610656610ea7565b60209081029190910101526001016103d6565b507f379b0a345375e6c6adfd5689e2896bb0e8c8be373eb9a2b579727146f2af62a881838686896040516106a19594939291906110ba565b60405180910390a1505050505050565b60606002826040516106c39190610ebd565b908152602001604051809103902060010180546106df90610ed9565b80601f016020809104026020016040519081016040528092919081815260200182805461070b90610ed9565b80156107585780601f1061072d57610100808354040283529160200191610758565b820191906000526020600020905b81548152906001019060200180831161073b57829003601f168201915b50505050509050919050565b60006002826040516107769190610ebd565b9081526040519081900360200190206002015460ff1692915050565b82336001600160a01b038216146107bc5760405163adc06ae760e01b815260040160405180910390fd5b6107c46109b7565b50600080546001600160a01b039384166001600160a01b0319918216179091556001805492909316911617905550565b600054604051633cd4605360e11b81523360048201526001600160a01b03909116906379a8c0a690602401602060405180830381865afa15801561083c573d6000803e3d6000fd5b505050506040513d601f19601f820116820180604052508101906108609190610e8a565b15806108d5575060005460405163f328ac9f60e01b81523360048201526001600160a01b039091169063f328ac9f90602401602060405180830381865afa1580156108af573d6000803e3d6000fd5b505050506040513d601f19601f820116820180604052508101906108d39190610e8a565b155b806108eb57506001546001600160a01b03163314155b1561090957604051636caa20b560e11b815260040160405180910390fd5b60005b815181101561097c57600282828151811061092957610929610ea7565b602002602001015160405161093e9190610ebd565b90815260405190819003602001902060006109598282610a07565b610967600183016000610a07565b50600201805461ffff1916905560010161090c565b507f29bcaf79081eba030e1ed6e9ba8ced104835bf3dfa56a8c185fd78b2ddcaf9d1816040516109ac919061116e565b60405180910390a150565b7ff0c57e16840df040f15088dc2f81fe391c3923bec73e23a9662efc9c229c6a005468010000000000000000900460ff16610a0557604051631afcd79f60e31b815260040160405180910390fd5b565b508054610a1390610ed9565b6000825580601f10610a23575050565b601f016020900490600052602060002090810190610a419190610a44565b50565b5b80821115610a595760008155600101610a45565b5090565b634e487b7160e01b600052604160045260246000fd5b604051608081016001600160401b0381118282101715610a9557610a95610a5d565b60405290565b604051601f8201601f191681016001600160401b0381118282101715610ac357610ac3610a5d565b604052919050565b60006001600160401b03821115610ae457610ae4610a5d565b5060051b60200190565b6000806001600160401b03841115610b0857610b08610a5d565b50601f8301601f1916602001610b1d81610a9b565b915050828152838383011115610b3257600080fd5b828260208301376000602084830101529392505050565b600082601f830112610b5a57600080fd5b610b6983833560208501610aee565b9392505050565b8015158114610a4157600080fd5b8035610b8981610b70565b919050565b600060208284031215610ba057600080fd5b81356001600160401b03811115610bb657600080fd5b8201601f81018413610bc757600080fd5b8035610bda610bd582610acb565b610a9b565b8082825260208201915060208360051b850101925086831115610bfc57600080fd5b602084015b83811015610cdc5780356001600160401b03811115610c1f57600080fd5b85016080818a03601f19011215610c3557600080fd5b610c3d610a73565b60208201356001600160401b03811115610c5657600080fd5b610c658b602083860101610b49565b82525060408201356001600160401b03811115610c8157600080fd5b82016020810190603f018b13610c9657600080fd5b610ca58b823560208401610aee565b602083015250610cb760608301610b7e565b6040820152610cc860808301610b7e565b606082015284525060209283019201610c01565b509695505050505050565b600060208284031215610cf957600080fd5b81356001600160401b03811115610d0f57600080fd5b610d1b84828501610b49565b949350505050565b60005b83811015610d3e578181015183820152602001610d26565b50506000910152565b60008151808452610d5f816020860160208601610d23565b601f01601f19169290920160200192915050565b602081526000610b696020830184610d47565b80356001600160a01b0381168114610b8957600080fd5b600080600060608486031215610db257600080fd5b610dbb84610d86565b9250610dc960208501610d86565b9150610dd760408501610d86565b90509250925092565b600060208284031215610df257600080fd5b81356001600160401b03811115610e0857600080fd5b8201601f81018413610e1957600080fd5b8035610e27610bd582610acb565b8082825260208201915060208360051b850101925086831115610e4957600080fd5b602084015b83811015610cdc5780356001600160401b03811115610e6c57600080fd5b610e7b89602083890101610b49565b84525060209283019201610e4e565b600060208284031215610e9c57600080fd5b8151610b6981610b70565b634e487b7160e01b600052603260045260246000fd5b60008251610ecf818460208701610d23565b9190910192915050565b600181811c90821680610eed57607f821691505b602082108103610f0d57634e487b7160e01b600052602260045260246000fd5b50919050565b601f821115610f5d57806000526020600020601f840160051c81016020851015610f3a5750805b601f840160051c820191505b81811015610f5a5760008155600101610f46565b50505b505050565b81516001600160401b03811115610f7b57610f7b610a5d565b610f8f81610f898454610ed9565b84610f13565b6020601f821160018114610fc35760008315610fab5750848201515b600019600385901b1c1916600184901b178455610f5a565b600084815260208120601f198516915b82811015610ff35787850151825560209485019460019092019101610fd3565b50848210156110115786840151600019600387901b60f8161c191681555b50505050600190811b01905550565b600082825180855260208501945060208160051b8301016020850160005b8381101561107057601f1985840301885261105a838351610d47565b602098890198909350919091019060010161103e565b50909695505050505050565b600081518084526020840193506020830160005b828110156110b05781511515865260209586019590910190600101611090565b5093949350505050565b60a0815260006110cd60a0830188611020565b828103602084015280875180835260208301915060208160051b84010160208a0160005b8381101561112357601f1986840301855261110d838351610d47565b60209586019590935091909101906001016110f1565b50508581036040870152611137818a61107c565b9350505050828103606084015261114e818661107c565b90508281036080840152611162818561107c565b98975050505050505050565b602081526000610b69602083018461102056fea2646970667358221220851db82ff3be622294a7b1c751e9188860ca8a874c7b7500f3bf4de58ec3c62764736f6c634300081a0033","linkReferences":{}},"methodIdentifiers":{"addOrModifyAgentsBatch((bytes,string,bool,bool)[])":"4ce20c6c","getAgentIsEncrypted(bytes)":"866c4425","getAgentMetadata(bytes)":"657b1df4","initialize(address,address,address)":"c0c53b8b","nibbleAccessControls()":"9c081d2c","nibbleStorage()":"f8d0e296","removeAgentsBatch(bytes[])":"d558fb7b"},"id":33}