{"abi":[{"type":"function","name":"addOrModifyAgentsBatch","inputs":[{"name":"agents","type":"tuple[]","internalType":"struct NibbleLibrary.Agent[]","components":[{"name":"id","type":"bytes","internalType":"bytes"},{"name":"metadata","type":"string","internalType":"string"},{"name":"wallet","type":"address","internalType":"address"},{"name":"encrypted","type":"bool","internalType":"bool"},{"name":"writer","type":"bool","internalType":"bool"}]}],"outputs":[],"stateMutability":"nonpayable"},{"type":"function","name":"getAgentIsEncrypted","inputs":[{"name":"agentId","type":"bytes","internalType":"bytes"}],"outputs":[{"name":"","type":"bool","internalType":"bool"}],"stateMutability":"view"},{"type":"function","name":"getAgentMetadata","inputs":[{"name":"agentId","type":"bytes","internalType":"bytes"}],"outputs":[{"name":"","type":"string","internalType":"string"}],"stateMutability":"view"},{"type":"function","name":"getAgentWallet","inputs":[{"name":"agentId","type":"bytes","internalType":"bytes"}],"outputs":[{"name":"","type":"address","internalType":"address"}],"stateMutability":"view"},{"type":"function","name":"getAgentWriter","inputs":[{"name":"agentId","type":"bytes","internalType":"bytes"}],"outputs":[{"name":"","type":"bool","internalType":"bool"}],"stateMutability":"view"},{"type":"function","name":"initialize","inputs":[{"name":"nibbleFactoryAddress","type":"address","internalType":"address"},{"name":"nibbleAccessControlsAddress","type":"address","internalType":"address"},{"name":"nibbleStorageAddress","type":"address","internalType":"address"}],"outputs":[],"stateMutability":"nonpayable"},{"type":"function","name":"nibbleAccessControls","inputs":[],"outputs":[{"name":"","type":"address","internalType":"contract NibbleAccessControls"}],"stateMutability":"view"},{"type":"function","name":"nibbleStorage","inputs":[],"outputs":[{"name":"","type":"address","internalType":"address"}],"stateMutability":"view"},{"type":"function","name":"removeAgentsBatch","inputs":[{"name":"agentIds","type":"bytes[]","internalType":"bytes[]"}],"outputs":[],"stateMutability":"nonpayable"},{"type":"event","name":"AgentsModified","inputs":[{"name":"agentId","type":"bytes[]","indexed":false,"internalType":"bytes[]"},{"name":"metadata","type":"string[]","indexed":false,"internalType":"string[]"},{"name":"encrypted","type":"bool[]","indexed":false,"internalType":"bool[]"},{"name":"writers","type":"bool[]","indexed":false,"internalType":"bool[]"},{"name":"newAgent","type":"bool[]","indexed":false,"internalType":"bool[]"}],"anonymous":false},{"type":"event","name":"AgentsRemoved","inputs":[{"name":"agentId","type":"bytes[]","indexed":false,"internalType":"bytes[]"}],"anonymous":false},{"type":"event","name":"Initialized","inputs":[{"name":"version","type":"uint64","indexed":false,"internalType":"uint64"}],"anonymous":false},{"type":"error","name":"InvalidInitialization","inputs":[]},{"type":"error","name":"InvalidInitializer","inputs":[]},{"type":"error","name":"InvalidRole","inputs":[]},{"type":"error","name":"NotInitializing","inputs":[]}],"bytecode":{"object":"0x6080604052348015600f57600080fd5b506112c38061001f6000396000f3fe608060405234801561001057600080fd5b50600436106100935760003560e01c8063c0c53b8b11610066578063c0c53b8b1461011e578063d02eca5c14610133578063d558fb7b14610146578063e5c5e09814610159578063f8d0e2961461016c57600080fd5b80633df4d16e14610098578063657b1df4146100c8578063866c4425146100e85780639c081d2c1461010b575b600080fd5b6100ab6100a6366004610c48565b61017f565b6040516001600160a01b0390911681526020015b60405180910390f35b6100db6100d6366004610c48565b6101b3565b6040516100bf9190610cd4565b6100fb6100f6366004610c48565b610266565b60405190151581526020016100bf565b6000546100ab906001600160a01b031681565b61013161012c366004610d03565b61029c565b005b6100fb610141366004610c48565b6102fe565b610131610154366004610d69565b610334565b610131610167366004610e3c565b6104fc565b6001546100ab906001600160a01b031681565b60006002826040516101919190610f96565b908152604051908190036020019020600201546001600160a01b031692915050565b60606002826040516101c59190610f96565b908152602001604051809103902060010180546101e190610fb2565b80601f016020809104026020016040519081016040528092919081815260200182805461020d90610fb2565b801561025a5780601f1061022f5761010080835404028352916020019161025a565b820191906000526020600020905b81548152906001019060200180831161023d57829003601f168201915b50505050509050919050565b60006002826040516102789190610f96565b9081526040519081900360200190206002015460ff600160a01b9091041692915050565b82336001600160a01b038216146102c65760405163adc06ae760e01b815260040160405180910390fd5b6102ce610ab2565b50600080546001600160a01b039384166001600160a01b0319918216179091556001805492909316911617905550565b60006002826040516103109190610f96565b9081526040519081900360200190206002015460ff600160a81b9091041692915050565b600054604051633cd4605360e11b81523360048201526001600160a01b03909116906379a8c0a690602401602060405180830381865afa15801561037c573d6000803e3d6000fd5b505050506040513d601f19601f820116820180604052508101906103a09190610fec565b1580610415575060005460405163f328ac9f60e01b81523360048201526001600160a01b039091169063f328ac9f90602401602060405180830381865afa1580156103ef573d6000803e3d6000fd5b505050506040513d601f19601f820116820180604052508101906104139190610fec565b155b8061042b57506001546001600160a01b03163314155b1561044957604051636caa20b560e11b815260040160405180910390fd5b60005b81518110156104c157600282828151811061046957610469611009565b602002602001015160405161047e9190610f96565b90815260405190819003602001902060006104998282610b02565b6104a7600183016000610b02565b5060020180546001600160b01b031916905560010161044c565b507f29bcaf79081eba030e1ed6e9ba8ced104835bf3dfa56a8c185fd78b2ddcaf9d1816040516104f1919061107b565b60405180910390a150565b600054604051633cd4605360e11b81523360048201526001600160a01b03909116906379a8c0a690602401602060405180830381865afa158015610544573d6000803e3d6000fd5b505050506040513d601f19601f820116820180604052508101906105689190610fec565b15806105dd575060005460405163f328ac9f60e01b81523360048201526001600160a01b039091169063f328ac9f90602401602060405180830381865afa1580156105b7573d6000803e3d6000fd5b505050506040513d601f19601f820116820180604052508101906105db9190610fec565b155b806105f357506001546001600160a01b03163314155b1561061157604051636caa20b560e11b815260040160405180910390fd5b600081516001600160401b0381111561062c5761062c610b58565b604051908082528060200260200182016040528015610655578160200160208202803683370190505b509050600082516001600160401b0381111561067357610673610b58565b60405190808252806020026020018201604052801561069c578160200160208202803683370190505b509050600083516001600160401b038111156106ba576106ba610b58565b6040519080825280602002602001820160405280156106e3578160200160208202803683370190505b509050600084516001600160401b0381111561070157610701610b58565b60405190808252806020026020018201604052801561073457816020015b606081526020019060019003908161071f5790505b509050600085516001600160401b0381111561075257610752610b58565b60405190808252806020026020018201604052801561078557816020015b60608152602001906001900390816107705790505b50905060005b8651811015610a6a5760028782815181106107a8576107a8611009565b6020026020010151600001516040516107c19190610f96565b90815260405190819003602001902080546107db90610fb2565b905060000361080d5760018682815181106107f8576107f8611009565b91151560209283029190910190910152610832565b600086828151811061082157610821611009565b911515602092830291909101909101525b6040518060a0016040528088838151811061084f5761084f611009565b602002602001015160000151815260200188838151811061087257610872611009565b602002602001015160200151815260200188838151811061089557610895611009565b6020026020010151604001516001600160a01b031681526020018883815181106108c1576108c1611009565b602002602001015160600151151581526020018883815181106108e6576108e6611009565b6020026020010151608001511515815250600288838151811061090b5761090b611009565b6020026020010151600001516040516109249190610f96565b9081526040519081900360200190208151819061094190826110dd565b506020820151600182019061095690826110dd565b5060408201516002909101805460608401516080909401511515600160a81b0260ff60a81b19941515600160a01b026001600160a81b03199092166001600160a01b0390941693909317179290921617905586518790829081106109bc576109bc611009565b6020026020010151606001518582815181106109da576109da611009565b6020026020010190151590811515815250508681815181106109fe576109fe611009565b602002602001015160200151838281518110610a1c57610a1c611009565b6020026020010181905250868181518110610a3957610a39611009565b602002602001015160000151828281518110610a5757610a57611009565b602090810291909101015260010161078b565b507f379b0a345375e6c6adfd5689e2896bb0e8c8be373eb9a2b579727146f2af62a88183868689604051610aa29594939291906111d9565b60405180910390a1505050505050565b7ff0c57e16840df040f15088dc2f81fe391c3923bec73e23a9662efc9c229c6a005468010000000000000000900460ff16610b0057604051631afcd79f60e31b815260040160405180910390fd5b565b508054610b0e90610fb2565b6000825580601f10610b1e575050565b601f016020900490600052602060002090810190610b3c9190610b3f565b50565b5b80821115610b545760008155600101610b40565b5090565b634e487b7160e01b600052604160045260246000fd5b60405160a081016001600160401b0381118282101715610b9057610b90610b58565b60405290565b604051601f8201601f191681016001600160401b0381118282101715610bbe57610bbe610b58565b604052919050565b6000806001600160401b03841115610be057610be0610b58565b50601f8301601f1916602001610bf581610b96565b915050828152838383011115610c0a57600080fd5b828260208301376000602084830101529392505050565b600082601f830112610c3257600080fd5b610c4183833560208501610bc6565b9392505050565b600060208284031215610c5a57600080fd5b81356001600160401b03811115610c7057600080fd5b610c7c84828501610c21565b949350505050565b60005b83811015610c9f578181015183820152602001610c87565b50506000910152565b60008151808452610cc0816020860160208601610c84565b601f01601f19169290920160200192915050565b602081526000610c416020830184610ca8565b80356001600160a01b0381168114610cfe57600080fd5b919050565b600080600060608486031215610d1857600080fd5b610d2184610ce7565b9250610d2f60208501610ce7565b9150610d3d60408501610ce7565b90509250925092565b60006001600160401b03821115610d5f57610d5f610b58565b5060051b60200190565b600060208284031215610d7b57600080fd5b81356001600160401b03811115610d9157600080fd5b8201601f81018413610da257600080fd5b8035610db5610db082610d46565b610b96565b8082825260208201915060208360051b850101925086831115610dd757600080fd5b602084015b83811015610e185780356001600160401b03811115610dfa57600080fd5b610e0989602083890101610c21565b84525060209283019201610ddc565b509695505050505050565b8015158114610b3c57600080fd5b8035610cfe81610e23565b600060208284031215610e4e57600080fd5b81356001600160401b03811115610e6457600080fd5b8201601f81018413610e7557600080fd5b8035610e83610db082610d46565b8082825260208201915060208360051b850101925086831115610ea557600080fd5b602084015b83811015610e185780356001600160401b03811115610ec857600080fd5b850160a0818a03601f19011215610ede57600080fd5b610ee6610b6e565b60208201356001600160401b03811115610eff57600080fd5b610f0e8b602083860101610c21565b82525060408201356001600160401b03811115610f2a57600080fd5b82016020810190603f018b13610f3f57600080fd5b610f4e8b823560208401610bc6565b602083015250610f6060608301610ce7565b6040820152610f7160808301610e31565b6060820152610f8260a08301610e31565b608082015284525060209283019201610eaa565b60008251610fa8818460208701610c84565b9190910192915050565b600181811c90821680610fc657607f821691505b602082108103610fe657634e487b7160e01b600052602260045260246000fd5b50919050565b600060208284031215610ffe57600080fd5b8151610c4181610e23565b634e487b7160e01b600052603260045260246000fd5b600082825180855260208501945060208160051b8301016020850160005b8381101561106f57601f19858403018852611059838351610ca8565b602098890198909350919091019060010161103d565b50909695505050505050565b602081526000610c41602083018461101f565b601f8211156110d857806000526020600020601f840160051c810160208510156110b55750805b601f840160051c820191505b818110156110d557600081556001016110c1565b50505b505050565b81516001600160401b038111156110f6576110f6610b58565b61110a816111048454610fb2565b8461108e565b6020601f82116001811461113e57600083156111265750848201515b600019600385901b1c1916600184901b1784556110d5565b600084815260208120601f198516915b8281101561116e578785015182556020948501946001909201910161114e565b508482101561118c5786840151600019600387901b60f8161c191681555b50505050600190811b01905550565b600081518084526020840193506020830160005b828110156111cf57815115158652602095860195909101906001016111af565b5093949350505050565b60a0815260006111ec60a083018861101f565b828103602084015280875180835260208301915060208160051b84010160208a0160005b8381101561124257601f1986840301855261122c838351610ca8565b6020958601959093509190910190600101611210565b50508581036040870152611256818a61119b565b9350505050828103606084015261126d818661119b565b90508281036080840152611281818561119b565b9897505050505050505056fea26469706673582212209bb54c77b22ada4ef4a5754a6db8995b91f6b0c5315d4a85617389c5130d61ba64736f6c634300081a0033","linkReferences":{}},"methodIdentifiers":{"addOrModifyAgentsBatch((bytes,string,address,bool,bool)[])":"e5c5e098","getAgentIsEncrypted(bytes)":"866c4425","getAgentMetadata(bytes)":"657b1df4","getAgentWallet(bytes)":"3df4d16e","getAgentWriter(bytes)":"d02eca5c","initialize(address,address,address)":"c0c53b8b","nibbleAccessControls()":"9c081d2c","nibbleStorage()":"f8d0e296","removeAgentsBatch(bytes[])":"d558fb7b"},"id":4}