{"abi":[{"type":"function","name":"addOrModifyFHEGatesBatch","inputs":[{"name":"fheGates","type":"tuple[]","internalType":"struct NibbleLibrary.FHEGate[]","components":[{"name":"id","type":"bytes","internalType":"bytes"},{"name":"metadata","type":"string","internalType":"string"},{"name":"encrypted","type":"bool","internalType":"bool"}]}],"outputs":[],"stateMutability":"nonpayable"},{"type":"function","name":"getFHEGateIsEncrypted","inputs":[{"name":"fheGateId","type":"bytes","internalType":"bytes"}],"outputs":[{"name":"","type":"bool","internalType":"bool"}],"stateMutability":"view"},{"type":"function","name":"getFHEGateMetadata","inputs":[{"name":"fheGateId","type":"bytes","internalType":"bytes"}],"outputs":[{"name":"","type":"string","internalType":"string"}],"stateMutability":"view"},{"type":"function","name":"initialize","inputs":[{"name":"nibbleFactoryAddress","type":"address","internalType":"address"},{"name":"nibbleAccessControlsAddress","type":"address","internalType":"address"},{"name":"nibbleStorageAddress","type":"address","internalType":"address"}],"outputs":[],"stateMutability":"nonpayable"},{"type":"function","name":"nibbleAccessControls","inputs":[],"outputs":[{"name":"","type":"address","internalType":"contract NibbleAccessControls"}],"stateMutability":"view"},{"type":"function","name":"nibbleStorage","inputs":[],"outputs":[{"name":"","type":"address","internalType":"address"}],"stateMutability":"view"},{"type":"function","name":"removeFHEGatesBatch","inputs":[{"name":"fheGateIds","type":"bytes[]","internalType":"bytes[]"}],"outputs":[],"stateMutability":"nonpayable"},{"type":"event","name":"FHEGatesModified","inputs":[{"name":"fheGateId","type":"bytes[]","indexed":false,"internalType":"bytes[]"},{"name":"metadata","type":"string[]","indexed":false,"internalType":"string[]"},{"name":"encrypted","type":"bool[]","indexed":false,"internalType":"bool[]"},{"name":"onChain","type":"bool[]","indexed":false,"internalType":"bool[]"},{"name":"newFHEGate","type":"bool[]","indexed":false,"internalType":"bool[]"}],"anonymous":false},{"type":"event","name":"FHEGatesRemoved","inputs":[{"name":"fheGateId","type":"bytes[]","indexed":false,"internalType":"bytes[]"}],"anonymous":false},{"type":"event","name":"Initialized","inputs":[{"name":"version","type":"uint64","indexed":false,"internalType":"uint64"}],"anonymous":false},{"type":"error","name":"InvalidInitialization","inputs":[]},{"type":"error","name":"InvalidInitializer","inputs":[]},{"type":"error","name":"InvalidRole","inputs":[]},{"type":"error","name":"NotInitializing","inputs":[]}],"bytecode":{"object":"0x6080604052348015600f57600080fd5b506111658061001f6000396000f3fe608060405234801561001057600080fd5b506004361061007d5760003560e01c80639c081d2c1161005b5780639c081d2c146100e3578063b7f010dc1461010e578063c0c53b8b14610121578063f8d0e2961461013457600080fd5b8063488f5ac9146100825780636731232f146100ab57806398627daa146100c0575b600080fd5b610095610090366004610b11565b610147565b6040516100a29190610b9d565b60405180910390f35b6100be6100b9366004610bd3565b6101fa565b005b6100d36100ce366004610b11565b6103bc565b60405190151581526020016100a2565b6000546100f6906001600160a01b031681565b6040516001600160a01b0390911681526020016100a2565b6100be61011c366004610c9b565b6103ea565b6100be61012f366004610df5565b610919565b6001546100f6906001600160a01b031681565b60606002826040516101599190610e38565b9081526020016040518091039020600101805461017590610e54565b80601f01602080910402602001604051908101604052809291908181526020018280546101a190610e54565b80156101ee5780601f106101c3576101008083540402835291602001916101ee565b820191906000526020600020905b8154815290600101906020018083116101d157829003601f168201915b50505050509050919050565b600054604051633cd4605360e11b81523360048201526001600160a01b03909116906379a8c0a690602401602060405180830381865afa158015610242573d6000803e3d6000fd5b505050506040513d601f19601f820116820180604052508101906102669190610e8e565b15806102db575060005460405163f328ac9f60e01b81523360048201526001600160a01b039091169063f328ac9f90602401602060405180830381865afa1580156102b5573d6000803e3d6000fd5b505050506040513d601f19601f820116820180604052508101906102d99190610e8e565b155b806102f157506001546001600160a01b03163314155b1561030f57604051636caa20b560e11b815260040160405180910390fd5b60005b815181101561038157600282828151811061032f5761032f610eab565b60200260200101516040516103449190610e38565b908152604051908190036020019020600061035f82826109cb565b61036d6001830160006109cb565b50600201805460ff19169055600101610312565b507f4ed43bfd93ac6ba3334f064064bab39f85ce9e883264df32b973883686df429d816040516103b19190610f1d565b60405180910390a150565b60006002826040516103ce9190610e38565b9081526040519081900360200190206002015460ff1692915050565b600054604051633cd4605360e11b81523360048201526001600160a01b03909116906379a8c0a690602401602060405180830381865afa158015610432573d6000803e3d6000fd5b505050506040513d601f19601f820116820180604052508101906104569190610e8e565b15806104cb575060005460405163f328ac9f60e01b81523360048201526001600160a01b039091169063f328ac9f90602401602060405180830381865afa1580156104a5573d6000803e3d6000fd5b505050506040513d601f19601f820116820180604052508101906104c99190610e8e565b155b806104e157506001546001600160a01b03163314155b156104ff57604051636caa20b560e11b815260040160405180910390fd5b600081516001600160401b0381111561051a5761051a610a21565b604051908082528060200260200182016040528015610543578160200160208202803683370190505b509050600082516001600160401b0381111561056157610561610a21565b60405190808252806020026020018201604052801561058a578160200160208202803683370190505b509050600083516001600160401b038111156105a8576105a8610a21565b6040519080825280602002602001820160405280156105d1578160200160208202803683370190505b509050600084516001600160401b038111156105ef576105ef610a21565b60405190808252806020026020018201604052801561062257816020015b606081526020019060019003908161060d5790505b509050600085516001600160401b0381111561064057610640610a21565b60405190808252806020026020018201604052801561067357816020015b606081526020019060019003908161065e5790505b50905060005b86518110156108d157600287828151811061069657610696610eab565b6020026020010151600001516040516106af9190610e38565b90815260405190819003602001902080546106c990610e54565b90506000036106fb5760018682815181106106e6576106e6610eab565b91151560209283029190910190910152610720565b600086828151811061070f5761070f610eab565b911515602092830291909101909101525b604051806060016040528088838151811061073d5761073d610eab565b602002602001015160000151815260200188838151811061076057610760610eab565b602002602001015160200151815260200188838151811061078357610783610eab565b602002602001015160400151151581525060028883815181106107a8576107a8610eab565b6020026020010151600001516040516107c19190610e38565b908152604051908190036020019020815181906107de9082610f7f565b50602082015160018201906107f39082610f7f565b50604091909101516002909101805460ff1916911515919091179055865187908290811061082357610823610eab565b60200260200101516040015185828151811061084157610841610eab565b60200260200101901515908115158152505086818151811061086557610865610eab565b60200260200101516020015183828151811061088357610883610eab565b60200260200101819052508681815181106108a0576108a0610eab565b6020026020010151600001518282815181106108be576108be610eab565b6020908102919091010152600101610679565b507f227574fca6c1ceff6dd48d5317077573f76e900e098256e7d987f7cf0cf708c1818386868960405161090995949392919061107b565b60405180910390a1505050505050565b82336001600160a01b038216146109435760405163adc06ae760e01b815260040160405180910390fd5b61094b61097b565b50600080546001600160a01b039384166001600160a01b0319918216179091556001805492909316911617905550565b7ff0c57e16840df040f15088dc2f81fe391c3923bec73e23a9662efc9c229c6a005468010000000000000000900460ff166109c957604051631afcd79f60e31b815260040160405180910390fd5b565b5080546109d790610e54565b6000825580601f106109e7575050565b601f016020900490600052602060002090810190610a059190610a08565b50565b5b80821115610a1d5760008155600101610a09565b5090565b634e487b7160e01b600052604160045260246000fd5b604051606081016001600160401b0381118282101715610a5957610a59610a21565b60405290565b604051601f8201601f191681016001600160401b0381118282101715610a8757610a87610a21565b604052919050565b6000806001600160401b03841115610aa957610aa9610a21565b50601f8301601f1916602001610abe81610a5f565b915050828152838383011115610ad357600080fd5b828260208301376000602084830101529392505050565b600082601f830112610afb57600080fd5b610b0a83833560208501610a8f565b9392505050565b600060208284031215610b2357600080fd5b81356001600160401b03811115610b3957600080fd5b610b4584828501610aea565b949350505050565b60005b83811015610b68578181015183820152602001610b50565b50506000910152565b60008151808452610b89816020860160208601610b4d565b601f01601f19169290920160200192915050565b602081526000610b0a6020830184610b71565b60006001600160401b03821115610bc957610bc9610a21565b5060051b60200190565b600060208284031215610be557600080fd5b81356001600160401b03811115610bfb57600080fd5b8201601f81018413610c0c57600080fd5b8035610c1f610c1a82610bb0565b610a5f565b8082825260208201915060208360051b850101925086831115610c4157600080fd5b602084015b83811015610c825780356001600160401b03811115610c6457600080fd5b610c7389602083890101610aea565b84525060209283019201610c46565b509695505050505050565b8015158114610a0557600080fd5b600060208284031215610cad57600080fd5b81356001600160401b03811115610cc357600080fd5b8201601f81018413610cd457600080fd5b8035610ce2610c1a82610bb0565b8082825260208201915060208360051b850101925086831115610d0457600080fd5b602084015b83811015610c825780356001600160401b03811115610d2757600080fd5b85016060818a03601f19011215610d3d57600080fd5b610d45610a37565b60208201356001600160401b03811115610d5e57600080fd5b610d6d8b602083860101610aea565b82525060408201356001600160401b03811115610d8957600080fd5b82016020810190603f018b13610d9e57600080fd5b610dad8b823560208401610a8f565b60208301525060608201359150610dc382610c8d565b6040810191909152835260209283019201610d09565b80356001600160a01b0381168114610df057600080fd5b919050565b600080600060608486031215610e0a57600080fd5b610e1384610dd9565b9250610e2160208501610dd9565b9150610e2f60408501610dd9565b90509250925092565b60008251610e4a818460208701610b4d565b9190910192915050565b600181811c90821680610e6857607f821691505b602082108103610e8857634e487b7160e01b600052602260045260246000fd5b50919050565b600060208284031215610ea057600080fd5b8151610b0a81610c8d565b634e487b7160e01b600052603260045260246000fd5b600082825180855260208501945060208160051b8301016020850160005b83811015610f1157601f19858403018852610efb838351610b71565b6020988901989093509190910190600101610edf565b50909695505050505050565b602081526000610b0a6020830184610ec1565b601f821115610f7a57806000526020600020601f840160051c81016020851015610f575750805b601f840160051c820191505b81811015610f775760008155600101610f63565b50505b505050565b81516001600160401b03811115610f9857610f98610a21565b610fac81610fa68454610e54565b84610f30565b6020601f821160018114610fe05760008315610fc85750848201515b600019600385901b1c1916600184901b178455610f77565b600084815260208120601f198516915b828110156110105787850151825560209485019460019092019101610ff0565b508482101561102e5786840151600019600387901b60f8161c191681555b50505050600190811b01905550565b600081518084526020840193506020830160005b828110156110715781511515865260209586019590910190600101611051565b5093949350505050565b60a08152600061108e60a0830188610ec1565b828103602084015280875180835260208301915060208160051b84010160208a0160005b838110156110e457601f198684030185526110ce838351610b71565b60209586019590935091909101906001016110b2565b505085810360408701526110f8818a61103d565b9350505050828103606084015261110f818661103d565b90508281036080840152611123818561103d565b9897505050505050505056fea2646970667358221220c476eabfedc0c9371e3706d09d9a68b7fd4a9f8994a245cbb2ff82e15218674164736f6c634300081a0033","linkReferences":{}},"methodIdentifiers":{"addOrModifyFHEGatesBatch((bytes,string,bool)[])":"b7f010dc","getFHEGateIsEncrypted(bytes)":"98627daa","getFHEGateMetadata(bytes)":"488f5ac9","initialize(address,address,address)":"c0c53b8b","nibbleAccessControls()":"9c081d2c","nibbleStorage()":"f8d0e296","removeFHEGatesBatch(bytes[])":"6731232f"},"id":8}