{"abi":[{"type":"function","name":"addOrModifyFHEGatesBatch","inputs":[{"name":"fheGates","type":"tuple[]","internalType":"struct NibbleLibrary.FHEGate[]","components":[{"name":"id","type":"bytes","internalType":"bytes"},{"name":"metadata","type":"string","internalType":"string"},{"name":"encrypted","type":"bool","internalType":"bool"}]}],"outputs":[],"stateMutability":"nonpayable"},{"type":"function","name":"getFHEGateIsEncrypted","inputs":[{"name":"fheGateId","type":"bytes","internalType":"bytes"}],"outputs":[{"name":"","type":"bool","internalType":"bool"}],"stateMutability":"view"},{"type":"function","name":"getFHEGateMetadata","inputs":[{"name":"fheGateId","type":"bytes","internalType":"bytes"}],"outputs":[{"name":"","type":"string","internalType":"string"}],"stateMutability":"view"},{"type":"function","name":"initialize","inputs":[{"name":"nibbleFactoryAddress","type":"address","internalType":"address"},{"name":"nibbleAccessControlsAddress","type":"address","internalType":"address"},{"name":"nibbleStorageAddress","type":"address","internalType":"address"}],"outputs":[],"stateMutability":"nonpayable"},{"type":"function","name":"nibbleAccessControls","inputs":[],"outputs":[{"name":"","type":"address","internalType":"contract NibbleAccessControls"}],"stateMutability":"view"},{"type":"function","name":"nibbleStorage","inputs":[],"outputs":[{"name":"","type":"address","internalType":"address"}],"stateMutability":"view"},{"type":"function","name":"removeFHEGatesBatch","inputs":[{"name":"fheGateIds","type":"bytes[]","internalType":"bytes[]"}],"outputs":[],"stateMutability":"nonpayable"},{"type":"event","name":"FHEGatesModified","inputs":[{"name":"fheGateId","type":"bytes[]","indexed":false,"internalType":"bytes[]"},{"name":"metadata","type":"string[]","indexed":false,"internalType":"string[]"},{"name":"encrypted","type":"bool[]","indexed":false,"internalType":"bool[]"},{"name":"onChain","type":"bool[]","indexed":false,"internalType":"bool[]"},{"name":"newFHEGate","type":"bool[]","indexed":false,"internalType":"bool[]"}],"anonymous":false},{"type":"event","name":"FHEGatesRemoved","inputs":[{"name":"fheGateId","type":"bytes[]","indexed":false,"internalType":"bytes[]"}],"anonymous":false},{"type":"event","name":"Initialized","inputs":[{"name":"version","type":"uint64","indexed":false,"internalType":"uint64"}],"anonymous":false},{"type":"error","name":"AlreadyInitialized","inputs":[]},{"type":"error","name":"InvalidInitialization","inputs":[]},{"type":"error","name":"InvalidInitializer","inputs":[]},{"type":"error","name":"InvalidRole","inputs":[]},{"type":"error","name":"NotInitializing","inputs":[]}],"bytecode":{"object":"0x6080604052348015600f57600080fd5b506111368061001f6000396000f3fe608060405234801561001057600080fd5b506004361061007d5760003560e01c80639c081d2c1161005b5780639c081d2c146100e3578063b7f010dc1461010e578063c0c53b8b14610121578063f8d0e2961461013457600080fd5b8063488f5ac9146100825780636731232f146100ab57806398627daa146100c0575b600080fd5b610095610090366004610ae2565b610147565b6040516100a29190610b6e565b60405180910390f35b6100be6100b9366004610ba4565b6101fa565b005b6100d36100ce366004610ae2565b6103bc565b60405190151581526020016100a2565b6000546100f6906001600160a01b031681565b6040516001600160a01b0390911681526020016100a2565b6100be61011c366004610c6c565b6103ea565b6100be61012f366004610dc6565b610919565b6001546100f6906001600160a01b031681565b60606002826040516101599190610e09565b9081526020016040518091039020600101805461017590610e25565b80601f01602080910402602001604051908101604052809291908181526020018280546101a190610e25565b80156101ee5780601f106101c3576101008083540402835291602001916101ee565b820191906000526020600020905b8154815290600101906020018083116101d157829003601f168201915b50505050509050919050565b600054604051633cd4605360e11b81523360048201526001600160a01b03909116906379a8c0a690602401602060405180830381865afa158015610242573d6000803e3d6000fd5b505050506040513d601f19601f820116820180604052508101906102669190610e5f565b15806102db575060005460405163f328ac9f60e01b81523360048201526001600160a01b039091169063f328ac9f90602401602060405180830381865afa1580156102b5573d6000803e3d6000fd5b505050506040513d601f19601f820116820180604052508101906102d99190610e5f565b155b806102f157506001546001600160a01b03163314155b1561030f57604051636caa20b560e11b815260040160405180910390fd5b60005b815181101561038157600282828151811061032f5761032f610e7c565b60200260200101516040516103449190610e09565b908152604051908190036020019020600061035f828261099c565b61036d60018301600061099c565b50600201805460ff19169055600101610312565b507f4ed43bfd93ac6ba3334f064064bab39f85ce9e883264df32b973883686df429d816040516103b19190610eee565b60405180910390a150565b60006002826040516103ce9190610e09565b9081526040519081900360200190206002015460ff1692915050565b600054604051633cd4605360e11b81523360048201526001600160a01b03909116906379a8c0a690602401602060405180830381865afa158015610432573d6000803e3d6000fd5b505050506040513d601f19601f820116820180604052508101906104569190610e5f565b15806104cb575060005460405163f328ac9f60e01b81523360048201526001600160a01b039091169063f328ac9f90602401602060405180830381865afa1580156104a5573d6000803e3d6000fd5b505050506040513d601f19601f820116820180604052508101906104c99190610e5f565b155b806104e157506001546001600160a01b03163314155b156104ff57604051636caa20b560e11b815260040160405180910390fd5b600081516001600160401b0381111561051a5761051a6109f2565b604051908082528060200260200182016040528015610543578160200160208202803683370190505b509050600082516001600160401b03811115610561576105616109f2565b60405190808252806020026020018201604052801561058a578160200160208202803683370190505b509050600083516001600160401b038111156105a8576105a86109f2565b6040519080825280602002602001820160405280156105d1578160200160208202803683370190505b509050600084516001600160401b038111156105ef576105ef6109f2565b60405190808252806020026020018201604052801561062257816020015b606081526020019060019003908161060d5790505b509050600085516001600160401b03811115610640576106406109f2565b60405190808252806020026020018201604052801561067357816020015b606081526020019060019003908161065e5790505b50905060005b86518110156108d157600287828151811061069657610696610e7c565b6020026020010151600001516040516106af9190610e09565b90815260405190819003602001902080546106c990610e25565b90506000036106fb5760018682815181106106e6576106e6610e7c565b91151560209283029190910190910152610720565b600086828151811061070f5761070f610e7c565b911515602092830291909101909101525b604051806060016040528088838151811061073d5761073d610e7c565b602002602001015160000151815260200188838151811061076057610760610e7c565b602002602001015160200151815260200188838151811061078357610783610e7c565b602002602001015160400151151581525060028883815181106107a8576107a8610e7c565b6020026020010151600001516040516107c19190610e09565b908152604051908190036020019020815181906107de9082610f50565b50602082015160018201906107f39082610f50565b50604091909101516002909101805460ff1916911515919091179055865187908290811061082357610823610e7c565b60200260200101516040015185828151811061084157610841610e7c565b60200260200101901515908115158152505086818151811061086557610865610e7c565b60200260200101516020015183828151811061088357610883610e7c565b60200260200101819052508681815181106108a0576108a0610e7c565b6020026020010151600001518282815181106108be576108be610e7c565b6020908102919091010152600101610679565b507f227574fca6c1ceff6dd48d5317077573f76e900e098256e7d987f7cf0cf708c1818386868960405161090995949392919061104c565b60405180910390a1505050505050565b82336001600160a01b038216146109435760405163adc06ae760e01b815260040160405180910390fd5b6000546001600160a01b03161561096c5760405162dc149f60e41b815260040160405180910390fd5b50600080546001600160a01b039384166001600160a01b0319918216179091556001805492909316911617905550565b5080546109a890610e25565b6000825580601f106109b8575050565b601f0160209004906000526020600020908101906109d691906109d9565b50565b5b808211156109ee57600081556001016109da565b5090565b634e487b7160e01b600052604160045260246000fd5b604051606081016001600160401b0381118282101715610a2a57610a2a6109f2565b60405290565b604051601f8201601f191681016001600160401b0381118282101715610a5857610a586109f2565b604052919050565b6000806001600160401b03841115610a7a57610a7a6109f2565b50601f8301601f1916602001610a8f81610a30565b915050828152838383011115610aa457600080fd5b828260208301376000602084830101529392505050565b600082601f830112610acc57600080fd5b610adb83833560208501610a60565b9392505050565b600060208284031215610af457600080fd5b81356001600160401b03811115610b0a57600080fd5b610b1684828501610abb565b949350505050565b60005b83811015610b39578181015183820152602001610b21565b50506000910152565b60008151808452610b5a816020860160208601610b1e565b601f01601f19169290920160200192915050565b602081526000610adb6020830184610b42565b60006001600160401b03821115610b9a57610b9a6109f2565b5060051b60200190565b600060208284031215610bb657600080fd5b81356001600160401b03811115610bcc57600080fd5b8201601f81018413610bdd57600080fd5b8035610bf0610beb82610b81565b610a30565b8082825260208201915060208360051b850101925086831115610c1257600080fd5b602084015b83811015610c535780356001600160401b03811115610c3557600080fd5b610c4489602083890101610abb565b84525060209283019201610c17565b509695505050505050565b80151581146109d657600080fd5b600060208284031215610c7e57600080fd5b81356001600160401b03811115610c9457600080fd5b8201601f81018413610ca557600080fd5b8035610cb3610beb82610b81565b8082825260208201915060208360051b850101925086831115610cd557600080fd5b602084015b83811015610c535780356001600160401b03811115610cf857600080fd5b85016060818a03601f19011215610d0e57600080fd5b610d16610a08565b60208201356001600160401b03811115610d2f57600080fd5b610d3e8b602083860101610abb565b82525060408201356001600160401b03811115610d5a57600080fd5b82016020810190603f018b13610d6f57600080fd5b610d7e8b823560208401610a60565b60208301525060608201359150610d9482610c5e565b6040810191909152835260209283019201610cda565b80356001600160a01b0381168114610dc157600080fd5b919050565b600080600060608486031215610ddb57600080fd5b610de484610daa565b9250610df260208501610daa565b9150610e0060408501610daa565b90509250925092565b60008251610e1b818460208701610b1e565b9190910192915050565b600181811c90821680610e3957607f821691505b602082108103610e5957634e487b7160e01b600052602260045260246000fd5b50919050565b600060208284031215610e7157600080fd5b8151610adb81610c5e565b634e487b7160e01b600052603260045260246000fd5b600082825180855260208501945060208160051b8301016020850160005b83811015610ee257601f19858403018852610ecc838351610b42565b6020988901989093509190910190600101610eb0565b50909695505050505050565b602081526000610adb6020830184610e92565b601f821115610f4b57806000526020600020601f840160051c81016020851015610f285750805b601f840160051c820191505b81811015610f485760008155600101610f34565b50505b505050565b81516001600160401b03811115610f6957610f696109f2565b610f7d81610f778454610e25565b84610f01565b6020601f821160018114610fb15760008315610f995750848201515b600019600385901b1c1916600184901b178455610f48565b600084815260208120601f198516915b82811015610fe15787850151825560209485019460019092019101610fc1565b5084821015610fff5786840151600019600387901b60f8161c191681555b50505050600190811b01905550565b600081518084526020840193506020830160005b828110156110425781511515865260209586019590910190600101611022565b5093949350505050565b60a08152600061105f60a0830188610e92565b828103602084015280875180835260208301915060208160051b84010160208a0160005b838110156110b557601f1986840301855261109f838351610b42565b6020958601959093509190910190600101611083565b505085810360408701526110c9818a61100e565b935050505082810360608401526110e0818661100e565b905082810360808401526110f4818561100e565b9897505050505050505056fea26469706673582212201b263edc0432fc6dded48ac1528fe24bcaaf1ca3f5a88b8d154c890c76de7a1c64736f6c634300081a0033","linkReferences":{}},"methodIdentifiers":{"addOrModifyFHEGatesBatch((bytes,string,bool)[])":"b7f010dc","getFHEGateIsEncrypted(bytes)":"98627daa","getFHEGateMetadata(bytes)":"488f5ac9","initialize(address,address,address)":"c0c53b8b","nibbleAccessControls()":"9c081d2c","nibbleStorage()":"f8d0e296","removeFHEGatesBatch(bytes[])":"6731232f"},"id":31}