{"abi":[{"type":"function","name":"addOrModifyWorkflow","inputs":[{"name":"workflow","type":"tuple","internalType":"struct NibbleLibrary.Workflow","components":[{"name":"id","type":"bytes","internalType":"bytes"},{"name":"metadata","type":"string","internalType":"string"},{"name":"encrypted","type":"bool","internalType":"bool"}]}],"outputs":[],"stateMutability":"nonpayable"},{"type":"function","name":"getWorkflowIsEncrypted","inputs":[{"name":"workflowId","type":"bytes","internalType":"bytes"}],"outputs":[{"name":"","type":"bool","internalType":"bool"}],"stateMutability":"view"},{"type":"function","name":"getWorkflowMetadata","inputs":[{"name":"workflowId","type":"bytes","internalType":"bytes"}],"outputs":[{"name":"","type":"string","internalType":"string"}],"stateMutability":"view"},{"type":"function","name":"initialize","inputs":[{"name":"nibbleFactoryAddress","type":"address","internalType":"address"},{"name":"nibbleAccessControlsAddress","type":"address","internalType":"address"},{"name":"nibbleStorageAddress","type":"address","internalType":"address"}],"outputs":[],"stateMutability":"nonpayable"},{"type":"function","name":"nibbleAccessControls","inputs":[],"outputs":[{"name":"","type":"address","internalType":"contract NibbleAccessControls"}],"stateMutability":"view"},{"type":"function","name":"nibbleStorage","inputs":[],"outputs":[{"name":"","type":"address","internalType":"address"}],"stateMutability":"view"},{"type":"function","name":"removeWorkflow","inputs":[{"name":"workflowId","type":"bytes","internalType":"bytes"}],"outputs":[],"stateMutability":"nonpayable"},{"type":"event","name":"Initialized","inputs":[{"name":"version","type":"uint64","indexed":false,"internalType":"uint64"}],"anonymous":false},{"type":"event","name":"WorkflowModified","inputs":[{"name":"workflowId","type":"bytes","indexed":false,"internalType":"bytes"},{"name":"metadata","type":"string","indexed":false,"internalType":"string"},{"name":"encrypted","type":"bool","indexed":false,"internalType":"bool"},{"name":"newWorkflow","type":"bool","indexed":false,"internalType":"bool"}],"anonymous":false},{"type":"event","name":"WorkflowRemoved","inputs":[{"name":"workflowId","type":"bytes","indexed":false,"internalType":"bytes"}],"anonymous":false},{"type":"error","name":"InvalidInitialization","inputs":[]},{"type":"error","name":"InvalidInitializer","inputs":[]},{"type":"error","name":"InvalidRole","inputs":[]},{"type":"error","name":"NotInitializing","inputs":[]}],"bytecode":{"object":"0x6080604052348015600f57600080fd5b50610b8b8061001f6000396000f3fe608060405234801561001057600080fd5b506004361061007d5760003560e01c80639c081d2c1161005b5780639c081d2c146100d3578063c0c53b8b146100fe578063db39b63814610111578063f8d0e2961461013457600080fd5b806334d8776a146100825780638f48748a14610097578063907e9c08146100c0575b600080fd5b6100956100903660046107cf565b610147565b005b6100aa6100a5366004610897565b610363565b6040516100b79190610924565b60405180910390f35b6100956100ce366004610897565b610416565b6000546100e6906001600160a01b031681565b6040516001600160a01b0390911681526020016100b7565b61009561010c366004610953565b6105ab565b61012461011f366004610897565b61060d565b60405190151581526020016100b7565b6001546100e6906001600160a01b031681565b600054604051633cd4605360e11b81523360048201526001600160a01b03909116906379a8c0a690602401602060405180830381865afa15801561018f573d6000803e3d6000fd5b505050506040513d601f19601f820116820180604052508101906101b39190610996565b1580610228575060005460405163f328ac9f60e01b81523360048201526001600160a01b039091169063f328ac9f90602401602060405180830381865afa158015610202573d6000803e3d6000fd5b505050506040513d601f19601f820116820180604052508101906102269190610996565b155b8061023e57506001546001600160a01b03163314155b1561025c57604051636caa20b560e11b815260040160405180910390fd5b805160405160019160029161027191906109b3565b908152604051908190036020019020805461028b906109cf565b9050600003610298575060015b604080516060810182528351815260208085015190820152838201511515818301528351915190916002916102cd91906109b3565b908152604051908190036020019020815181906102ea9082610a58565b50602082015160018201906102ff9082610a58565b50604091820151600291909101805460ff1916911515919091179055825160208401518483015192517f97711664d1d55a9301684d903f53c071b6f1af9114201e159ee8938223efe706936103579392918690610b17565b60405180910390a15050565b606060028260405161037591906109b3565b90815260200160405180910390206001018054610391906109cf565b80601f01602080910402602001604051908101604052809291908181526020018280546103bd906109cf565b801561040a5780601f106103df5761010080835404028352916020019161040a565b820191906000526020600020905b8154815290600101906020018083116103ed57829003601f168201915b50505050509050919050565b600054604051633cd4605360e11b81523360048201526001600160a01b03909116906379a8c0a690602401602060405180830381865afa15801561045e573d6000803e3d6000fd5b505050506040513d601f19601f820116820180604052508101906104829190610996565b15806104f7575060005460405163f328ac9f60e01b81523360048201526001600160a01b039091169063f328ac9f90602401602060405180830381865afa1580156104d1573d6000803e3d6000fd5b505050506040513d601f19601f820116820180604052508101906104f59190610996565b155b8061050d57506001546001600160a01b03163314155b1561052b57604051636caa20b560e11b815260040160405180910390fd5b60028160405161053b91906109b3565b9081526040519081900360200190206000610556828261068b565b61056460018301600061068b565b50600201805460ff191690556040517fbf3b87a2e5b3eaf8caab905623a6e0864d3d3685b18f1ea8025423a9cdee24ca906105a0908390610924565b60405180910390a150565b82336001600160a01b038216146105d55760405163adc06ae760e01b815260040160405180910390fd5b6105dd61063b565b50600080546001600160a01b039384166001600160a01b0319918216179091556001805492909316911617905550565b600060028260405161061f91906109b3565b9081526040519081900360200190206002015460ff1692915050565b7ff0c57e16840df040f15088dc2f81fe391c3923bec73e23a9662efc9c229c6a005468010000000000000000900460ff1661068957604051631afcd79f60e31b815260040160405180910390fd5b565b508054610697906109cf565b6000825580601f106106a7575050565b601f0160209004906000526020600020908101906106c591906106c8565b50565b5b808211156106dd57600081556001016106c9565b5090565b634e487b7160e01b600052604160045260246000fd5b6040516060810167ffffffffffffffff8111828210171561071a5761071a6106e1565b60405290565b60008067ffffffffffffffff84111561073b5761073b6106e1565b50604051601f19601f85018116603f0116810181811067ffffffffffffffff8211171561076a5761076a6106e1565b60405283815290508082840185101561078257600080fd5b83836020830137600060208583010152509392505050565b600082601f8301126107ab57600080fd5b6107ba83833560208501610720565b9392505050565b80151581146106c557600080fd5b6000602082840312156107e157600080fd5b813567ffffffffffffffff8111156107f857600080fd5b82016060818503121561080a57600080fd5b6108126106f7565b813567ffffffffffffffff81111561082957600080fd5b6108358682850161079a565b825250602082013567ffffffffffffffff81111561085257600080fd5b8201601f8101861361086357600080fd5b61087286823560208401610720565b60208301525060408201359150610888826107c1565b60408101919091529392505050565b6000602082840312156108a957600080fd5b813567ffffffffffffffff8111156108c057600080fd5b6108cc8482850161079a565b949350505050565b60005b838110156108ef5781810151838201526020016108d7565b50506000910152565b600081518084526109108160208601602086016108d4565b601f01601f19169290920160200192915050565b6020815260006107ba60208301846108f8565b80356001600160a01b038116811461094e57600080fd5b919050565b60008060006060848603121561096857600080fd5b61097184610937565b925061097f60208501610937565b915061098d60408501610937565b90509250925092565b6000602082840312156109a857600080fd5b81516107ba816107c1565b600082516109c58184602087016108d4565b9190910192915050565b600181811c908216806109e357607f821691505b602082108103610a0357634e487b7160e01b600052602260045260246000fd5b50919050565b601f821115610a5357806000526020600020601f840160051c81016020851015610a305750805b601f840160051c820191505b81811015610a505760008155600101610a3c565b50505b505050565b815167ffffffffffffffff811115610a7257610a726106e1565b610a8681610a8084546109cf565b84610a09565b6020601f821160018114610aba5760008315610aa25750848201515b600019600385901b1c1916600184901b178455610a50565b600084815260208120601f198516915b82811015610aea5787850151825560209485019460019092019101610aca565b5084821015610b085786840151600019600387901b60f8161c191681555b50505050600190811b01905550565b608081526000610b2a60808301876108f8565b8281036020840152610b3c81876108f8565b941515604084015250509015156060909101529291505056fea2646970667358221220148be9a9aed8d92208477bf9800e66c7ed377a08a4a292e32aa566dc2fce3f4164736f6c634300081a0033","linkReferences":{}},"methodIdentifiers":{"addOrModifyWorkflow((bytes,string,bool))":"34d8776a","getWorkflowIsEncrypted(bytes)":"db39b638","getWorkflowMetadata(bytes)":"8f48748a","initialize(address,address,address)":"c0c53b8b","nibbleAccessControls()":"9c081d2c","nibbleStorage()":"f8d0e296","removeWorkflow(bytes)":"907e9c08"},"id":15}