{"abi":[{"type":"function","name":"addOrModifyWorkflowsBatch","inputs":[{"name":"workflows","type":"tuple[]","internalType":"struct NibbleLibrary.Workflow[]","components":[{"name":"id","type":"bytes","internalType":"bytes"},{"name":"metadata","type":"string","internalType":"string"},{"name":"encrypted","type":"bool","internalType":"bool"}]}],"outputs":[],"stateMutability":"nonpayable"},{"type":"function","name":"getWorkflowIsEncrypted","inputs":[{"name":"workflowId","type":"bytes","internalType":"bytes"}],"outputs":[{"name":"","type":"bool","internalType":"bool"}],"stateMutability":"view"},{"type":"function","name":"getWorkflowMetadata","inputs":[{"name":"workflowId","type":"bytes","internalType":"bytes"}],"outputs":[{"name":"","type":"string","internalType":"string"}],"stateMutability":"view"},{"type":"function","name":"initialize","inputs":[{"name":"nibbleFactoryAddress","type":"address","internalType":"address"},{"name":"nibbleAccessControlsAddress","type":"address","internalType":"address"},{"name":"nibbleStorageAddress","type":"address","internalType":"address"}],"outputs":[],"stateMutability":"nonpayable"},{"type":"function","name":"nibbleAccessControls","inputs":[],"outputs":[{"name":"","type":"address","internalType":"contract NibbleAccessControls"}],"stateMutability":"view"},{"type":"function","name":"nibbleStorage","inputs":[],"outputs":[{"name":"","type":"address","internalType":"address"}],"stateMutability":"view"},{"type":"function","name":"removeWorkflowsBatch","inputs":[{"name":"workflowIds","type":"bytes[]","internalType":"bytes[]"}],"outputs":[],"stateMutability":"nonpayable"},{"type":"event","name":"Initialized","inputs":[{"name":"version","type":"uint64","indexed":false,"internalType":"uint64"}],"anonymous":false},{"type":"event","name":"WorkflowsModified","inputs":[{"name":"workflowId","type":"bytes[]","indexed":false,"internalType":"bytes[]"},{"name":"metadata","type":"string[]","indexed":false,"internalType":"string[]"},{"name":"encrypted","type":"bool[]","indexed":false,"internalType":"bool[]"},{"name":"newWorkflow","type":"bool[]","indexed":false,"internalType":"bool[]"}],"anonymous":false},{"type":"event","name":"WorkflowsRemoved","inputs":[{"name":"workflowId","type":"bytes[]","indexed":false,"internalType":"bytes[]"}],"anonymous":false},{"type":"error","name":"InvalidInitialization","inputs":[]},{"type":"error","name":"InvalidInitializer","inputs":[]},{"type":"error","name":"InvalidRole","inputs":[]},{"type":"error","name":"NotInitializing","inputs":[]}],"bytecode":{"object":"0x6080604052348015600f57600080fd5b506111068061001f6000396000f3fe608060405234801561001057600080fd5b506004361061007d5760003560e01c8063b212c26c1161005b578063b212c26c146100eb578063c0c53b8b146100fe578063db39b63814610111578063f8d0e2961461013457600080fd5b80638f48748a146100825780639206f58f146100ab5780639c081d2c146100c0575b600080fd5b610095610090366004610ac7565b610147565b6040516100a29190610b53565b60405180910390f35b6100be6100b9366004610b89565b6101fa565b005b6000546100d3906001600160a01b031681565b6040516001600160a01b0390911681526020016100a2565b6100be6100f9366004610c51565b6103bc565b6100be61010c366004610dab565b6108a1565b61012461011f366004610ac7565b610903565b60405190151581526020016100a2565b6001546100d3906001600160a01b031681565b60606002826040516101599190610dee565b9081526020016040518091039020600101805461017590610e0a565b80601f01602080910402602001604051908101604052809291908181526020018280546101a190610e0a565b80156101ee5780601f106101c3576101008083540402835291602001916101ee565b820191906000526020600020905b8154815290600101906020018083116101d157829003601f168201915b50505050509050919050565b600054604051633cd4605360e11b81523360048201526001600160a01b03909116906379a8c0a690602401602060405180830381865afa158015610242573d6000803e3d6000fd5b505050506040513d601f19601f820116820180604052508101906102669190610e44565b15806102db575060005460405163f328ac9f60e01b81523360048201526001600160a01b039091169063f328ac9f90602401602060405180830381865afa1580156102b5573d6000803e3d6000fd5b505050506040513d601f19601f820116820180604052508101906102d99190610e44565b155b806102f157506001546001600160a01b03163314155b1561030f57604051636caa20b560e11b815260040160405180910390fd5b60005b815181101561038157600282828151811061032f5761032f610e61565b60200260200101516040516103449190610dee565b908152604051908190036020019020600061035f8282610981565b61036d600183016000610981565b50600201805460ff19169055600101610312565b507f4f7523644d25c1045db24538550857ad22c8e5e20aee9418c371fc26a27a0aa3816040516103b19190610ed3565b60405180910390a150565b600054604051633cd4605360e11b81523360048201526001600160a01b03909116906379a8c0a690602401602060405180830381865afa158015610404573d6000803e3d6000fd5b505050506040513d601f19601f820116820180604052508101906104289190610e44565b158061049d575060005460405163f328ac9f60e01b81523360048201526001600160a01b039091169063f328ac9f90602401602060405180830381865afa158015610477573d6000803e3d6000fd5b505050506040513d601f19601f8201168201806040525081019061049b9190610e44565b155b806104b357506001546001600160a01b03163314155b156104d157604051636caa20b560e11b815260040160405180910390fd5b600081516001600160401b038111156104ec576104ec6109d7565b604051908082528060200260200182016040528015610515578160200160208202803683370190505b509050600082516001600160401b03811115610533576105336109d7565b60405190808252806020026020018201604052801561055c578160200160208202803683370190505b509050600083516001600160401b0381111561057a5761057a6109d7565b6040519080825280602002602001820160405280156105ad57816020015b60608152602001906001900390816105985790505b509050600084516001600160401b038111156105cb576105cb6109d7565b6040519080825280602002602001820160405280156105fe57816020015b60608152602001906001900390816105e95790505b50905060005b855181101561085c57600286828151811061062157610621610e61565b60200260200101516000015160405161063a9190610dee565b908152604051908190036020019020805461065490610e0a565b905060000361068657600185828151811061067157610671610e61565b911515602092830291909101909101526106ab565b600085828151811061069a5761069a610e61565b911515602092830291909101909101525b60405180606001604052808783815181106106c8576106c8610e61565b60200260200101516000015181526020018783815181106106eb576106eb610e61565b602002602001015160200151815260200187838151811061070e5761070e610e61565b6020026020010151604001511515815250600287838151811061073357610733610e61565b60200260200101516000015160405161074c9190610dee565b908152604051908190036020019020815181906107699082610f35565b506020820151600182019061077e9082610f35565b50604091909101516002909101805460ff191691151591909117905585518690829081106107ae576107ae610e61565b6020026020010151604001518482815181106107cc576107cc610e61565b6020026020010190151590811515815250508581815181106107f0576107f0610e61565b60200260200101516020015183828151811061080e5761080e610e61565b602002602001018190525085818151811061082b5761082b610e61565b60200260200101516000015182828151811061084957610849610e61565b6020908102919091010152600101610604565b507fbca40f69760296d4e1bf817fb7a24add52bfb1e2ad99c1d54d4eb510a19cfdd9818385876040516108929493929190611031565b60405180910390a15050505050565b82336001600160a01b038216146108cb5760405163adc06ae760e01b815260040160405180910390fd5b6108d3610931565b50600080546001600160a01b039384166001600160a01b0319918216179091556001805492909316911617905550565b60006002826040516109159190610dee565b9081526040519081900360200190206002015460ff1692915050565b7ff0c57e16840df040f15088dc2f81fe391c3923bec73e23a9662efc9c229c6a005468010000000000000000900460ff1661097f57604051631afcd79f60e31b815260040160405180910390fd5b565b50805461098d90610e0a565b6000825580601f1061099d575050565b601f0160209004906000526020600020908101906109bb91906109be565b50565b5b808211156109d357600081556001016109bf565b5090565b634e487b7160e01b600052604160045260246000fd5b604051606081016001600160401b0381118282101715610a0f57610a0f6109d7565b60405290565b604051601f8201601f191681016001600160401b0381118282101715610a3d57610a3d6109d7565b604052919050565b6000806001600160401b03841115610a5f57610a5f6109d7565b50601f8301601f1916602001610a7481610a15565b915050828152838383011115610a8957600080fd5b828260208301376000602084830101529392505050565b600082601f830112610ab157600080fd5b610ac083833560208501610a45565b9392505050565b600060208284031215610ad957600080fd5b81356001600160401b03811115610aef57600080fd5b610afb84828501610aa0565b949350505050565b60005b83811015610b1e578181015183820152602001610b06565b50506000910152565b60008151808452610b3f816020860160208601610b03565b601f01601f19169290920160200192915050565b602081526000610ac06020830184610b27565b60006001600160401b03821115610b7f57610b7f6109d7565b5060051b60200190565b600060208284031215610b9b57600080fd5b81356001600160401b03811115610bb157600080fd5b8201601f81018413610bc257600080fd5b8035610bd5610bd082610b66565b610a15565b8082825260208201915060208360051b850101925086831115610bf757600080fd5b602084015b83811015610c385780356001600160401b03811115610c1a57600080fd5b610c2989602083890101610aa0565b84525060209283019201610bfc565b509695505050505050565b80151581146109bb57600080fd5b600060208284031215610c6357600080fd5b81356001600160401b03811115610c7957600080fd5b8201601f81018413610c8a57600080fd5b8035610c98610bd082610b66565b8082825260208201915060208360051b850101925086831115610cba57600080fd5b602084015b83811015610c385780356001600160401b03811115610cdd57600080fd5b85016060818a03601f19011215610cf357600080fd5b610cfb6109ed565b60208201356001600160401b03811115610d1457600080fd5b610d238b602083860101610aa0565b82525060408201356001600160401b03811115610d3f57600080fd5b82016020810190603f018b13610d5457600080fd5b610d638b823560208401610a45565b60208301525060608201359150610d7982610c43565b6040810191909152835260209283019201610cbf565b80356001600160a01b0381168114610da657600080fd5b919050565b600080600060608486031215610dc057600080fd5b610dc984610d8f565b9250610dd760208501610d8f565b9150610de560408501610d8f565b90509250925092565b60008251610e00818460208701610b03565b9190910192915050565b600181811c90821680610e1e57607f821691505b602082108103610e3e57634e487b7160e01b600052602260045260246000fd5b50919050565b600060208284031215610e5657600080fd5b8151610ac081610c43565b634e487b7160e01b600052603260045260246000fd5b600082825180855260208501945060208160051b8301016020850160005b83811015610ec757601f19858403018852610eb1838351610b27565b6020988901989093509190910190600101610e95565b50909695505050505050565b602081526000610ac06020830184610e77565b601f821115610f3057806000526020600020601f840160051c81016020851015610f0d5750805b601f840160051c820191505b81811015610f2d5760008155600101610f19565b50505b505050565b81516001600160401b03811115610f4e57610f4e6109d7565b610f6281610f5c8454610e0a565b84610ee6565b6020601f821160018114610f965760008315610f7e5750848201515b600019600385901b1c1916600184901b178455610f2d565b600084815260208120601f198516915b82811015610fc65787850151825560209485019460019092019101610fa6565b5084821015610fe45786840151600019600387901b60f8161c191681555b50505050600190811b01905550565b600081518084526020840193506020830160005b828110156110275781511515865260209586019590910190600101611007565b5093949350505050565b6080815260006110446080830187610e77565b828103602084015280865180835260208301915060208160051b8401016020890160005b8381101561109a57601f19868403018552611084838351610b27565b6020958601959093509190910190600101611068565b505085810360408701526110ae8189610ff3565b935050505082810360608401526110c58185610ff3565b97965050505050505056fea264697066735822122019af72397b56ee40f44bd19501ffb532ea58f628ae055c720a6ba2ae5bfaafdf64736f6c634300081a0033","linkReferences":{}},"methodIdentifiers":{"addOrModifyWorkflowsBatch((bytes,string,bool)[])":"b212c26c","getWorkflowIsEncrypted(bytes)":"db39b638","getWorkflowMetadata(bytes)":"8f48748a","initialize(address,address,address)":"c0c53b8b","nibbleAccessControls()":"9c081d2c","nibbleStorage()":"f8d0e296","removeWorkflowsBatch(bytes[])":"9206f58f"},"id":13}